:020000040800F2
:10000000105100204D020008B72000086D030008C1
:10001000B5200008B108000877290008000000009A
:100020000000000000000000000000005F02000867
:10003000550B000800000000BB020008AD230008BB
:1000400067020008670200086702000867020008EC
:1000500067020008670200086702000867020008DC
:1000600067020008670200086702000867020008CC
:1000700067020008670200086702000867020008BC
:1000800067020008670200086702000867020008AC
:10009000670200086702000867020008670200089C
:1000A000670200086702000867020008670200088C
:1000B000670200086702000867020008670200087C
:1000C000670200086702000867020008670200086C
:1000D000670200086702000867020008670200085C
:1000E000670200086702000867020008670200084C
:1000F000670200086702000867020008670200083C
:10010000670200086702000867020008670200082B
:10011000670200086702000867020008670200081B
:10012000670200086702000867020008670200080B
:1001300067020008670200086702000867020008FB
:1001400067020008670200086702000867020008EB
:100150006702000867020008E91F0008670200083C
:1001600067020008670200086702000867020008CB
:10017000670200086702000867020008000000002C
:1001800067020008670200086702000867020008AB
:10019000670200086702000867020008670200089B
:1001A00067020008670200086702000800F002F812
:1001B00000F03CF80AA090E8000C82448344AAF1C5
:1001C0000107DA4501D100F031F8AFF2090EBAE8C3
:1001D0000F0013F0010F18BFFB1A43F0010318477B
:1001E000D8660000F8660000103A24BF78C878C1CD
:1001F000FAD8520724BF30C830C144BF04680C602D
:10020000704700000023002400250026103A28BF74
:1002100078C1FBD8520728BF30C148BF0B60704778
:100220001FB505F038FE1FBD10B510BD00F088FAEF
:100230001146FFF7F5FF00F0BCFA00F0A6FA03B490
:10024000FFF7F2FF03BC00F0ADFA00000948804759
:1002500009480047FEE7FEE7FEE7FEE7FEE7FEE7A8
:10026000FEE7FEE7FEE7FEE704480549054A064BC0
:1002700070470000D5240008AD010008104500209B
:10028000105100201049002010490020EFF3108089
:1002900072B6704780F310887047424A1368012B8A
:1002A00004D04FF0010313603F4A10603F4A1160D1
:1002B0003F484FF0805101607047EFF3108272B6F3
:1002C0003848016851B34FF00001016036480168B9
:1002D00091B1EFF309811EF0100F08BF21ED108BD3
:1002E00021E9F00F4FF000041EF0100F08BF0124A9
:1002F00041F8044D006801602C490968096808C983
:10030000B1E8F00F002B18BF00F05AB881F309884C
:100310004EF0100E002B18BF2EF0100E82F3108836
:100320004EF0040E704721490860EFF3148222F06A
:10033000040282F314881C494FF000000860194938
:100340004FF0010008601B481B49D0F8002041EA2B
:100350000201016016484FF08051016017480068A3
:10036000006880F3088861B662B670471EF0040F1B
:100370000CBFEFF30880EFF3098020E9F00F40F89D
:1003800004ED40F804ED1EF0040F0CBF80F3088864
:1003900080F3098800B503F079FE5DF804EB4EF0B8
:1003A000040E70479C00002094000020980000205C
:1003B00004ED00E020ED00E00000FFFF08ED00E0AC
:1003C000B1EC088BB1EC08CBFFF7A0BF53EA020CED
:1003D00000F069802DE9F04B4FF00006002B1FBFA5
:1003E000B3FA83F503FA05F424FA05F65E4012BF6A
:1003F0001643B2FA82F502FA05F4C5F120051EBFD4
:1004000022FA05FC44EA0C04203556EA044C4FEA73
:10041000144418BF641C4FF000084FF000099042CC
:1004200071EB030C39D3002919BFB1FA81F701FA36
:1004300007F6B0FA80F700FA07F6C7F120071EBFEB
:1004400020FA07FC46EA0C062037B6FBF4FCA7EBC3
:100450000507103F07F01F0BCBF120060CFA0BFB32
:100460002CFA06F644BFB3460026202FA4BF5E46F2
:100470004FF0000B5BEA060C08BF4FF0010B19EBC5
:100480000B09ABFB027C48EB0608C01B06FB02CC49
:100490000BFB03CC71EB0C01C1E70B460246414656
:1004A0004846BDE8F08B13B54FF000004FF0000157
:1004B000AFF30080BDE81C40704740EA01030246EC
:1004C00030B59B0710D14FF0013400E008C208C9D5
:1004D0001D1B9D4315EAC41FF8D013F0FF0102F85D
:1004E000011B0DD01B0AF8E711F8013B002B02F8A5
:1004F000013B05D011F8013B002B02F8013BF3D181
:1005000030BD10B5431C02E010F8011B71B181072A
:10051000FAD14FF0013202C88C1A8C4314EAC2118E
:10052000F9D0C01A0A0603D0C01E10BDC01A10BDF3
:100530000A0401D0801E10BD0902FCD0401E10BD6F
:1005400040EA010370B59B072ED14FF00136042A13
:100550002AD308C810C99D1B9D43121F15EAC61552
:1005600017D0D8B2E1B2401A50EA056110D198B262
:10057000A1B2401A50EA05410AD123F07F4024F08D
:100580007F41401A50EA052102D1180EA0EB1460F9
:1005900070BDA342DBD018BA21BA884201D901202C
:1005A00070BD4FF0FF3070BD0AB9002070BD10F86B
:1005B000013B11F8014B63B1A3420AD1521E08D08E
:1005C00010F8013B11F8014B1BB1A34201D1521E9F
:1005D000EDD1181B70BD421E12F8013F002BFBD15C
:1005E00011F8013B002B02F8013BF9D1704710B51F
:1005F000203AC0F00B80B1E81850203AA0E818501B
:10060000B1E81850A0E81850BFF4F5AF5FEA027CDB
:1006100024BFB1E81850A0E8185044BF18C918C04A
:10062000BDE810405FEA827C24BF51F8043B40F8EB
:10063000043B08BF7047D20728BF31F8023B48BFD0
:1006400011F8012B28BF20F8023B48BF00F8012B0E
:1006500070474FF000020429C0F0128010F0030C24
:1006600000F01B80CCF1040CBCF1020F18BF00F8A5
:10067000012BA8BF20F8022BA1EB0C0100F00DB854
:100680005FEAC17C24BF00F8012B00F8012B48BFB2
:1006900000F8012B70474FF0000200B51346944656
:1006A0009646203922BFA0E80C50A0E80C50B1F1CA
:1006B0002001BFF4F7AF090728BFA0E80C5048BFDE
:1006C0000CC05DF804EB890028BF40F8042B08BF7C
:1006D000704748BF20F8022B11F0804F18BF00F878
:1006E000012B704710B5044610F0030F08BF11F03E
:1006F000030F40F015804FF0013E121FC0F20E8034
:1007000051F8043BA3EB0E0C2CEA030C1CEACE1CA4
:1007100008BF40F8043BF0D0A1F1040102F104024B
:10072000521E08DB11F8013B002B00F8013BF7D10A
:100730001146FFF78EFF204610BD70477047704787
:10074000754600F02BF8AE4605006946534620F08A
:100750000700854618B020B5FFF786FDBDE82040AC
:100760004FF000064FF000074FF000084FF0000B6D
:1007700021F00701AC46ACE8C009ACE8C009ACE820
:10078000C009ACE8C0098D46704710B50446AFF308
:1007900000802046BDE81040FFF751BD004870477B
:1007A000AC44002001491820ABBEFEE72600020041
:1007B000704710B505F0BFFA002010BD10B504A0B9
:1007C00003F0B6FDBDE8104004A003F0B1BD000089
:1007D0000A5B494E464F5D203E3E200042757474D0
:1007E0006F6E3120C1ACB0B4CACDB7C521000000D6
:1007F00010B504A003F09CFDBDE8104004A003F078
:1008000097BD00000A5B494E464F5D203E3E2000EA
:10081000427574746F6E3120C1ACB0B42100000019
:1008200010B504A003F084FDBDE8104004A003F05F
:100830007FBD00000A5B494E464F5D203E3E2000D2
:10084000427574746F6E3120CBABBBF72100000092
:1008500010B504A003F06CFDBDE8104004A003F047
:1008600067BD00000A5B494E464F5D203E3E2000BA
:10087000427574746F6E3120B5A5BBF7210000007E
:1008800010B504A003F054FDBDE8104004A003F02F
:100890004FBD00000A5B494E464F5D203E3E2000A2
:1008A000427574746F6E3120B3A4B0B4210000009F
:1008B000FEE70000072903D000EB81008262704749
:1008C0005FF0000100EB8103491CC9B29A6207295D
:1008D000F8D370472DE9FC411F4616460C0005462B
:1008E00004D1312229A12FA003F022FD50220021A2
:1008F000204603F0C4FE201D294620225FF000059B
:1009000011F8013B00F8013BE3B3521EF8D100BFE0
:1009100014F8240F20F00F00093020F0F000903080
:1009200020700920A07044F8246C607867F30100FF
:100930006070B04714F8011F60F3830104F8251BB1
:100940001C4804F8025B016844F84C1904601AA0C2
:1009500003F0EEFC94F82500C0F3810100F00300E1
:10096000CDE9000194F8240094F8263000F00F023D
:10097000211D144803F0DCFCBDE8FC4101F0F4BC8F
:1009800000F8015B521EFBD1C2E700002E2E5C4333
:100990006F72655C5372635C627574746F6E2E6304
:1009A000000000000A4572726F723A25732C2564AC
:1009B0000D0A0000040000200A5B494E464F5D20EE
:1009C0003E3E20004463000870B50446006880473E
:1009D00094F825100025C1F38102824220D094F8BA
:1009E0004A20521CD2B284F84A20022A18D360F35B
:1009F000830184F8251084F84A5094F8240000F00C
:100A00000F01092904D0022902D0010703D007E011
:100A100020F00F0002E020F00F00401C84F82400BA
:100A200094F8240010F00F0123D001294CD00229A2
:100A300049D194F84910491CC9B284F849101429C5
:100A400041D320F00F00093020F0F000903084F8FE
:100A50002400000937D084F84950A16A09B1204622
:100A6000884714F8240F20F00F00093020F0F00020
:100A70003DE094F82500C0F3810100F003008142BD
:100A800021D184F8265094F84B00401CC0B284F861
:100A90004B00322817D394F84800401C10F0FF0098
:100AA00084F8480008D084F84850032084F82600D1
:100AB000616B09B12046884794F84B00FF2802D1AA
:100AC000322084F84B0070BD94F8261089B10329B8
:100AD000F9D1A16B09B12046884784F84B5014F82E
:100AE000240F20F00F00093020F0F000303020708B
:100AF00070BD94F84910142912D80221B1EB101FCF
:100B00000ED184F82610216B09B12046884714F8CD
:100B1000240F20F00F00093020F0F0009030E6E7BD
:100B200020F00F0004F8495F801C20F0F000A57051
:100B3000203004F8250C70BD054810B5046803E0AA
:100B40002046FFF741FFE46C002CF9D110BD0000F6
:100B500004000020704772B6FEE710B590F825102B
:100B60000022022905D00421C16380F8242001203D
:100B700010BD01680B6823F00E030B6001680B6861
:100B800023F001030B6090F84410046C01F01C0387
:100B9000012101FA03F3636080F8251080F8242016
:100BA000104610BD10B590F825100024022903D07E
:100BB0000421C16301241AE001680A6822F00E02D0
:100BC0000A6001680A6822F001020A6090F8441085
:100BD000036C01F01C02012101FA02F25A6080F854
:100BE0002510002180F82410816B01B18847204630
:100BF00010BD00002DE9F04FDFF820920023012600
:100C00000325A9F1040B85B00F2709F1040AABF104
:100C1000040EFBE006FA03FC12EA0C027ED00C790B
:100C200004F00304012C01D0022C20D1846800942C
:100C30005C0005FA04F80494009C24EA080400947B
:100C4000D1F80C80049C08FA04F8009C48EA0408D7
:100C5000C0F80880446824EA0C0491F804C0CCF37E
:100C6000001C0CFA03FC4CEA040CC0F804C00C791C
:100C7000E443A4070ED0C4684FEA430805FA08FC11
:100C800024EA0C04D1F808C00CFA08FC4CEA040C65
:100C9000C0F80CC00C7904F00304022C15D1DC0858
:100CA00000EB84040294246A4FEA437C4FEADC6838
:100CB00007FA08FC24EA0C04D1F810C00CFA08FC6E
:100CC0004CEA040C029CC4F820C004684FEA4308B4
:100CD00005FA08FC24EA0C0491F804C00CF0030C9B
:100CE0000CFA08FC4CEA040CC0F800C04C6814F480
:100CF000403F13D04A4CD4F860C04CF0010CC4F80B
:100D000060C0246E23F0030C04F001040094454CF1
:100D100064440294A4684FEA837C00E075E04FEAE3
:100D20001C7807FA08FC24EA0C04B0F1904F06D0B6
:100D3000DFF8F4C0604505D14FF0010C2EE04FF014
:100D4000000C2BE0DFF8E4C0604502D14FF0020C4C
:100D500024E0DFF8DCC0604502D14FF0030C1DE059
:100D6000DFF8D0C0604502D14FF0040C16E0DFF888
:100D7000C8C0604502D14FF0050C0FE0DFF8BCC0E1
:100D8000604502D14FF0060C08E0DFF8B4C06045C2
:100D900002D14FF0070C01E04FF0080C0CFA08FCF0
:100DA0004CEA040C029CC4F808C0D9F80040CC46B8
:100DB000D1F8048094435FEAC82800D51443CCF8E6
:100DC0000040DAF80040D446D1F8048094435FEA4A
:100DD000882800D51443CCF80040DBF80040DC46FE
:100DE000D1F8048094435FEA883800D51443CCF8E6
:100DF0000040DEF80040F446D1F8048094435FEAF6
:100E0000C83800D51443CCF800405B1C0A6832FA9D
:100E100003F47FF4FFAE05B000F014B808040140FD
:100E20000010024000000140000400480008004893
:100E3000000C00480010004800140048001800484A
:100E4000001C004830BCBDE8C08F0069084000D0DD
:100E500001207047426921EA02030A4043EA024145
:100E6000816170470AB181617047816270470000FB
:100E700001488068704700000800002010B5002479
:100E8000032000F071F8002000F008F808B10124F8
:100E900001E000F025F8204610BD000070B50E4EB0
:100EA00005460024307898B14FF47A71B1FBF0F028
:100EB0000A490968B1FBF0F000F05CFE40B9102D62
:100EC00006D200222946501E00F02EF8756000E080
:100ED0000124204670BD00000800002014000020FE
:100EE000094808B5016E41F001010166016E01F08B
:100EF00001010091816D41F080518165806D00F0AC
:100F00008050009008BD000000100240002809DB5E
:100F100000F01F02012191404009800000F1E02013
:100F2000C0F8001170470000F0B40E4B1B680C466F
:100F3000C3F30223C3F10705042D00D90425191DAD
:100F4000072901D2002300E0DB1E012606FA05F185
:100F5000491E214099409E40761E16403143F0BC08
:100F600001F00ABD0CED00E0064900F00702086838
:100F70004FF6FF03184040EA0220034A104308607E
:100F8000704700000CED00E00000FA051649B0F5CE
:100F9000007F0868C0F3412009D0022805D0086806
:100FA00020F4C06040F48060086000207047012891
:100FB000FBD0086820F4C06040F4007008600B4863
:100FC0003222006850430A4AB0FBF2F0401C00E0B5
:100FD000401E4A69520501D50028F9D148694005EB
:100FE000E3D503207047000000700040140000208B
:100FF00040420F000248006800F4C06070470000E3
:10100000007000402DE9F84F044600270088EC4DA1
:101010003E46010504F1200B1DD5A06E78B1B0F558
:10102000800F11D0B0F5000F04D0B0F5400F22D0E2
:1010300001270FE0E86840F48030E8601BE0002101
:10104000201D01F039F803E00021584601F0CAF8EC
:10105000070010D03E462088C00426D5E06EC0B1FF
:10106000B0F1807F1AD0B0F1007F0DD0B0F1407F99
:1010700019D0012718E0D5F88800A16E20F44000AF
:101080000843C5F88800E6E7E86840F48030E86087
:1010900009E00021201D01F00FF803E0002158466F
:1010A00001F0A0F80746F7B13E46206880033AD524
:1010B000A86D4FF00008C00009D4A86D40F0805022
:1010C000A865A86D4FF0010800F080500090DFF88F
:1010D000F4A2DAF8001041F48071CAF80010FFF7AA
:1010E000C7FE814610E0D5F88800E16E20F0407020
:1010F0000843C5F88800D8E7FFF7BAFEA0EB09005F
:10110000022801D9032705E0DAF80000C005F3D56D
:10111000002F7CD04FEA0706B8F1000F03D0A86D6E
:1011200020F08050A8652078C00707D0D5F8880047
:10113000A16B20F003000843C5F8880020788007E1
:1011400007D5D5F88800E16B20F00C000843C5F8FE
:1011500088002078400707D5D5F88800216C20F05A
:1011600030000843C5F888002078000707D5D5F877
:101170008800616C20F0C0000843C5F88800207822
:10118000C00607D5D5F88800A16C20F4407008434C
:10119000C5F888002078800607D5D5F88800E16C6E
:1011A00020F440600843C5F888002088800507D5F2
:1011B000D5F88800216E20F440200843C5F8880047
:1011C0002088400507D5D5F88800616E20F44010CE
:1011D0000843C5F888002078400607D5D5F8880070
:1011E000216D20F440500843C5F88800207800069F
:1011F00007D5D5F88800616D20F440400843C5F854
:1012000088002088C00509D5D5F8880000E027E0CF
:10121000A16D20F440300843C5F888002068C00262
:1012200007D5D5F89C00E16D20F003000843C5F810
:101230009C0020884FF0006780044FF0806850D5F4
:10124000D5F88800216F20F040600843C5F8880079
:10125000206FB8423DD1E86840F48010E86040E07B
:10126000D5F8900010F4407015D0D4F88810814261
:1012700011D0D5F89000D5F8901020F4407041F4CA
:101280008031C5F89010D5F8901021F48031C5F860
:101290009010C5F89000C00711D0FFF7E9FD074690
:1012A00041F2883907E000BFFFF7E2FDC11B494565
:1012B00001D9032630E7D5F890008007F4D5D5F89A
:1012C0009000D4F8881020F440700843C5F89000CE
:1012D00022E7404505D10121201D00F0EDFE00B1BF
:1012E00006462068000317D5D5F88800616F20F006
:1012F00040600843C5F88800606FB84204D1E868D0
:1013000040F48010E86007E0404505D10121201D30
:1013100000F0D2FE00B106462068400317D5D5F88C
:101320008800A16F20F040600843C5F88800A06FD6
:10133000B84204D1E86840F48010E86007E0404516
:1013400005D10121201D00F0B7FE00B1064620881E
:1013500040041AD5D5F88800E16F20F040500843CA
:10136000C5F88800E06FB0F1805F03D0B0F1005F96
:1013700005D00AE00221201D00F09EFE03E00221BC
:10138000584600F02FFF00B106462088000408D51B
:10139000D5F88800D4F8801020F080400843C5F8C4
:1013A00088002068C00307D555F8880FD4F884104A
:1013B00020F0004008432860304600F005B80000E7
:1013C000001002400070004018BCBDE8E08F000033
:1013D0002DE9F0470F4605006BD0494E306800F00C
:1013E0000700B84209D2306820F007003843306067
:1013F000306800F00700B8425BD12878414C800784
:101400000AD5A868A16801F0F001884204D9A16852
:1014100021F0F0010143A1602878C0072CD0686852
:10142000032811D0022812D0216898B1490500295B
:101430003FDAA16821F003010143A160FFF718FD25
:10144000804641F2883910E021688901EFE7216880
:101450008903ECE78907EAE7FFF70AFDA0EB08013B
:10146000494502D90320BDE8F087A068696800F00B
:101470000C00B0EB810FEFD1287880070AD5A8685F
:10148000A16801F0F001884204D2A16821F0F001C6
:101490000143A160306800F00700B8420BD9306802
:1014A00020F0070038433060306800F00700B84291
:1014B00001D00120D7E72878400705D5A068E96862
:1014C00020F4E0600843A0602878000706D5A068F3
:1014D000296920F4605040EAC100A06000F044F89F
:1014E000A168094AC1F30311515C01F01F01C84012
:1014F0000649086006480068BDE8F047FFF7CEBC23
:101500000020024000100240A05E000814000020ED
:101510000C00002001480068704700001400002003
:101520000548064900688968054AC1F30221515CF3
:1015300001F01F01C8407047140000200010024055
:10154000E05E00080548064900688968054AC1F35D
:10155000C221515C01F01F01C840704714000020F7
:1015600000100240E05E000870B5254900231846CF
:101570008A68CC6812F00C0204F00306214C4FEA92
:10158000640509D00C2A05D0042A32D0082A00D1DB
:10159000284670BD012E10D10B681B0704D4D1F86A
:1015A0009430C3F3032302E00B68C3F30313164E16
:1015B00056F82330DAB10C2AEBD1C86800F00300EA
:1015C000022818D0032818D01846CA68CB68C2F37E
:1015D0000212C3F306234343521CB3FBF2F2C86862
:1015E000C0F34160401C4000B2FBF0F070BD1846F3
:1015F00070BD204670BD2046E7E72846E5E70000BD
:10160000001002400024F400B05E00082DE9F84309
:1016100004006FD0FA4DA86800F00C06E86800F0EE
:1016200003072078C00664D576B10C2E01D1012FB6
:101630000AD0A069002828687AD040F0010028600C
:10164000FFF716FC80465DE02868800702D5A06998
:101650000028DED0216A2868000703D5286800F03A
:10166000F00004E0D5F89400F02202EA1010814264
:1016700016D9084600F03AFE00283BD1286840F011
:10168000080028602868216A20F0F00008432860DC
:101690006868E16920F47F4040EA0120686016E054
:1016A000286840F0080028602868216A20F0F000CF
:1016B000084328606868E16920F47F4040EA01201F
:1016C000686026B9206A00F011FE0028D5D1FFF726
:1016D0004BFFA968CB4AC1F30311515C01F01F0114
:1016E000C840C9490860C9480068FFF7D7FB00280F
:1016F0007ED12EE0CAE000BFFFF7BAFBA0EB0800E6
:10170000022876D828688007F6D5286840F00800B7
:1017100028602868216A20F0F00008432860686883
:10172000E16920F47F4040EA0120686011E0FFE7B2
:1017300020F001002860FFF79BFB804606E000BF19
:10174000FFF796FBA0EB08000228DAD8286880078C
:10175000F6D42078C00740D0082E18D00C2E01D126
:10176000032F14D06068B0F5803F17D0B0F5A02FDC
:10177000286817D020F480302860286820F4802062
:1017800028606068E0B1FFF773FB804614E02868CA
:10179000800322D56068002878D01EE0286840F4D5
:1017A0008030EDE740F480202860F7E7FFF760FB2A
:1017B000A0EB08006428A4D828688003F6D50CE0C4
:1017C000FFF756FB804605E0FFF752FBA0EB080051
:1017D000642896D828688003F6D4207880073BD503
:1017E000042E11D00C2E01D1022F0DD0E06801E0A3
:1017F000AEE1FFE0002828681ED040F48070286029
:10180000FFF736FB07460CE0286840050CD5E0687A
:101810000028C1D008E000BFFFF72AFBC01B022848
:1018200093D828684005F7D56868217C20F0FE40F1
:1018300040EA016068600FE020F480702860FFF7E4
:1018400017FB074605E000BFFFF712FBC01B02288D
:10185000B1D828684005F7D42078000729D56069F9
:101860000028D5F8940012D040F00100C5F894008B
:10187000FFF7FEFA074604E0FFF7FAFAC01B02285A
:1018800099D8D5F894008007F6D512E02BE120F026
:101890000100C5F89400FFF7EBFA074605E000BF2A
:1018A000FFF7E6FAC01B022885D8D5F89400800718
:1018B000F6D42078400766D5A86D0027C00008D46C
:1018C000A86D40F08050A865A86D012700F08050F9
:1018D00000904F480168C90512D40168814641F45F
:1018E00080710160FFF7C4FA804605E0FFF7C0FA97
:1018F000A0EB080002287DD8D9F80000C005F5D576
:10190000A068012816D00528D5F8900017D020F03F
:101910000100C5F89000D5F8900020F0040000BF49
:10192000C5F89000A06841F28839C0B1FFF7A0FA6D
:1019300080460FE0D5F8900040F00100F0E740F05D
:101940000400C5F89000F5E7FFF792FAA0EB080154
:1019500049454FD8D5F890008007F5D50EE0FFF740
:1019600087FA804606E000BFFFF782FAA0EB080185
:1019700049453FD8D5F890008007F5D41FB1A86D30
:1019800020F08050A8652078800628D5606A00285D
:10199000D5F8980012D040F00100C5F89800FFF784
:1019A00067FA074605E000BFFFF762FAC01B02288E
:1019B00020D8D5F898008007F6D510E020F0010077
:1019C000C5F89800FFF754FA074604E0FFF750FA0D
:1019D000C01B02280ED8D5F898008007F6D4A06A5C
:1019E000F0B3022816D00C2E7DD0286820F080702D
:1019F000286000E0ABE0FFF73BFA0446AAE00000F5
:101A000000100240A05E0008140000200C0000201E
:101A100000700040E868E26A00F00301914228D1BA
:101A2000216B00F0700209011039914221D1626BE3
:101A300000F4FE41B1EB022F1BD194F8382000F0E6
:101A40007841B1EBC26F14D1A18F00F4C0024908F4
:101A50004905A1F5001191420BD194F8401000E026
:101A60006EE04908490600F0C060A1F100718142B2
:101A70004FD00C2E77D02868400174D42868C0005D
:101A800071D4286820F080702860FFF7F1F90646CD
:101A900005E000BFFFF7ECF9801B022857D8286843
:101AA0008001F7D4F4E90B016FF00F0202EB011192
:101AB0000843218A5204490802EB4151A26841EAD5
:101AC00002210843217D4FF07E42490802EB41612B
:101AD0000843217B40EAC160E968244A1140084379
:101AE000E860286800E03EE040F080702860E86828
:101AF00040F08070E860FFF7BBF9044605E000BFE6
:101B0000FFF7B6F9001B022821D828688001F7D515
:101B100027E02868800124D4286840F0807028607D
:101B2000E86840F08070E860FFF7A2F9044604E03E
:101B3000FFF79EF9001B022809D828688001F7D515
:101B40000FE000BFFFF794F9001B022802D9032021
:101B5000BDE8F88328688001F4D4E86804490840A7
:101B6000E8600020F4E70120F2E700008C809D018E
:101B7000FCFFEEFE10B5401EB0F1807F01D30120C6
:101B800010BD4FF0E02460610F21601700F0F4FEFB
:101B90000020A06107202061002010BD7047704721
:101BA000704700002DE9F04102680446D0691168D1
:101BB000936840F60F0528424FF0000505D18606D0
:101BC0007ED58E067CD5616E1BE1994F03F0010630
:101BD0000F40374374D0C70709D0CF0507D5012779
:101BE0001762D4F8802042F00102C4F880208207F6
:101BF0000AD5DA0708D0276802223A62D4F8802092
:101C000042F00402C4F8802042070AD5DA0708D05F
:101C1000236804221A62D4F8802042F00202C4F839
:101C2000802002070CD501F02002324308D023683F
:101C300008221A62D4F8802042F00802C4F88020FA
:101C400002050BD54A0109D523684FF400621A62D8
:101C5000D4F8802042F02002C4F88020D4F88020FC
:101C6000002A35D0800605D5880603D5616E09B1F6
:101C700020468847D4F8800021688968490602D444
:101C800010F0280F26D0204600F0C8FC206880689D
:101C900040061AD52068083050E8001F21F04001A6
:101CA00040E80012002AF5D1206F70B161498163CC
:101CB000206FFEF777FF00280AD0206F816B01E0CC
:101CC0000EE02046BDE8F04108472046FFF768FFD8
:101CD000BDE8F0812046FFF763FFC4F88050F7E7C6
:101CE000276E2026012F7BD1C70679D5CF0677D561
:101CF0001020106220688068400641D5216F086876
:101D000040680004000CE3D0B4F858208242DFD9C8
:101D1000A4F85A000868006880062AD4206850E8B1
:101D2000001F21F4807140E80012002AF6D12068DB
:101D3000083050E8001F21F0010140E80012002A9D
:101D4000F5D12068083050E8001F21F0400140E83C
:101D50000012002AF5D1E6672566216851E8000FD8
:101D600020F0100041E80002002AF6D1206FFEF7B3
:101D7000F4FEB4F85800B4F85A10401A81B22AE0C0
:101D8000B4F85800B4F85A10401A81B2B4F85A00A6
:101D900000289DD000299BD0226852E8000F20F433
:101DA000907042E80003002BF6D12068083050E81C
:101DB000002F22F0010240E80023002BF5D1E66756
:101DC00025666566226852E8000F20F0100042E8A0
:101DD0000003002BF6D12046FFF7E0FE78E7FFE78F
:101DE000C70209D55B0207D54FF480101062204668
:101DF000BDE8F041FFF7D3BE020606D50A0604D5BA
:101E0000A16E00297FF45DAF62E74006E6D5480683
:101E1000E4D52046026852E8001F21F0400142E864
:101E20000013002BF6D18667856600F0DCF84FE7DB
:101E3000200100040926000810B5040002D0A06F9C
:101E400010B107E0012010BD002084F87400204686
:101E500000F026F82420A0672068016821F0010125
:101E60000160204600F000FC0128ECD0606A10B14F
:101E7000204600F037FB2068416821F49041416022
:101E80002068816821F02A0181602068016841F0A2
:101E9000010101602046BDE8104000F087BB000052
:101EA00010B5AAB00446142123A8FEF7F4FB8C2138
:101EB0006846FEF7F0FB1B492068884230D120209D
:101EC0000024009013946846FFF79CF808B1FEF7D1
:101ED00042FE1548C16D41F00101C165C16D01F0BF
:101EE00001012891C16C41F00201C164C06C23A9B9
:101EF00000F0020028904FF4406023900220CDE9CA
:101F0000240403202690082027900848FEF772FE3C
:101F1000002211464620FFF707F84620FEF7F6FF9D
:101F20002AB010BD008000400010024000040048AC
:101F30002DE9F8430446806F1F4616460D462028BB
:101F40004FD1CDB1C6B194F87400012849D0012019
:101F500084F874004FF00008C4F880802120A06746
:101F6000FEF786FFA4F850608146A4F85260A0688E
:101F7000B0F5805F03D004E00120BDE8F88320695C
:101F800028B12E465FF0000584F8748010E000262A
:101F9000FAE78021204600F08BFCB8B9C6B116F8EC
:101FA000010B21680885B4F85200401EA4F85200C5
:101FB000B4F852004B464FF0000200970028E8D1D9
:101FC0004FF04001204600F073FC30B10320D4E70D
:101FD00035F8020BC0F30800E3E72020A0670020DB
:101FE000CBE70220C9E770470148FFF7DBBD0000DF
:101FF000B8000020F0B587B014216846FEF74BFB0F
:102000002948C16C41F01001C164C16C01F010019C
:102010000591C16C41F00401C164C16C01F004017F
:102020000591C16C41F08001C164C16C01F0800177
:102030000591C16C41F00201C164C16C01F0020163
:102040000591C16C41F00101C164C06C174E00F0F4
:1020500001000590002208213046FEF703FF144FCF
:10206000012240213846FEF7FDFE0820012400250C
:102070008DE83100694630460395FEF7BBFD4FF40D
:102080009840CDE90005694602943046FEF7B2FD5E
:102090004020CDE900040220CDE90204694638461B
:1020A000FEF7A8FD07B0F0BD001002400010004888
:1020B00000040048FEE7FEE72DE9F041444C0546E8
:1020C0008846E0680026810728680DD0E16801F0A5
:1020D0000301814216D1A8B1E0686968C0F302101B
:1020E000401C88420ED120E0012804D0022805D0EF
:1020F000032807D108E02168890701E02168490524
:10210000002907DB01265FE02168890302D42168EA
:102110004903F5E7E1686A686FF00F0321F0730186
:1021200003EB021211430143E160206820F080605C
:102130002060FEF79DFE074605E000BFFEF798FE13
:10214000C01B022837D820680001F7D4B8F1000F6F
:1021500018D0B8F1010F1DD0287D4FF07E41400806
:1021600001EB4060A96840EA01202169194A114049
:1021700008432061206840F080602060FEF778FE10
:1021800007461AE0A868297B000240EAC16021697D
:10219000114AECE7288A1149400801EB4050A96830
:1021A00040EA012021690E4AE1E700BFFEF760FE28
:1021B000C01B022801D9032606E020680001F5D5DE
:1021C0002069A969084320613046BDE8F08100001C
:1021D00000100240FF80FFF9FF80FF070000E0FFD2
:1021E000FF809FFF2DE9F0413D4C06468846E068A0
:1021F0000025810730680DD0E16801F003018142BC
:1022000016D1A8B1E0687168C0F30210401C884282
:102210000ED120E0012804D0022805D0032807D1E0
:1022200008E02168890701E021684905002907DBEA
:10223000012551E02168890302D421684903F5E7AB
:10224000E16872686FF00F0321F0730103EB021273
:1022500011430143E160206820F080502060FEF7C8
:1022600007FE074605E000BFFEF702FEC01B02287E
:1022700029D820688000F7D4B8F1000F15D0307C41
:102280004FF07E41400801EB4060B16840EA012018
:102290006169144A114008436061206840F0805031
:1022A0002060FEF7E5FD07460FE0B068317B0002D5
:1022B00040EAC16061690C4AECE700BFFEF7D8FD57
:1022C000C01B022801D9032506E020688000F5D54F
:1022D00060697169084360612846BDE8F0810000CB
:1022E00000100240FF80FFF9FF80FF07F8B51C4D8A
:1022F00006460024A86DC00002D5FEF77BFE0DE067
:10230000A86D40F08050A865A86D00F08050009046
:10231000FEF770FEA96D21F08051A965B0F5007F30
:1023200004D0802E07D94FF003040AE0802E08D98C
:10233000A02E01D804E001D1022402E0702E00D1C9
:1023400001240848016821F0070121430160006869
:1023500000F00700A04201D00120F8BD0020F8BD28
:102360000010024000200240074810B5046807E052
:1023700006A001F0DDFF211D07A001F0D9FFE46CEC
:10238000002CF5D110BD0000040000200A5B494E6E
:10239000464F5D203E3E2000627574746F6E206E65
:1023A0006F646520686176652025730010B501F0C3
:1023B00097FF03F0CDF8BDE8104001F0ABBF10B5BA
:1023C00096B044216846FEF766F9142111A8FEF77D
:1023D00062F94FF40070FEF7D9FD08B172B6FEE75E
:1023E00001210804CDE90010022003240A90CDE960
:1023F0000B411421CDE90D100F9010906846FFF7A6
:1024000005F908B172B6FEE70F20CDE911040020EE
:10241000139014901590042111A8FEF7D9FF0028FD
:1024200001D072B6FEE716B010BD000070B52549A8
:102430000868000704D4D1F89400C0F3032002E038
:102440000868C0F30310204A52F82030886810F062
:102450000C021E4807D01E4C042A06D06510082A1C
:1024600005D00C2A05D003601CE004601AE005606A
:1024700018E0CA6802F00306CA68C2F30212521CCE
:10248000022E19D0032E1AD0B3FBF2F2CB68C3F39D
:1024900006235343CA68C2F34162521C5200B3FB85
:1024A000F2F202608968084AC1F30311103A515CE4
:1024B0000268CA40026070BDB4FBF2F2E6E7B5FB09
:1024C000F2F2E3E700100240B05E000814000020C2
:1024D0000024F4000248016841F470010160704773
:1024E00088ED00E090F82410C90706D001684A681A
:1024F000836A22F400321A434A6090F82410890754
:1025000006D501684A68C36A22F480321A434A60D9
:1025100090F82410490706D501684A68036B22F435
:1025200080221A434A6090F82410090706D50168F2
:102530004A68436B22F400421A434A6090F8241020
:10254000C90606D501688A68836B22F480521A4353
:102550008A6090F82410890606D501688A68C36BE2
:1025600022F400521A438A6090F82410490611D5CB
:1025700001684A68036C22F480121A434A60016CB5
:10258000B1F5801F06D101684A68436C22F4C0028D
:102590001A434A6090F82410090606D501684A6873
:1025A000806C22F4002202434A607047F8B500268E
:1025B0000446C0F88060FEF75BFC054620680068B2
:1025C0006FF07E47000708D52B4600224FF400111C
:1025D0002046009700F06CF960B920680068400759
:1025E0000AD52B4600224FF480012046009700F0C8
:1025F0005FF908B10320F8BD2020A067E0672666D8
:1026000084F874600020F8BD10B5806A0021A0F83D
:102610005A10A0F85210FFF7C3FA10BD016851E834
:10262000002F22F4907241E80023002BF6D10168BC
:10263000083151E8002F22F0010241E80023002B6D
:10264000F5D1016E012908D1026852E8001F21F07E
:10265000100142E80013002BF6D12021C1670021B0
:1026600001664166704700002DE9F04104460168AB
:1026700080682269E3691043626900251A431043A8
:10268000814F0A68814B1A4002430A602068416802
:10269000E26821F44051114341602168A069B942C8
:1026A00001D0226A10438A6822F4306202438A60B1
:1026B0007749226877488A420DD1D0F8880010F017
:1026C000030006D0012866D0022854D0032851D137
:1026D00063E001204FE070498A420BD1D0F88800B6
:1026E00010F00C0047D0042845D0082851D00C2801
:1026F00040D152E069498A420BD1D0F8880010F0ED
:10270000300038D0102846D0202842D0302831D18F
:1027100043E063498A420BD1D0F8880010F0C00032
:1027200029D0402837D0802833D0C02822D134E0A7
:102730005C498A420ED1D0F8880010F440701AD05B
:10274000B0F5807F27D0B0F5007F22D0B0F5407F74
:1027500010D122E0BA420DD1D0F8880010F44060C8
:1027600009D0B0F5806F16D0B0F5006F11D0B0F57C
:10277000406F12D010204C4900264FF40043BA425B
:102780002ED160B102280DD004280DD008286FD1B9
:102790000EE00220EFE70420EDE70820EBE7FEF76C
:1027A000BFFE03E00B4603E0FEF7DEFE030060D051
:1027B000626802EB420098425AD8B3EB023F57D806
:1027C000190E1B025008181871410023FDF7FEFD79
:1027D000364AA0F5407191424AD82168C86048E065
:1027E000E2694FF6EF779A4227D1092840D2DFE815
:1027F00000F005080D3F213F3F3F0E00FEF790FE21
:1028000001E0FEF79FFE030001D132E00B46606855
:10281000590001EB5001B1FBF0F0A0F11001B942F9
:1028200026D84FF6F0710140C0F342000143206802
:10283000C1601EE0FEF798FEE5E7092818D2DFE840
:1028400000F005080D171D1717170E00FEF768FE9C
:1028500001E0FEF777FE030001D10AE00B46606855
:1028600003EB5001B1FBF0F0A0F11001B94208D91F
:10287000012566662846A666BDE8F081FEF774FE6F
:10288000E9E780B2A9E7000000800040F369FFEFAC
:102890000038014000100240004400400048004061
:1028A000004C0040005000400024F400FFFC0F00EA
:1028B0002DE9F0479A4617460E4604464FF00009A8
:1028C0004FF02008089D4AE0681C48D0FEF7D0FA77
:1028D000A0EB0A00A8422AD84DB320680168490736
:1028E0003DD5C069C043000539D421684FF400606C
:1028F0000862206850E8001F21F4D07140E80012FF
:10290000002AF6D12068083050E8001F21F00101AC
:1029100040E80012002AF5D1C4F87880C4F87C8021
:10292000C4F8808084F874900320BDE8F0872168A3
:1029300051E8000F20F4D07041E80002002AF6D1DF
:102940002068083050E8001F21F0010140E8001223
:10295000002AF5D1C4F87880C4F87C80E2E72068CA
:10296000C06936EA000004D00020B842ACD0002094
:10297000DBE70120F9E7FEE70907090E002804DB81
:1029800000F1E02080F80014704700F00F0000F123
:10299000E02080F8141D7047002807D00E4910F081
:1029A000FF0F04D051FA80F00078401C704710F4FB
:1029B0007F4F04D0C0F30720085C0930704710F443
:1029C0007F0F04D0C0F30740085C1130704701EB63
:1029D0001060007819307047A25F00082DE9F04FB1
:1029E00089B017468B4606004FF0000405D140F22F
:1029F0003712254925A001F041F93FB94FF49C72E7
:102A0000214923A001F03AF900E0641C305D202840
:102A100003D0092801D05C45F7D34FF0FF3984B3C8
:102A20001D4804F1060ADFF87480056811E00622EB
:102A30001BA12868FDF784FD50B92868224631465D
:102A4000801DFDF77DFD18B9296811F80A0028B12D
:102A50000C35D8F800008542E9D313E0AC6884B1A6
:102A600020216846FDF717FE6A465946304600F0B9
:102A700059FF30B16946A0473860002009B000F026
:102A800013B8FFE74846F9E7DA620008636D6400AF
:102A90007265747000000000A0000020A4000020F7
:102AA0005F5F636D645F000030BCBDE8C08F0000F5
:102AB0002DE9FC411F460446DDE90831DDE90A65E0
:102AC000143040600060C4E90827C4E90A310A46AE
:102AD0002321184601F0D3FDD4E90A014218D4E9B4
:102AE0000801124B121F01F0DDFBE061202E04D320
:102AF000A7220F490FA001F0C1F884F8366084F8CE
:102B000035600020C4E90E052564206384F8340094
:102B1000206760670090234601900F4A194604F130
:102B2000440002F03FFE0020BDE8FC81E94F0008B0
:102B3000B46100087072696F72697479203C205228
:102B4000545F5448524541445F5052494F52495492
:102B5000595F4D4158000000FD53000810B5029C1C
:102B600024F001044472C0E907120021C0E90931D0
:102B700014304060006010BD143001F068BC70B5C6
:102B80000546FDF783FB296F044609B128468847AF
:102B90002046BDE87040FDF77DBB000010B51BA0CE
:102BA00001F0C6FB1C4C21781CA001F0C1FB207871
:102BB000C00702D01FA001F0BBFB2078800702D520
:102BC0001FA001F0B5FB2078400702D51FA001F03F
:102BD000AFFB2078000702D520A001F0A9FB2078E8
:102BE000C00602D520A001F0A3FB2078000607D57F
:102BF00009480F300168BDE810401DA001F098BBE6
:102C0000BDE810401EA001F093BB00006275732068
:102C10006661756C743A0A0029ED00E05343425F27
:102C2000434653525F424653523A30782530325829
:102C30002000000049425553455252200000000038
:102C4000505245434953455252200000494D50527D
:102C5000454349534552522000000000554E5354FD
:102C60004B4552522000000053544B455252200015
:102C70005343422D3E424641523A253038580A00CD
:102C80000A00000010B500F0B1FA002010BD10B528
:102C900000F082FB002010BD104810B5416991F88A
:102CA0002110890703D40E490020087014E001693F
:102CB00029B14FF400720A48FDF714FD0CE000F052
:102CC0002FFE08B107A100E008A10548FDF7F5FBBC
:102CD00008A10348FDF77FFC014810BDA0000020BB
:102CE000A84200206D7368200000000066696E73C2
:102CF000682000003E00000070B5084C0546606981
:102D000020B9A422064907A000F0B8FF606910F8B6
:102D1000211F65F34101017070BD0000A00000207B
:102D2000106300087368656C6C20213D2052545F6D
:102D30004E554C4C00000000014AC2E900017047AA
:102D4000A00000207CB516491648FFF7F5FF782152
:102D5000012000F0C9FF144C6061D0B10A21152098
:102D6000CDE900014FF480630022104910A002F069
:102D700016F9054600231A460FA1606901F09AFE74
:102D80000120FFF7B9FF15B1284602F097FA00209D
:102D90007CBD0BA001F0CCFA4FF0FF307CBD0000F1
:102DA000B868000810680008A0000020D92D0008AD
:102DB000747368656C6C00007368727800000000C2
:102DC0006E6F206D656D6F727920666F722073680B
:102DD000656C6C0A00000000984D686910F8211FAE
:102DE00041F001010170FFF757FF01F0A1FA002641
:102DF00001F014F90400FBD41B2C07D0686990F88B
:102E00002010012907D002290ED017E0696901209E
:102E100081F82000ECE75B2C02D080F820600DE008
:102E2000022180F82010E3E780F82060412CDFD0F9
:102E3000422CDDD0442C38D0432C43D0002CD7D0AA
:102E4000FF2CD5D0092C4ED07F2C75D0082C73D0F8
:102E50000D2C70D00A2CFCD0B0F87210502901D380
:102E6000A0F87260B0F87430B0F872108B427DD266
:102E7000CA1A00F1220123301944184401F0E6FB7C
:102E80006869B0F8741022300C54686990F8211009
:102E9000C90706D0B0F874102230014468A001F0D0
:102EA00047FA6869B0F87440A5E0B0F874000028EB
:102EB0009ED064A001F03CFA686930F8741F491E86
:102EC000018095E7B0F87410B0F8722091428FD26B
:102ED0002230095C5CA001F02BFA696931F8740FAB
:102EE000401C088084E7002403E056A001F020FA8B
:102EF000641C6869B0F87400A042F6DC6C6953A0E9
:102F0000223401F015FA00F00BFD012802D1204611
:102F100000F042FCFFF7C0FE014622464CA001F043
:102F200007FA68692230FDF7ECFA696921F8720F37
:102F300048805DE700E03DE0B0F87420002AC0D092
:102F4000B0F87210521E491E89B293B2A0F87210E6
:102F5000A0F87430994224D9CA1A00F12301223012
:102F60001944184401F072FB686900E049E0B0F8C8
:102F7000721022300E546869B0F874102230014487
:102F800035A001F0D5F96869B0F8744003E02DA0D0
:102F900001F0CEF9641C6869B0F87200A04290DBC1
:102FA000F5E72FA001F0C4F96869B0F8721022307B
:102FB0000E541DE700F0B4FC01280DD1686990F8AB
:102FC0002100C00702D021A001F0B2F96869B0F871
:102FD0007210223000F036FCFFF75EFE01F0A8F917
:102FE000686950212230FDF734FB686922E015A0A2
:102FF00001F09EF9641C6869B0F87200A042F6DC2A
:103000000AE022300C54686990F82100C00703D010
:1030100021460DA001F08CF96869B0F87210491CC6
:1030200089B2A0F87210B0F87420521CA0F8742075
:103030005029BED320F8726F4680D9E6A000002048
:103040002573000008000000256300000A0000004E
:103050002573257300000000082573202008000058
:103060000820080010B5124C2068800702D511A076
:1030700001F05EF92068400011D50D48C01E0078AF
:1030800008B1FFF78BFD0A48001F007808B100F077
:1030900017FB0748801E008808B102F08FFE2068E9
:1030A000002804DABDE8104008A001F041B910BDC5
:1030B0002CED00E06661696C656420766563746F71
:1030C000722066657463680A0000000064656275BA
:1030D00067206576656E740A0000000010B502A0D6
:1030E00001F026F9002010BD48656C6C6F20525429
:1030F0002D546872656164210A00000070B50CA04F
:1031000001F016F90F48104D04680BE002220FA1E0
:103110002068FDF715FA20B1D4E900120CA001F0E7
:1031200007F90C3428688442F0D3002070BD0000F9
:103130002D2D46756E6374696F6E204C6973743AF9
:103140000A000000A0000020A40000205F5F000033
:10315000252D313673202D2D2025730A0000000007
:103160002DE9F04104461E4617460D46084601F07B
:1031700061FB001D2060257200206760C4E90360C8
:10318000BDE8F0812DE9F0410D4600212961E96893
:1031900091B1297A81B12E6888B10446FDF776F89D
:1031A0000146A4F10C002A7A007A20F080009042B7
:1031B00009D00846FDF76EF80020BDE8F0813446DE
:1031C000FDF764F80146686800272468B44201D11D
:1031D000002404E010C0EA687F1CBA42F5D108461A
:1031E000FDF758F820462F61E7E7000010B5074CBF
:1031F00007A0E16801F09CF80AA0216901F098F8A5
:103200006169BDE810400CA001F092B828000020D0
:10321000746F74616C206D656D6F72793A202564EE
:103220000A00000075736564206D656D6F7279200A
:103230003A2025640A0000006D6178696D756D2083
:10324000616C6C6F6361746564206D656D6F72791C
:103250003A2025640A0000002DE9F04194B00027CF
:1032600033A408230BAA022105A8FFF779FF082041
:1032700080460146224631A001F05AF8404600F04F
:10328000B9FB35A001F054F805A93846FFF77AFFDD
:103290000746002642E00BA850F826400C3CFCF7FD
:1032A000F5FF217A9DF81C2021F08001914202D087
:1032B000FCF7F0FF31E0FCF7EDFF04F11400616969
:1032C000054681421ED001F0A7F8A18BCDE9001080
:1032D00023460822414626A001F02AF82C680BE07C
:1032E000A4F1140126A001F023F82068A84202D01E
:1032F00024A001F01DF82468AC42F1D115A001F022
:1033000017F80AE001F088F8A18BCDE900102346F8
:10331000082241461CA001F00BF8761C0998B04227
:10332000B9DC002FB0D114B00020BDE8F08100005E
:1033300073656D6170686F7265000000252D2A2E1F
:1033400073207620202073757370656E6420746816
:10335000726561640A000000202D2D2D202D2D2D79
:103360002D2D2D2D2D2D2D2D2D2D2D0A0000000064
:10337000252D2A2E2A7320253033642025643A0017
:10338000257300002F000000252D2A2E2A732025EA
:103390003033642025640A002DE9F041B4B00026E2
:1033A0003CA408232CAA012126A8FFF7D9FE082057
:1033B000804601462246394800F0BAFF404600F0F8
:1033C00019FB37A000F0B4FF26A93046FFF7DAFE5C
:1033D0000646002554E02CA850F825400C3CFCF78C
:1033E00055FF0746207A9DF8A01020F08000884203
:1033F00003D03846FCF74EFF41E07822214607A86B
:10340000FDF7F5F83846FCF745FF94F835000090D5
:1034100023460822414632A000F08AFF94F8340087
:1034200000F00F00012807D0022807D040B104287F
:1034300008D0032808D00AE02CA006E02EA004E063
:1034400030A002E032A000E034A000F071FFA06ADA
:10345000014600E0401C0278232AFBD0E26A401AB1
:10346000101A64235843B0FBF2F3276B206CCDE9AC
:103470000007E069081A81182BA000F059FF6D1CA5
:103480002A98A842A7DC002E9ED134B00020BDE8C7
:10349000F08100007468726561640000A86500082E
:1034A000202D2D2D20202D2D2D2D2D2D2D202D2D80
:1034B0002D2D2D2D2D2D2D2D202D2D2D2D2D2D2D49
:1034C0002D2D2D20202D2D2D2D2D2D20202D2D2D60
:1034D0002D2D2D2D2D2D2D202D2D2D0A0000000000
:1034E000252D2A2E2A732025336420002072656141
:1034F00064792020000000002073757370656E648D
:103500000000000020696E69742020200000000087
:1035100020636C6F73652020000000002072756EC0
:103520006E696E6700000000203078253038782002
:103530003078253038782020202025303264252529
:1035400020202030782530387820253033640A0058
:10355000F0B593B0002626A408230BAA0A2104A8DC
:10356000FFF7FEFD08272246394623A000F0E0FEC3
:10357000384600F03FFA2AA000F0DAFE04A93046EF
:10358000FFF700FE0646002524E00BA850F8254072
:103590000C3CFCF77BFE217A9DF8182021F080017D
:1035A000914202D0FCF776FE13E0FCF773FED4E9FB
:1035B0000901CDE9000123460822394621A000F087
:1035C000B7FE607AC00701D024A000E026A000F07A
:1035D000AFFE6D1C0898A842D7DC002ECED101F0BA
:1035E000B1FF014624A000F0A3FE13B00020F0BDFF
:1035F00074696D6572000000252D2A2E73202070DD
:103600006572696F64696320202074696D656F75E8
:103610007420202020202020666C61670A000000B2
:10362000202D2D2D2D2D2D2D2D2D2D202D2D2D2DE4
:103630002D2D2D2D2D2D202D2D2D2D2D2D2D2D2DC7
:103640002D2D0A00252D2A2E2A732030782530387A
:103650007820307825303878200000006163746964
:1036600076617465640A00006465616374697661FB
:103670007465640A0000000063757272656E7420E0
:103680007469636B3A3078253038780A000000009E
:1036900002F09CF9054C4FF47A7540212046FDF765
:1036A000D9FB284601F07FFDF7E700000004004841
:1036B00010B500F04BFBBDE81040FFF7E9BF00007C
:1036C00010B518A000F034FE1B4C21781BA000F0B0
:1036D0002FFE2078C00702D01EA000F029FE20781F
:1036E000800702D51EA000F023FE2078000702D537
:1036F0001EA000F01DFE2078C00602D51EA000F01E
:1037000017FE2078000607D50B480C300168BDE88D
:1037100010401CA000F00CBEBDE810401D4800F099
:1037200007BE00006D656D206D616E616765206686
:1037300061756C743A0A000028ED00E05343425F63
:10374000434653525F4D4653523A307825303258F3
:10375000200000004941434356494F4C20000000DF
:103760004441434356494F4C200000004D554E53B1
:10377000544B4552522000004D53544B4552522059
:10378000000000005343422D3E4D4D41523A25303A
:1037900038580A002C5E00082DE9F04780460025C5
:1037A00000782C4618B12248224F066831E0BDE867
:1037B000F0470021084600F077B806221EA13068C5
:1037C000FCF7BEFE20BB306800F106094046FCF75E
:1037D00098FE024649464046FCF7B2FEC0B925B9FC
:1037E0004C464846FCF78DFE05464946204601E01A
:1037F000401C491C02781AB10B780BB19A42F7D0E1
:10380000001BA84200DA054649460DA000F090FDD5
:103810000C3638688642D0D3002C06D02A46214682
:103820004046BDE8F04701F0EDBABDE8F087000082
:10383000A0000020A40000205F5F636D645F0000B3
:1038400025730A0038B5044601E0491E641C59B1CD
:1038500020782028F9D00928F7D06A462046FFF7BB
:10386000BDF818B1204604E0002038BD009838BDEE
:10387000401C0178202901D00029F9D100210170D4
:10388000214603A000F054FD4FF0FF3038BD00008A
:1038900025733A20636F6D6D616E64206E6F7420C6
:1038A000666F756E642E0A0070B50EA000F040FDC4
:1038B0001348144D04680CE0062213A12068FCF79D
:1038C0003FFE28B9D4E9001211A0891D00F030FD97
:1038D0000C3428688442EFD310A000F029FD0020AA
:1038E00070BD000052542D54687265616420736885
:1038F000656C6C20636F6D6D616E64733A0A0000D5
:10390000A0000020A40000205F5F636D645F0000E2
:10391000252D313673202D2025730A000A00000062
:103920000120704770B5002315461C461A464BE02F
:1039300000F8012B5B1C0678202E01D0092E01D146
:103940008B42F5D3082C11D321A000F0F1FC002606
:1039500006E000BF55F8261025A000F0E9FC761C13
:10396000A642F7D321A000F0E3FC2FE08B422DD23A
:10397000F6B2222E03D045F82400641C1BE0401C44
:1039800045F824005B1C641C08E05C2E04D14678DA
:10399000222E01D1401C5B1C401C5B1C0678222E91
:1039A00001D08B42F1D38B4210D200F8012B5B1C6B
:1039B0000AE0401C5B1C0678202E03D0092E01D0A3
:1039C0008B42F6D38B4201D28B42B4D3204670BDDA
:1039D000546F6F206D616E792061726773202120B2
:1039E0005765206F6E6C79205573653A0A000000A8
:1039F0002573200010B5044602E003A000F098FCF7
:103A0000641EFAD210BD00002D00000070B5204DDC
:103A100004462868844204D2A1221E491EA000F058
:103A20002DF96868844204D3A2221A4922A000F02A
:103A300025F9608820B1A32216492AA000F01EF9BA
:103A40006168286801448C420FD04A886AB96A6864
:103A500091420AD0AA688A4200D1AC604A6862608A
:103A60004B6800F10801221A5A50A1680144A14292
:103A70000CD04A88002A09D1AA68A24200D1A960C4
:103A800062684A60091A62680830115070BD00000F
:103A900028000020CC6000082872745F75696E747D
:103AA000385F74202A296D656D203E3D2068656170
:103AB000705F7074720000002872745F75696E74B4
:103AC000385F74202A296D656D203C202872745F50
:103AD00075696E74385F74202A29686561705F6546
:103AE0006E6400006D656D2D3E75736564203D3D0F
:103AF000203000002DE9F04F85B09946DDE90EA594
:103B0000109CAB46630602D5DFF814C103E0DFF872
:103B100010C1ACF1110CE30601D524F00104E30758
:103B200001D0302300E0202300260493A3070BD507
:103B3000002A02DA2D26524206E0630701D52B2621
:103B400002E0230700D520260023EE4622B93022CA
:103B50008DF8002001230CE0B9F10A0F14D002F017
:103B60000F0812091CF808800EF803805B1C002A5D
:103B7000F2D1AB4200DD1D46AAEB050214F0110F95
:103B80004FF0200708D015E00A27B2FBF7F807FB33
:103B90001828B2FBF7F2E5E73EB1002A05DD521E18
:103BA00003E0884200D20770401CB2F1000CA2F181
:103BB0000102F6DC26B1884200D20670401C521E7B
:103BC000E40605D508E0884201D2049C0470401C3C
:103BD000141EA2F10102F6DC30242E466D1E9E4218
:103BE0000ADD884200D20470401CF6E7884201D208
:103BF000E55C0570401C00E074461D1EA3F1010346
:103C000007DDBBF1000FF1D103E0884200D207705D
:103C1000401C131EA2F10102F7DC05B000F002B84F
:103C2000B360000830BCBDE8C08F00001CB5142193
:103C30000A20CDE900014FF480630022074908A063
:103C400001F0ADF9040004D1C522074907A000F036
:103C500015F82046BDE81C4001F030BBB136000825
:103C60006D61696E00000000185F000874696420CF
:103C7000213D2052545F4E554C4C000038B5002376
:103C80008DF80030094B5C6824B101B0A446BDE852
:103C90003040604713460A46014605A000F048FB45
:103CA0009DF800000028FBD038BD00002000002057
:103CB0002825732920617373657274696F6E20669D
:103CC00061696C65642061742066756E6374696FE8
:103CD0006E3A25732C206C696E65206E756D626579
:103CE000723A2564200A000070B54843044600F08B
:103CF000B7FB050003D02246002100F0C0FC284697
:103D000070BD000070B5084C084D0AE008A021689D
:103D100000F00EFB60688047014609A000F008FB38
:103D20000834AC42F2D370BDE8670008F8670008B9
:103D3000696E697469616C697A6520257300000099
:103D40003A256420646F6E650A00000070B50AA011
:103D500000F0EEFA104C114D0AE011A0216800F0BD
:103D6000E7FA60688047014611A000F0E1FA0834E4
:103D7000AC42F2D370BD0000646F20636F6D706F52
:103D80006E656E747320696E697469616C697A61BD
:103D900074696F6E2E0A0000F86700080868000852
:103DA000696E697469616C697A6520257300000029
:103DB0003A256420646F6E650A00000010B5FCF7B8
:103DC00065FA044A5188491C5180BDE81040FCF74F
:103DD00061BA00007000002010B5FCF757FA0B4CD8
:103DE0006188491E09B2618000290ADC00216180D6
:103DF000FCF750FA6068002807D0BDE8104000F0DA
:103E0000BBBDBDE81040FCF745BA10BD70000020F6
:103E100070B504006AD0FCF739FA054600F06EFA76
:103E200048B1334933A000F083FA4FF40B723049A4
:103E30003AA0FFF723FF2846FCF72CFAA00705D08D
:103E400040F22E222A4936A0FFF718FF404D28687D
:103E5000844202D36868844205D340F22F22244969
:103E60003C48FFF70BFF286884423FD368688442D0
:103E70003CD24FF0FF3138480C3C00F095FE608892
:103E80004FF4F55610B12088B04219D033A000F09D
:103E90004FFA23886288214637A000F049FA6088EB
:103EA00028B940F24E2212493FA0FFF7E7FE2088D2
:103EB000B04205D040F24F220D493EA0FFF7DEFE92
:103EC000002060802680A868844200D2AC60296807
:103ED0006068611A401A2969081A28612046FFF7AC
:103EE00095FDBDE870401C4800F01ABE70BD000092
:103EF000C460000846756E6374696F6E5B25735D00
:103F0000207368616C6C206E6F742062652075731D
:103F1000656420696E204953520A00003000000099
:103F200028282872745F75626173655F7429726DE9
:103F3000656D292026202852545F414C49474E5F29
:103F400053495A45202D20312929203D3D2030005C
:103F500028000020C464000804050020746F206657
:103F60007265652061206261642064617461206211
:103F70006C6F636B3A0A00006D656D3A20307825EE
:103F80003038782C207573656420666C61673A2040
:103F900025642C206D6167696320636F64653A2036
:103FA0003078253034780A006D656D2D3E75736567
:103FB000640000006D656D2D3E6D61676963203D95
:103FC0003D20484541505F4D4147494300000000B6
:103FD0000048704724060020004870472442002013
:103FE00010B5FCF74BFFFEF7EAF9FEF71FFAFEF7F4
:103FF00001F8FDF78FFA4FF47A71B0FBF1F0FDF79D
:10400000B9FDFFF77FFEFFF7E7FF0446FFF7E0FF8C
:104010002146BDE8104000F009BF0000084810B577
:1040200000684FF0FF34C169C943890602D4808C0F
:10403000C4B202E00A2001F0B6F8E0B210BD000000
:1040400024420020F8B506460D200F498DF80000E7
:10405000002481F87440304600F0CCFE05460FE0A5
:10406000305D0A2805D101231A4669460648FDF746
:104070005FFF012331191A460348FDF759FF641CFD
:10408000AC42EDD3F8BD00002442002070B53149A8
:104090000546283009682C1D11B18847002857D0E3
:1040A0002DA0216C00F044F92FA0616A00F040F9C6
:1040B00031A0A16A00F03CF933A0E16A00F038F9C0
:1040C00035A0216B00F034F937A0616800F030F9B9
:1040D00039A0A16800F02CF93BA0E16800F028F9B4
:1040E0003DA0216900F024F93FA0616900F020F9AA
:1040F00041A0A16900F01CF943A0E16900F018F9A2
:1041000045A0216A00F014F947A0616B00F010F996
:1041100049A0A16B00F00CF94BA0E16B00F008F98D
:104120002878400708D501F083F801464AA000F03E
:10413000FFF8FFF731F902E04FA000F0F9F8287816
:10414000C00602D453A000F0F3F8FEF78BFFFEE7A1
:1041500070BD0000900000207073723A2030782506
:104160003038780A000000007230303A203078256C
:104170003038780A000000007230313A203078255B
:104180003038780A000000007230323A203078254A
:104190003038780A000000007230333A2030782539
:1041A0003038780A000000007230343A2030782528
:1041B0003038780A000000007230353A2030782517
:1041C0003038780A000000007230363A2030782506
:1041D0003038780A000000007230373A20307825F5
:1041E0003038780A000000007230383A20307825E4
:1041F0003038780A000000007230393A20307825D3
:104200003038780A000000007231303A20307825CA
:104210003038780A000000007231313A20307825B9
:104220003038780A000000007231323A20307825A8
:104230003038780A00000000206C723A203078256F
:104240003038780A000000002070633A203078256A
:104250003038780A00000000686172642066617579
:104260006C74206F6E207468726561643A202573E7
:104270000D0A0D0A00000000686172642066617515
:104280006C74206F6E2068616E646C65720D0A0D2F
:104290000A00000046505520616374697665210D5F
:1042A0000A00000070B50446121D22F0070000222B
:1042B0000A4D443840F82250521C112AFAD3416268
:1042C00000218162C16200F13402016382E81A00B8
:1042D0004FF080730364016070BD0000EFBEADDE7F
:1042E00010B5FBF7D3FF044A1178491C1170BDE8E3
:1042F0001040FBF7CFBF00001C00002010B5FBF7FB
:10430000C5FF03490C78FBF7C5FF204610BD000030
:104310001C00002010B5FBF7B9FF044A1178491EB4
:104320001170BDE81040FBF7B5BF00001C00002075
:104330000FB440F2FF1110B503AB0548029A01F02B
:10434000ADFB0348FFF77EFE10BC5DF814FB0000D8
:10435000040300200023124A124913A0FCF7BAFA02
:10436000134A00210F48FCF7A5FA124A02210D4812
:10437000FCF7A0FA104A05210A48FCF79BFA0F4AFD
:1043800006210848FCF796FA0D4A03210548FCF778
:1043900091FA00BFFCF7D0FB142000F004FFF9E70E
:1043A000694900083C010020427574746F6E310049
:1043B0005108000821080008F1070008BD0700089F
:1043C00081080008054C4FF4FA7540212046FCF79F
:1043D00041FD284600F0E7FEF7E700000004004832
:1043E0000268516002680A600160486070470268B4
:1043F000516002680A60016048607047026851605D
:1044000002680A6001604860704742681160426853
:104410004A604160086070470246002100E0491C84
:1044200000689042FBD108467047D0E900124A600C
:10443000D0E900121160406000607047D0E90012BE
:104440004A60D0E900121160406000607047D0E916
:1044500000124A60D0E900121160406000607047AD
:104460002DE9F047040019D0FBF710FF0546FFF7D0
:1044700045FF48B14F4950A0FFF75AFF4FF48C72E7
:104480004C4957A0FFF7FAFB2846FBF703FFE41C53
:1044900024F00306534CE068864202D90020BDE8B0
:1044A000F0870C2E00D20C264FF0FF314E4800F062
:1044B0007BFB2168A068D4F80CC0421AACEB060361
:1044C00072E08D186F88002F6DD16F68BF1A0C3F96
:1044D000B74268D36B6806F118079B1A0C3B4FF084
:1044E00001094FF4F55ABB422BD397190C37CB195E
:1044F0004FF00008A3F800A0A3F80280D5F80480CC
:10450000C3E901826F60A5F802905A680CF10C0CA7
:10451000624502D001F10803D750226932440C32BF
:1045200022616369934200D26261A5F800A08542CE
:104530001AD16268438863B190420AD04068084447
:10454000F8E7A5F802906A686B1AD21A23691A4430
:10455000E6E7A060904207D0408828B14FF4C172CE
:10456000144922A0FFF78AFB1F4800F0D9FAA819C6
:1045700061680C30884205D94FF4C3720D49254853
:10458000FFF77CFBA8070BD040F2871209492248AD
:10459000FFF774FB4FF4C472064920A0FFF76EFBCF
:1045A00005F10C007BE76A6893428AD80E4800F058
:1045B000B7FA73E7EB60000846756E6374696F6E57
:1045C0005B25735D207368616C6C206E6F74206274
:1045D00065207573656420696E204953520A000096
:1045E00030000000280000200405002028286C6608
:1045F000726565203D3D20686561705F656E642968
:10460000207C7C2028216C667265652D3E75736563
:104610006429290020650008786400082828287289
:10462000745F75626173655F74296D656D292026FD
:10463000202852545F414C49474E5F53495A452008
:104640002D20312929203D3D2030000010B50346A2
:10465000994211D28C189C420ED9811804E000BFF7
:1046600014F8013D01F8013D521EF9D210BD00BF02
:1046700011F8014B03F8014B521EF9D210BD10B5D1
:104680000346C9B201E003F8011B521EFBD210BD64
:104690002DE9F0410F460646FBF7F8FD0446FFF70B
:1046A0002DFE48B11C491DA0FFF742FE4FF4C37216
:1046B000194924A0FFF7E2FA2046FBF7EBFD30464C
:1046C00000F0B8F8050005D14FF4C57212491EA0DC
:1046D000FFF7D4FAE868FFF7C3FE040019D0002101
:1046E000EA68FFF7CCFF2672002060720822394684
:1046F000204600F087FBFBF7C9FD064604F10C01DC
:10470000281DFFF76DFE3046FBF7C4FD2046BDE8CF
:10471000F0810020FBE700002061000846756E6311
:1047200074696F6E5B25735D207368616C6C206EBD
:104730006F74206265207573656420696E2049532B
:10474000520A000030000000696E666F726D61747D
:10475000696F6E20213D2052545F4E554C4C000035
:1047600070B5040005D14FF4DD720F490FA0FFF7BB
:1047700085FA207A000605D540F2BB120A4910A03E
:10478000FFF77CFA00202072FBF780FD054604F15C
:104790000C00FFF74AFE2846FBF77CFD2046BDE8EB
:1047A0007040FFF735BB0000336100086F626A6537
:1047B000637420213D2052545F4E554C4C00000044
:1047C00021286F626A6563742D3E747970652026B6
:1047D0002052545F4F626A6563745F436C61737308
:1047E0005F537461746963290000000070B50400B0
:1047F00005D14FF4B372094909A0FFF73FFA002031
:104800002072FBF743FD054604F10C00FFF70DFE97
:104810002846BDE87040FBF73DBD00000F61000871
:104820006F626A65637420213D2052545F4E554C7F
:104830004C000000074A002102EB01131B78834261
:1048400002D102EB01107047491C0329F4DB002060
:10485000704700004000002010B5040005D140F270
:10486000EF12044904A0FFF709FA207A20F0800033
:1048700010BD00005E6100086F626A6563742021EC
:104880003D2052545F4E554C4C0000002DE9F0473E
:104890000646924688460846FFF7CCFF050005D13C
:1048A00040F23312174918A0FFF7E8F9FFF786FA2C
:1048B00040F243192F1D6C680BE000BFB4F10C00EF
:1048C00006D0B04204D14A460E4915A0FFF7D6F9EA
:1048D0002468BC42F2D1FFF77FFA48F080003072C2
:1048E00008225146304600F08DFAFBF7CFFC044613
:1048F00006F10C01281DFFF773FD2046BDE8F047C7
:10490000FBF7C8BC00610008696E666F726D617468
:10491000696F6E20213D2052545F4E554C4C000073
:104920006F626A20213D206F626A65637400000037
:1049300010B5040005D14FF4EE72054905A0FFF74C
:104940009DF9207A000601D5012010BD002010BD80
:10495000446100086F626A65637420213D205254EF
:104960005F4E554C4C0000004FF400610148FCF7CD
:104970006CBA00000010004870B5FBF787FC114CC2
:1049800005466088B0B9A068FEF706F80E49401EDB
:10499000626851F83010143991420BD020700B48E6
:1049A0006160007801F11C01002802F11C0006D0B2
:1049B000FBF773FC2846BDE87040FBF76BBCFBF7C8
:1049C0006CFCF7E770000020240500201C0000208C
:1049D00010B5040005D140F21712124912A0FFF7DA
:1049E0004DF9FBF753FC024694F83400134920F0CC
:1049F0000F00401C84F8340094F8350001EBC0012E
:104A000004F114004B6818604B68A36148600C48BF
:104A10006161A16B836819438160BDE81040104655
:104A2000FBF738BC806100087468726561642021FE
:104A30003D2052545F4E554C4C0000002405002090
:104A40007000002010B5040005D140F24512114954
:104A500011A0FFF713F9FBF719FC04F11401D1E9D8
:104A600000235360D1E900231A60A161616194F8C9
:104A700035200E4951F8323001EBC2018B4204D18E
:104A80000B49A36B8A689A438A60BDE81040FBF724
:104A900001BC00009A61000874687265616420219D
:104AA0003D2052545F4E554C4C0000002405002020
:104AB000700000202DE9F0411E4615460F46040007
:104AC00004D1D2220C490DA0FFF7D8F8B5F5803FEC
:104AD00004D3D32208490DA0FFF7D0F83A460221AB
:104AE0002046FFF7D3FE04F11400A0616061A583A6
:104AF00066720020BDE8F081425F000873656D209A
:104B0000213D2052545F4E554C4C000076616C752F
:104B100065203C20307831303030305500000000C6
:104B200070B5040005D140F2B712194919A0FFF77A
:104B3000A5F82046FFF790FE022805D04FF4DC725E
:104B400013491848FFF79AF8FBF7A0FB0546606980
:104B500004F11401884208D0143800F02BFB2846D9
:104B6000FBF798FBFFF708FF09E0A08B4FF6FF71FA
:104B7000884206D2401CA0832846FBF78BFB00200E
:104B800070BD2846FBF786FB6FF0020070BD000089
:104B9000845F000873656D20213D2052545F4E559F
:104BA0004C4C0000306400082DE9F341050005D1AC
:104BB0004FF4A672444945A0FFF760F82846FFF776
:104BC0004BFE022805D040F24D123F494348FFF703
:104BD00055F8FBF75BFB0746A88B28B1401EA8835E
:104BE0003846FBF757FB6CE0019840B1FBF74EFBF2
:104BF000804600F01DFB40F26D1438B10FE03846DE
:104C0000FBF748FB6FF00100BDE8FC812E4934A0A2
:104C1000FFF78EFB22462C493FA0FFF72FF8FBF74A
:104C200035FB0646FFF76AFB40B127493BA0FFF77B
:104C30007FFB2246244938A0FFF720F83046FBF7D7
:104C400029FB4046FBF726FB00F0F2FA0446002061
:104C5000206305F114066D7A204600F08DFBB5B196
:104C6000012D19D135680EE094F8351095F8212002
:104C7000A5F11400914205D204F114011430FFF79C
:104C8000C4FB02E02D68B542EED1B54204D104F177
:104C900014013046FFF7B9FB0198002809DD04F143
:104CA000440001AA0021054600F0AEFC284600F0B1
:104CB000A1FD3846FBF7EEFAFFF75EFE206B0028F9
:104CC000A2D10020A0E70000785F000873656D2086
:104CD000213D2052545F4E554C4C0000306400087A
:104CE00046756E6374696F6E5B25735D20736861D2
:104CF0006C6C206E6F742062652075736564206231
:104D000065666F7265207363686564756C65722093
:104D100073746172740A00003000000046756E639F
:104D200074696F6E5B25735D207368616C6C206EB7
:104D30006F74206265207573656420696E20495325
:104D4000520A000008B509A0FFF7F2FA0AA0FFF71F
:104D5000EFFA12A0009005230122032112A0FFF711
:104D6000E7FABDE8084018A0FFF7E2BA0A205C2085
:104D70007C202F0A000000002D205254202D2020DE
:104D8000202020546872656164204F7065726174E0
:104D9000696E672053797374656D0A004A616E20ED
:104DA0002037203230323300202F207C205C20201E
:104DB00020202025642E25642E2564206275696CD0
:104DC000642025730A0000002032303036202D2068
:104DD0003230323020436F707972696768742062B4
:104DE000792072742D746872656164207465616DD8
:104DF0000A000000014600E0491C0A78002AFBD1A5
:104E0000081A704710B5002A07D0034611F8014B65
:104E100003F8014B2CB1521EF8D110BD03F8011B51
:104E200000E00021521EF9D110BD00002DE9F04133
:104E30000646C01C0F4620F0030421F00305FBF7D3
:104E400025FA8046FFF75AFA40B11B491BA0FFF72D
:104E50006FFAD222184923A0FEF710FF4046FBF755
:104E600019FA182D21D9A5F11800A0421DD3281B2D
:104E70001D4D18384FF4F5522C60E8602280002157
:104E80000C30C4E90101618061680023214469603C
:104E90000A8001224A804860886014A11548FFF703
:104EA00009FE2868A860BDE8F0813A463146BDE8B1
:104EB000F04111A0FFF73CBAD760000846756E6359
:104EC00074696F6E5B25735D207368616C6C206E16
:104ED0006F74206265207573656420696E20495384
:104EE000520A000030000000280000206865617050
:104EF00000000000040500206D656D20696E697476
:104F00002C206572726F7220626567696E20616421
:104F1000647265737320307825782C20616E64206C
:104F2000656E6420616464726573732030782578DF
:104F30000A00000010B50A4900230A4C4B801846AD
:104F400004EBC002401C526012602028F8DB1F20D6
:104F5000087003484B600C308B604060006010BDEF
:104F6000700000202405002010B5074CA068FDF754
:104F700013FD0649401E51F8300014386060BDE84A
:104F800010401C30FBF7CFB9700000202405002032
:104F900001484060006070478800002070472DE99C
:104FA000FF478946DDE90C76824601461D4690465C
:104FB0000120FFF76DFB041E0DD02846FFF750FAC5
:104FC00060B103968DE8A10043464A46514620460B
:104FD000FDF76EFD204604B0BDE8F0872046FFF7E0
:104FE000BFFB0020F7E7000070B514480468FBF72A
:104FF0004DF905462046FDF7C2FD2046FFF722FD8C
:10500000042084F8340004F1440000F05DFB2046E5
:10501000FFF78EFC01280CD004F114010848FFF7BB
:10502000E6F900BFFFF7A8FC2846BDE87040FBF793
:1050300031B92046FFF7DAFBF4E7000074000020E6
:105040007C00002000F002F8FCE7000070B5FBF7E0
:105050001DF90446FFF752F940B1164916A0FFF7B3
:1050600067F9932213491EA0FEF708FE204612E0BE
:105070001C480168A1F11404D1E900024260D1E9A1
:1050800000021060496009604869FEF7C1FE2046D1
:10509000FFF766FB2846FBF7FDF8FBF7F7F8054638
:1050A000104801688142E3D12846BDE87040FBF713
:1050B000F1B800002C5F000846756E6374696F6E6E
:1050C0005B25735D207368616C6C206E6F74206269
:1050D00065207573656420696E204953520A00008B
:1050E000300000007C0000201FB5202308481F224C
:1050F000D9008DE80F000023064A07A1783800F098
:105100000FF804B00248BDE81040783800F0D6B877
:1051100004020020455000087469646C65000000BA
:105120002DE9FF5F9A46DDE90E48DDE910769346EA
:105130008946050004D1E9220D490EA0FEF79EFD27
:1051400024B9EA220A4910A0FEF798FD4A46012137
:105150002846FFF79BFBCDE90048CDE90276534690
:105160005A4649462846FDF7A3FC04B000F018B89B
:10517000C461000874687265616420213D20525446
:105180005F4E554C4C000000737461636B5F737429
:1051900061727420213D2052545F4E554C4C0000EA
:1051A00030BCBDE8C09F10B500F0B2F9BDE81040BA
:1051B00000F044B870B5040005D140F2F72215495B
:1051C00015A0FEF75BFD2046FFF746FB012805D042
:1051D0004FF43E720F491548FEF750FD94F8340025
:1051E00000F00F00022802D04FF0FF3070BDFBF737
:1051F0004DF8054604F11400FFF720F904F14400CE
:1052000000F090FB2846FBF745F82046FFF7E0FB4F
:10521000002070BD516200087468726561642021CD
:105220003D2052545F4E554C4C0000006465000810
:10523000014800687047000074000020F1B5FBF7DA
:1052400025F80546154804682CB940F2FB121449AC
:1052500014A0FEF713FD2046FFF7FEFA012805D043
:105260004FF4FE720E491448FEF708FD204600F088
:1052700083F804F144006A460021064600F0C4F9B0
:10528000304600F0B7FA2846FBF704F8FFF774FB46
:10529000206B801C00D120630020F8BD740000202A
:1052A0000762000874687265616420213D205254D1
:1052B0005F4E554C4C0000006465000810B50400BA
:1052C00005D140F20D12164916A0FEF7D7FC94F84E
:1052D0003400000705D04FF48772114916A0FEF77D
:1052E000CDFC2046FFF7B8FA012805D040F20F1296
:1052F0000B491F48FEF7C2FC94F83600012184F8E0
:10530000350081400220A16384F834002046FFF775
:1053100051FF1848006808B1FFF72EFB002010BDB0
:10532000D361000874687265616420213D20525485
:105330005F4E554C4C000000287468726561642D06
:105340003E7374617420262052545F544852454184
:10535000445F535441545F4D41534B29203D3D2000
:1053600052545F5448524541445F494E49540000ED
:10537000646500087400002070B5040005D140F297
:10538000CD22174917A0FEF779FC2046FFF764FAF3
:10539000012805D040F2CE2211491748FEF76EFCD5
:1053A00094F8340000F00F00012802D04FF0FF30D5
:1053B00070BDFAF76BFF05462046FFF743FB94F8F4
:1053C000340020F00F00801C84F8340004F1440005
:1053D00000F0A8FA2846FAF75DFF002070BD000033
:1053E0003F62000874687265616420213D20525458
:1053F0005F4E554C4C0000006465000810B5040079
:1054000005D140F22332144914A0FEF737FC94F87A
:10541000340000F00F00022805D04FF449720E4905
:1054200013A0FEF72BFC2046FFF716FA012805D043
:1054300040F2253208491D48FEF720FC6FF00100BC
:10544000206304F11400FEF7F9FF2046FFF7C0FACD
:10545000BDE81040FFF790BA626200087468726598
:10546000616420213D2052545F4E554C4C00000099
:10547000287468726561642D3E73746174202620FF
:1054800052545F5448524541445F535441545F4D18
:1054900041534B29203D3D2052545F5448524541D1
:1054A000445F53555350454E440000006465000866
:1054B00070B5FAF7EBFE06461348046894F834001A
:1054C00000F00F00012819D1D4E90501884215D058
:1054D00004F114000546FEF7B1FF94F835000B49BE
:1054E00001EBC00041680D6041686960456028605B
:1054F0003046FAF7CFFEFFF73FFA02E03046FAF700
:10550000C9FE002070BD00007400002024050020AA
:10551000002802DA4FF0FF3070474FF47A7190FBA9
:10552000F1F290FBF1F301FB130000EB40034A435F
:10553000C3EBC0104B1E03EBC00090FBF1F0104416
:105540007047000001480068704700001800002004
:10555000094810B50168491C0160FFF769FE016C3C
:10556000491E016403D1C16B0164FFF7A1FFBDE8CF
:10557000104000F003B80000180000202DE9FC41A5
:10558000CDF804D0CDF800D0FFF7DCFF0646FAF7DF
:105590007DFE07461B4D2DE060696FF00041301A1B
:1055A000143C884229D22046FDF7E6FA607A81074A
:1055B00002D420F00100607204F1140188466846AC
:1055C000FEF71CFFD4E907108847FFF7BBFF06462C
:1055D0000098694688420DD04046FEF738FF607A51
:1055E000810707D5C10705D020F001006072204671
:1055F00000F000F92C68AC42CED13846FAF74AFEEA
:10560000BDE8FC818800002070B515460E460400F8
:1056100005D140F2D912174917A0FEF72FFB2046FB
:10562000FFF71AF90A2805D04FF4ED72114917A0B7
:10563000FEF724FBFAF72AFE052E17D2DFE806F064
:105640000503080C1100616A0FE0296861620DE032
:10565000617A21F0020102E0617A41F00201617297
:1056600004E0617AC90700D001212960FAF712FE2F
:10567000002070BDBF62000874696D657220213D15
:105680002052545F4E554C4C0000000072745F6F06
:10569000626A6563745F6765745F747970652826F4
:1056A00074696D65722D3E706172656E7429203D5E
:1056B0003D2052545F4F626A6563745F436C61734F
:1056C000735F54696D65720070B5040004D1DD220A
:1056D000144915A0FEF7D2FA2046FFF7BDF80A28B4
:1056E00004D0DE220F4915A0FEF7C8FA2046FFF7C6
:1056F0001FF920B9DF220B491FA0FEF7BFFAFAF706
:10570000C5FD05462046FDF737FA607A20F0010016
:1057100060722846FAF7BEFD2046FFF767F80020C2
:1057200070BD00008262000874696D657220213DC1
:105730002052545F4E554C4C0000000072745F6F55
:10574000626A6563745F6765745F74797065282643
:1057500074696D65722D3E706172656E7429203DAD
:105760003D2052545F4F626A6563745F436C61739E
:10577000735F54696D65720072745F6F626A65630E
:10578000745F69735F73797374656D6F626A656363
:1057900074282674696D65722D3E706172656E7431
:1057A000290000002DE9F8431E46DDE908959046E2
:1057B0000F46040004D1C922084909A0FEF75EFA89
:1057C0003A460A212046FFF761F84B4632464146E9
:1057D00020460095FDF7C2F9BDE8F8837462000821
:1057E00074696D657220213D2052545F4E554C4CBA
:1057F000000000002DE9F843040005D140F24112F9
:1058000029492AA0FEF73AFA2046FFF725F80A2888
:1058100005D04FF4A172244929A0FEF72FFAFAF718
:1058200035FD80462046FDF7A7F9607A6FF0004508
:1058300020F001006072606AA84205D340F2511264
:1058400019492EA0FEF71AFAFFF77CFE616A344A66
:105850004318A3620020009202EBC0026946576819
:105860005DF820200AE01268A2EBC00676699E422D
:1058700002D0F61AAE4203D341F82020BA42F2D148
:105880002748001F0168491C016004F114010098B9
:10589000FEF7B4FD607A40F0010060724046FAF70E
:1058A000F9FC0020BDE8F883A262000874696D6508
:1058B0007220213D2052545F4E554C4C0000000098
:1058C00072745F6F626A6563745F6765745F747931
:1058D0007065282674696D65722D3E706172656E03
:1058E0007429203D3D2052545F4F626A6563745FA6
:1058F000436C6173735F54696D65720074696D65A3
:10590000722D3E696E69745F7469636B203C20522E
:10591000545F5449434B5F4D4158202F20320000C3
:105920008800002070B5040005D14FF4DB721249E5
:1059300012A0FEF7A3F92046FEF78EFF0A2805D035
:1059400040F2B7120C4912A0FEF798F9607AC0072E
:105950000ED0FAF79BFC05462046FDF70DF9607A5C
:1059600020F0010060722846FAF794FC002070BD18
:105970004FF0FF3070BD0000B162000874696D65C2
:105980007220213D2052545F4E554C4C00000000C7
:1059900072745F6F626A6563745F6765745F747960
:1059A0007065282674696D65722D3E706172656E32
:1059B0007429203D3D2052545F4F626A6563745FD5
:1059C000436C6173735F54696D6572007CB5052526
:1059D0001A20CDE900054FF4007633460022104925
:1059E00010A0FFF7DCFA134C206010B1FFF766FC43
:1059F00002E011A0FEF79CFC1920CDE9000533461A
:105A00000022174917A0FFF7CAFA206010B1FFF76C
:105A100055FC02E017A0FEF78BFC00207CBD0000C7
:105A20005543000872745F6C656431666C6173681D
:105A300000000000000000200D0A72745F6C6564B5
:105A400031666C617368207468726561642063728A
:105A500065617465206661696C65640D0A0000000B
:105A6000C543000872745F6C656432666C6173686C
:105A7000000000000D0A72745F6C656432666C6130
:105A8000736820746872656164206372656174650F
:105A9000206661696C65640D0A0000002DE9FF4F06
:105AA0008946044600EB090783B080464FF0FF3A71
:105AB0004FF0200BA74202D25746C8F1FF390BE145
:105AC000252803D0BC4200D2207080E00026059932
:105AD000491C059108782D2811D02B2812D0202898
:105AE00013D0232814D0302815D00A785546303AE0
:105AF0000A2A13D205A800F033F905461AE046F049
:105B00001006E4E746F00406E1E746F00806DEE7A3
:105B100046F02006DBE746F00106D8E72A2809D13F
:105B20000698491C059120C80690002D02DA6D42A6
:105B300046F010060598D44601782E2918D1401C4D
:105B400005900178A1F130020A2A04D205A800F0DC
:105B500007F9844607E02A2908D1401C05900698D9
:105B600050F804CB0690BCF1000F01DA4FF0000CA6
:105B7000059A00201178682901D06C2902D1521CA5
:105B80000846059211780A236F2974D00CDC63292A
:105B90001FD004DC25296FD058290DD184E0642959
:105BA00001D0692908D183E0702966D073292CD0EF
:105BB00075297FD0782979D0BC4201D22520207068
:105BC0000598641C0178E9B3BC4200D22170641CC2
:105BD0007FE0F00608D458466D1E002D04DDBC425F
:105BE00000D22070641CF7E70698BC4210F8041B32
:105BF000069000D22170584602E0BC4200D22070CC
:105C0000641C6D1E002DF8DC63E0069802C8069047
:105C100001B941A1002000E0401CA84202D00A5C6A
:105C2000002AF9D1BCF1000F02DD604500DD6046BD
:105C3000F2060BD45A462B466D1E834206DDBC424B
:105C400002D200E054E02270641CF4E7002206E077
:105C5000BC4201D20B782370491C521C641C824246
:105C6000F6DB5A4629466D1E814232DDBC4200D227
:105C70002270641CF6E715E010E0681C02D10825CC
:105C800046F00106CDE9005C06980296102304C890
:105C900006903946204619E00CE007E0BC4296D257
:105CA000252011E7082305E046F04006102301E017
:105CB00046F002066C2801D068281CD0069804C85B
:105CC0000690CDE9005C394620460296FDF712FFAA
:105CD00004460598401C05900598007800287FF43C
:105CE000EFAEB9F1000F11D0BC420DD220700DE023
:105CF000401E0590EDE7069830F8041B06908AB226
:105D0000B007DED512B2DCE707F8010C07B0A4EB50
:105D1000080000F005B80000284E554C4C29000042
:105D200030BCBDE8C08F00207047002070470020C5
:105D300070470020704710B5FAF7A8FAFEF750F93F
:105D4000FFF700F8FFF724F9FFF7F4F8FDF76EFF0F
:105D5000FFF724F9FFF7C8F9FFF706F9002010BD97
:105D600010B5014600206FF02F0307E0541C0C60B3
:105D7000127800EB800003EB400010440A681478AE
:105D8000303C0A2CF2D310BD0B4810B50949016014
:105D90004FF4E1314160002181600C22C160C0E913
:105DA00004128161C161FCF747F8002800D0FEE7CA
:105DB00010BD0000008000402442002010B518A053
:105DC000FEF7B6FA1A4C21881AA0FEF7B1FA20881D
:105DD000C00702D01DA0FEF7ABFA2088800702D5CD
:105DE0001DA0FEF7A5FA2088400702D51DA0FEF7EA
:105DF0009FFA2088000702D51CA0FEF799FA208898
:105E0000C00502D51BA0FEF793FA2088800502D5B5
:105E10001BA0FEF78DFABDE8104004A0FEF788BA7B
:105E20007573616765206661756C743A0A000000DD
:105E30002AED00E05343425F434653525F554653B9
:105E4000523A30782530325820000000554E4445F3
:105E500046494E5354522000494E565354415445DE
:105E600020000000494E5650432000004E4F435042
:105E700020000000554E414C49474E45442000004B
:105E800044495642595A45524F20000010B5FEF77A
:105E900059FF002010BD4FF04070E1EE100A70472E
:105EA00000000000000000000102030406070809CA
:105EB000A0860100400D0300801A060000350C008A
:105EC00040420F0080841E0000093D0000127A004D
:105ED0000024F40000366E010048E801006CDC028A
:105EE00000000000010203047274695F7374617240
:105EF00074007274695F626F6172645F737461725F
:105F000074007274695F626F6172645F656E6400D1
:105F10007274695F656E640072745F6170706C6941
:105F2000636174696F6E5F696E69740072745F7427
:105F300068726561645F69646C655F6578637574D8
:105F4000650072745F73656D5F696E697400727469
:105F50005F73656D5F6465746163680072745F731D
:105F6000656D5F6372656174650072745F73656D02
:105F70005F64656C6574650072745F73656D5F74F2
:105F8000616B650072745F73656D5F72656C6561EE
:105F900073650072745F73656D5F636F6E74726FAB
:105FA0006C0000000100020001000300010002007B
:105FB00001000400010002000100030001000200D2
:105FC00001000500010002000100030001000200C1
:105FD00001000400010002000100030001000200B2
:105FE00001000600010002000100030001000200A0
:105FF0000100040001000200010003000100020092
:106000000100050001000200010003000100020080
:106010000100040001000200010003000100020071
:10602000010007000100020001000300010002005E
:106030000100040001000200010003000100020051
:106040000100050001000200010003000100020040
:106050000100040001000200010003000100020031
:10606000010006000100020001000300010002001F
:106070000100040001000200010003000100020011
:106080000100050001000200010003000100020000
:1060900001000400010002000100030001000200F1
:1060A0000100303132333435363738396162636458
:1060B0006566003031323334353637383941424342
:1060C0004445460072745F6672656500706C756762
:1060D0005F686F6C65730072745F73797374656D5C
:1060E0005F686561705F696E69740072745F6D618D
:1060F0006C6C6F630072745F7265616C6C6F6300CF
:1061000072745F6F626A6563745F696E697400724E
:10611000745F6F626A6563745F646574616368006D
:1061200072745F6F626A6563745F616C6C6F6361E8
:1061300074650072745F6F626A6563745F64656C36
:106140006574650072745F6F626A6563745F69731A
:106150005F73797374656D6F626A656374007274DE
:106160005F6F626A6563745F6765745F7479706599
:106170000072745F6F626A6563745F66696E640063
:1061800072745F7363686564756C655F696E73656F
:1061900072745F7468726561640072745F736368BF
:1061A0006564756C655F72656D6F76655F74687246
:1061B000656164005F72745F7468726561645F69D1
:1061C0006E69740072745F7468726561645F696E91
:1061D00069740072745F7468726561645F7374617E
:1061E000727475700072745F7468726561645F6464
:1061F00065746163680072745F7468726561645F7E
:1062000064656C6574650072745F7468726561645E
:106210005F736C6565700072745F74687265616449
:106220005F64656C61795F756E74696C0072745F30
:106230007468726561645F636F6E74726F6C007214
:10624000745F7468726561645F73757370656E64A2
:106250000072745F7468726561645F726573756DF6
:10626000650072745F7468726561645F74696D65FE
:106270006F75740072745F74696D65725F696E69C1
:10628000740072745F74696D65725F6465746163D4
:10629000680072745F74696D65725F64656C6574C3
:1062A000650072745F74696D65725F737461727496
:1062B0000072745F74696D65725F73746F700072E1
:1062C000745F74696D65725F636F6E74726F6C007A
:1062D000756172745F696E6974005F6D73685F6584
:1062E0007865635F636D640066696E73685F737978
:1062F0007374656D5F696E69740066696E73685F5B
:106300006765745F70726F6D70745F6D6F64650048
:1063100066696E73685F7365745F70726F6D7074B9
:106320005F6D6F64650066696E73685F7365745F47
:106330006563686F0066696E73685F6765745F6543
:1063400063686F00627574746F6E20737472756326
:106350007420696E666F726D6174696F6E3A0A209F
:106360002020202020202020202020202062746E49
:106370002D3E4E616D653A2573200A202020202095
:1063800020202020202020202062746E2D3E427587
:1063900074746F6E5F53746174653A2564200A20CB
:1063A0002020202020202020202020202062746E09
:1063B0002D3E427574746F6E5F54726967676572C3
:1063C0005F4576656E743A2564200A2020202020DF
:1063D00020202020202020202062746E2D3E427537
:1063E00074746F6E5F547269676765725F4C65762F
:1063F000656C3A2564200A202020202020202020BF
:10640000202020202062746E2D3E427574746F6EC1
:106410005F4C6173745F4C6576656C3A2564200A45
:1064200020202020202020202020202020200000AC
:1064300072745F6F626A6563745F6765745F7479B5
:106440007065282673656D2D3E706172656E742EC1
:10645000706172656E7429203D3D2052545F4F6219
:106460006A6563745F436C6173735F53656D6170DC
:10647000686F7265000000002872745F7562617356
:10648000655F7429282872745F75696E74385F744B
:10649000202A296D656D202B2053495A454F465FB0
:1064A0005354525543545F4D454D29202520525495
:1064B0005F414C49474E5F53495A45203D3D20308E
:1064C000000000002872745F75696E74385F742074
:1064D0002A29726D656D203E3D202872745F7569B2
:1064E0006E74385F74202A29686561705F707472F9
:1064F000202626202872745F75696E74385F7420B8
:106500002A29726D656D203C202872745F75696E52
:1065100074385F74202A29686561705F656E640055
:106520002872745F75626173655F74296D656D2093
:106530002B2053495A454F465F5354525543545F9D
:106540004D454D202B2073697A65203C3D202872F3
:10655000745F75626173655F7429686561705F65FA
:106560006E64000072745F6F626A6563745F676572
:10657000745F74797065282872745F6F626A6563EE
:10658000745F742974687265616429203D3D2052EE
:10659000545F4F626A6563745F436C6173735F54E9
:1065A0006872656164000000252D2A2E73207072C8
:1065B000692020737461747573202020202020735B
:1065C000702020202020737461636B2073697A65CA
:1065D000206D61782075736564206C656674207425
:1065E00069636B20206572726F720A006C69737444
:1065F0005F6D656D006C697374206D656D6F727988
:1066000020757361676520696E666F726D6174696C
:106610006F6E0068656C6C6F007361792068656CE3
:106620006C6F20776F726C640076657273696F6E41
:106630000073686F772052542D546872656164202E
:1066400076657273696F6E20696E666F726D6174C4
:10665000696F6E005F5F636D645F76657273696F0B
:106660006E0073686F772052542D546872656164B0
:106670002076657273696F6E20696E666F726D61E8
:1066800074696F6E006C6973745F746872656164BD
:10669000006C69737420746872656164005F5F6385
:1066A0006D645F6C6973745F746872656164006CBB
:1066B00069737420746872656164006C6973745FD7
:1066C00073656D006C6973742073656D6170686FBC
:1066D000726520696E2073797374656D005F5F6306
:1066E0006D645F6C6973745F73656D006C6973745E
:1066F0002073656D6170686F726520696E207379B3
:106700007374656D006C6973745F74696D65720094
:106710006C6973742074696D657220696E20737979
:106720007374656D005F5F636D645F6C6973745F44
:1067300074696D6572006C6973742074696D65723B
:1067400020696E2073797374656D006C69737400D1
:106750006C69737420616C6C2073796D626F6C204E
:10676000696E2073797374656D005F5F636D645F3C
:1067700068656C700052542D5468726561642073B2
:1067800068656C6C2068656C702E005F5F636D647B
:106790005F7073004C697374207468726561647310
:1067A00020696E207468652073797374656D2E009E
:1067B0005F5F636D645F667265650053686F772025
:1067C000746865206D656D6F72792075736167659A
:1067D00020696E207468652073797374656D2E006E
:1067E000E85E0008335D0008F25E00082B5D0008DB
:1067F000D0620008895D0008025F0008275D00087C
:10680000E8620008452D0008105F00082F5D0008B1
:10681000EC650008F5650008ED3100081366000816
:1068200019660008DD300008296600083166000896
:106830008D5E000854660008626600088D5E0008E0
:106840008566000891660008993300089D66000877
:10685000AF66000899330008BB660008C4660008EC
:1068600059320008DD660008EC660008593200085D
:106870000567000810670008513500082567000803
:1068800036670008513500084B670008506700085C
:10689000FD3000086A67000875670008A93800081D
:1068A0008B670008946700088F2C0008B067000809
:1068B000BB670008852C0008D8680008000000208D
:1068C000B8000000E801000890690008B800002046
:1068D0005850000004020008000000000000000002
:1068E00001000000100000000000000000093D0051
:1068F0000000000000000000000000000000000098
:106900000000000000000000000000000000000087
:106910000000000000000000010000004400002012
:106920004400002078000000020000005400002015
:1069300054000020200000000A0000006400002035
:10694000640000202C000000000000000000000097
:106950000000000000000000000000000000000037
:106960000000000000000000000000000000000027
:106970000000000000000000000000000000000017
:106980000000000000000000000000000000000007
:04000005080001AD41
:00000001FF
