Component: ARM Compiler 5.06 update 7 (build 960) Tool: armlink [4d3601]

==============================================================================

Section Cross References

    startup_stm32l496xx.o(STACK) refers (Special) to heapauxi.o(.text) for __use_two_region_memory
    startup_stm32l496xx.o(HEAP) refers (Special) to heapauxi.o(.text) for __use_two_region_memory
    startup_stm32l496xx.o(RESET) refers (Special) to heapauxi.o(.text) for __use_two_region_memory
    startup_stm32l496xx.o(RESET) refers to startup_stm32l496xx.o(STACK) for __initial_sp
    startup_stm32l496xx.o(RESET) refers to startup_stm32l496xx.o(.text) for Reset_Handler
    startup_stm32l496xx.o(RESET) refers to stm32l4xx_it.o(i.NMI_Handler) for NMI_Handler
    startup_stm32l496xx.o(RESET) refers to context_rvds.o(.text) for HardFault_Handler
    startup_stm32l496xx.o(RESET) refers to stm32l4xx_it.o(i.MemManage_Handler) for MemManage_Handler
    startup_stm32l496xx.o(RESET) refers to stm32l4xx_it.o(i.BusFault_Handler) for BusFault_Handler
    startup_stm32l496xx.o(RESET) refers to stm32l4xx_it.o(i.UsageFault_Handler) for UsageFault_Handler
    startup_stm32l496xx.o(RESET) refers to stm32l4xx_it.o(i.DebugMon_Handler) for DebugMon_Handler
    startup_stm32l496xx.o(RESET) refers to board.o(i.SysTick_Handler) for SysTick_Handler
    startup_stm32l496xx.o(RESET) refers to stm32l4xx_it.o(i.LPUART1_IRQHandler) for LPUART1_IRQHandler
    startup_stm32l496xx.o(.text) refers (Special) to heapauxi.o(.text) for __use_two_region_memory
    startup_stm32l496xx.o(.text) refers to system_stm32l4xx.o(i.SystemInit) for SystemInit
    startup_stm32l496xx.o(.text) refers to __main.o(!!!main) for __main
    startup_stm32l496xx.o(.text) refers to startup_stm32l496xx.o(HEAP) for Heap_Mem
    startup_stm32l496xx.o(.text) refers to startup_stm32l496xx.o(STACK) for Stack_Mem
==============================================================================

Removing Unused input sections from the image.

    Removing rt_user_task.o(.rev16_text), (4 bytes).
    Removing rt_user_task.o(.revsh_text), (4 bytes).
    Removing rt_user_task.o(.rrx_text), (6 bytes).
    Removing rt_user_task.o(.bss), (80 bytes).
    Removing main.o(.rev16_text), (4 bytes).
    Removing main.o(.revsh_text), (4 bytes).
    Removing main.o(.rrx_text), (6 bytes).
    Removing main.o(.data), (16 bytes).
    Removing gpio.o(.rev16_text), (4 bytes).
    Removing gpio.o(.revsh_text), (4 bytes).
    Removing gpio.o(.rrx_text), (6 bytes).
    Removing usart.o(.rev16_text), (4 bytes).
    Removing usart.o(.revsh_text), (4 bytes).
    Removing usart.o(.rrx_text), (6 bytes).
    Removing usart.o(i.HAL_UART_MspDeInit), (56 bytes).
    Removing usart.o(i.MX_LPUART1_UART_Init), (60 bytes).
    Removing stm32l4xx_it.o(.rev16_text), (4 bytes).
    Removing stm32l4xx_it.o(.revsh_text), (4 bytes).
==============================================================================

Image Symbol Table

    Local Symbols

    Symbol Name                              Value     Ov Type        Size  Object(Section)

    ../Core/Src/gpio.c                       0x00000000   Number         0  gpio.o ABSOLUTE
    ../Core/Src/main.c                       0x00000000   Number         0  main.o ABSOLUTE
    ../Core/Src/stm32l4xx_hal_msp.c          0x00000000   Number         0  stm32l4xx_hal_msp.o ABSOLUTE
    ../Core/Src/stm32l4xx_it.c               0x00000000   Number         0  stm32l4xx_it.o ABSOLUTE
    ../Core/Src/system_stm32l4xx.c           0x00000000   Number         0  system_stm32l4xx.o ABSOLUTE
    ../Core/Src/usart.c                      0x00000000   Number         0  usart.o ABSOLUTE
    ../clib/angel/boardlib.s                 0x00000000   Number         0  boardinit1.o ABSOLUTE
    ../clib/angel/boardlib.s                 0x00000000   Number         0  boardshut.o ABSOLUTE
    ../clib/angel/boardlib.s                 0x00000000   Number         0  boardinit3.o ABSOLUTE
    ../clib/angel/boardlib.s                 0x00000000   Number         0  boardinit2.o ABSOLUTE
    ../clib/angel/handlers.s                 0x00000000   Number         0  __scatter_zi.o ABSOLUTE
    ../clib/angel/handlers.s                 0x00000000   Number         0  __scatter_copy.o ABSOLUTE
    ../clib/angel/kernel.s                   0x00000000   Number         0  rtexit.o ABSOLUTE
    ../clib/angel/kernel.s                   0x00000000   Number         0  __rtentry4.o ABSOLUTE
    ../clib/angel/kernel.s                   0x00000000   Number         0  __rtentry.o ABSOLUTE
    ../clib/angel/kernel.s                   0x00000000   Number         0  rtexit2.o ABSOLUTE
    ../clib/angel/kernel.s                   0x00000000   Number         0  __rtentry2.o ABSOLUTE
    ../clib/angel/rt.s                       0x00000000   Number         0  aeabi_ldiv0.o ABSOLUTE
    ../clib/angel/rt.s                       0x00000000   Number         0  aeabi_ldiv0_sigfpe.o ABSOLUTE
    ../clib/angel/rt.s                       0x00000000   Number         0  rt_div0.o ABSOLUTE
    ../clib/angel/rt.s                       0x00000000   Number         0  rt_raise.o ABSOLUTE
    ../clib/angel/scatter.s                  0x00000000   Number         0  __scatter.o ABSOLUTE
    ../clib/angel/startup.s                  0x00000000   Number         0  __main.o ABSOLUTE
    ../clib/angel/sys.s                      0x00000000   Number         0  sys_stackheap_outer.o ABSOLUTE
    ../clib/angel/sys.s                      0x00000000   Number         0  libspace.o ABSOLUTE
    ../clib/angel/sys.s                      0x00000000   Number         0  indicate_semi.o ABSOLUTE
    ../clib/angel/sys.s                      0x00000000   Number         0  use_no_semi.o ABSOLUTE
    ../clib/angel/sysapp.c                   0x00000000   Number         0  sys_exit.o ABSOLUTE
    ../clib/angel/sysapp.c                   0x00000000   Number         0  sys_command.o ABSOLUTE
    ../clib/angel/sysapp.c                   0x00000000   Number         0  sys_wrch.o ABSOLUTE
    ../clib/armsys.c                         0x00000000   Number         0  argv_veneer.o ABSOLUTE
    ../clib/armsys.c                         0x00000000   Number         0  _get_argv_nomalloc.o ABSOLUTE
    ../clib/armsys.c                         0x00000000   Number         0  no_argv.o ABSOLUTE
    ../clib/armsys.c                         0x00000000   Number         0  argv_veneer.o ABSOLUTE
    ../clib/heapalloc.c                      0x00000000   Number         0  hrguard.o ABSOLUTE
    ../clib/heapaux.c                        0x00000000   Number         0  heapauxi.o ABSOLUTE
    ../clib/libinit.s                        0x00000000   Number         0  libinit2.o ABSOLUTE
    ../clib/libinit.s                        0x00000000   Number         0  libinit.o ABSOLUTE
    ../clib/libinit.s                        0x00000000   Number         0  libshutdown2.o ABSOLUTE
    ../clib/libinit.s                        0x00000000   Number         0  libshutdown.o ABSOLUTE
    ../clib/longlong.s                       0x00000000   Number         0  lludivv7m.o ABSOLUTE
    ../clib/memcpset.s                       0x00000000   Number         0  strncpy.o ABSOLUTE
    ../clib/memcpset.s                       0x00000000   Number         0  rt_memcpy_w.o ABSOLUTE
    ../clib/memcpset.s                       0x00000000   Number         0  rt_memclr_w.o ABSOLUTE
    ../clib/memcpset.s                       0x00000000   Number         0  rt_memclr.o ABSOLUTE
    ../clib/signal.c                         0x00000000   Number         0  defsig_other.o ABSOLUTE
    ../clib/signal.c                         0x00000000   Number         0  defsig_fpe_outer.o ABSOLUTE
    ../clib/signal.c                         0x00000000   Number         0  defsig_fpe_formal.o ABSOLUTE
    ../clib/signal.c                         0x00000000   Number         0  defsig_pvfn_inner.o ABSOLUTE
    ../clib/signal.c                         0x00000000   Number         0  defsig_abrt_inner.o ABSOLUTE
    ../clib/signal.c                         0x00000000   Number         0  defsig_segv_inner.o ABSOLUTE
    ../clib/signal.c                         0x00000000   Number         0  defsig_cppl_inner.o ABSOLUTE
    ../clib/signal.c                         0x00000000   Number         0  __raise.o ABSOLUTE
    ../clib/signal.c                         0x00000000   Number         0  defsig_stak_inner.o ABSOLUTE
    ../clib/signal.c                         0x00000000   Number         0  defsig_rtmem_formal.o ABSOLUTE
    ../clib/signal.c                         0x00000000   Number         0  defsig_fpe_inner.o ABSOLUTE
    ../clib/signal.c                         0x00000000   Number         0  defsig_rtmem_outer.o ABSOLUTE
    ../clib/signal.c                         0x00000000   Number         0  defsig_exit.o ABSOLUTE
    ../clib/signal.c                         0x00000000   Number         0  defsig_rtmem_inner.o ABSOLUTE
    ../clib/signal.c                         0x00000000   Number         0  defsig_rtred_inner.o ABSOLUTE
    ../clib/signal.c                         0x00000000   Number         0  defsig_general.o ABSOLUTE
    ../clib/signal.s                         0x00000000   Number         0  defsig.o ABSOLUTE
    ../clib/stdlib.c                         0x00000000   Number         0  exit.o ABSOLUTE
    ../clib/string.c                         0x00000000   Number         0  strncmp.o ABSOLUTE
    ../clib/string.c                         0x00000000   Number         0  strcat.o ABSOLUTE
    ../clib/string.c                         0x00000000   Number         0  strcpy.o ABSOLUTE
    ../clib/string.c                         0x00000000   Number         0  strlen.o ABSOLUTE
    ../fplib/fpinit.s                        0x00000000   Number         0  fpinit.o ABSOLUTE
    ..\Core\Src\button.c                     0x00000000   Number         0  button.o ABSOLUTE
    ..\Core\Src\gpio.c                       0x00000000   Number         0  gpio.o ABSOLUTE
    ..\Core\Src\main.c                       0x00000000   Number         0  main.o ABSOLUTE
    ..\Core\Src\rt_user_task.c               0x00000000   Number         0  rt_user_task.o ABSOLUTE
    ..\Core\Src\stm32l4xx_hal_msp.c          0x00000000   Number         0  stm32l4xx_hal_msp.o ABSOLUTE
    ..\Core\Src\stm32l4xx_it.c               0x00000000   Number         0  stm32l4xx_it.o ABSOLUTE
    ..\Core\Src\system_stm32l4xx.c           0x00000000   Number         0  system_stm32l4xx.o ABSOLUTE
    ..\Core\Src\usart.c                      0x00000000   Number         0  usart.o ABSOLUTE
    ..\\Core\\Src\\rt_user_task.c            0x00000000   Number         0  rt_user_task.o ABSOLUTE
    C:/Users/wyffw/STM32Cube/Repository//Packs/RealThread/RT-Thread/3.1.5/bsp/_template/cubemx_config/board.c 0x00000000   Number         0  board.o ABSOLUTE
    C:/Users/wyffw/STM32Cube/Repository//Packs/RealThread/RT-Thread/3.1.5/components/finsh/cmd.c 0x00000000   Number         0  cmd.o ABSOLUTE
    C:/Users/wyffw/STM32Cube/Repository//Packs/RealThread/RT-Thread/3.1.5/components/finsh/finsh_port.c 0x00000000   Number         0  finsh_port.o ABSOLUTE
    C:/Users/wyffw/STM32Cube/Repository//Packs/RealThread/RT-Thread/3.1.5/components/finsh/msh.c 0x00000000   Number         0  msh.o ABSOLUTE
    C:/Users/wyffw/STM32Cube/Repository//Packs/RealThread/RT-Thread/3.1.5/components/finsh/shell.c 0x00000000   Number         0  shell.o ABSOLUTE
    C:/Users/wyffw/STM32Cube/Repository//Packs/RealThread/RT-Thread/3.1.5/libcpu/arm/cortex-m4/context_rvds.S 0x00000000   Number         0  context_rvds.o ABSOLUTE
    C:/Users/wyffw/STM32Cube/Repository//Packs/RealThread/RT-Thread/3.1.5/libcpu/arm/cortex-m4/cpuport.c 0x00000000   Number         0  cpuport.o ABSOLUTE
    C:/Users/wyffw/STM32Cube/Repository//Packs/RealThread/RT-Thread/3.1.5/src/clock.c 0x00000000   Number         0  clock.o ABSOLUTE
    C:/Users/wyffw/STM32Cube/Repository//Packs/RealThread/RT-Thread/3.1.5/src/components.c 0x00000000   Number         0  components.o ABSOLUTE
    C:/Users/wyffw/STM32Cube/Repository//Packs/RealThread/RT-Thread/3.1.5/src/cpu.c 0x00000000   Number         0  cpu.o ABSOLUTE
    C:/Users/wyffw/STM32Cube/Repository//Packs/RealThread/RT-Thread/3.1.5/src/idle.c 0x00000000   Number         0  idle.o ABSOLUTE
    C:/Users/wyffw/STM32Cube/Repository//Packs/RealThread/RT-Thread/3.1.5/src/ipc.c 0x00000000   Number         0  ipc.o ABSOLUTE
    C:/Users/wyffw/STM32Cube/Repository//Packs/RealThread/RT-Thread/3.1.5/src/irq.c 0x00000000   Number         0  irq.o ABSOLUTE
    C:/Users/wyffw/STM32Cube/Repository//Packs/RealThread/RT-Thread/3.1.5/src/kservice.c 0x00000000   Number         0  kservice.o ABSOLUTE
    C:/Users/wyffw/STM32Cube/Repository//Packs/RealThread/RT-Thread/3.1.5/src/mem.c 0x00000000   Number         0  mem.o ABSOLUTE
    C:/Users/wyffw/STM32Cube/Repository//Packs/RealThread/RT-Thread/3.1.5/src/memheap.c 0x00000000   Number         0  memheap.o ABSOLUTE
    C:/Users/wyffw/STM32Cube/Repository//Packs/RealThread/RT-Thread/3.1.5/src/mempool.c 0x00000000   Number         0  mempool.o ABSOLUTE
    C:/Users/wyffw/STM32Cube/Repository//Packs/RealThread/RT-Thread/3.1.5/src/object.c 0x00000000   Number         0  object.o ABSOLUTE
    C:/Users/wyffw/STM32Cube/Repository//Packs/RealThread/RT-Thread/3.1.5/src/scheduler.c 0x00000000   Number         0  scheduler.o ABSOLUTE
    C:/Users/wyffw/STM32Cube/Repository//Packs/RealThread/RT-Thread/3.1.5/src/slab.c 0x00000000   Number         0  slab.o ABSOLUTE
    C:/Users/wyffw/STM32Cube/Repository//Packs/RealThread/RT-Thread/3.1.5/src/thread.c 0x00000000   Number         0  thread.o ABSOLUTE
    C:/Users/wyffw/STM32Cube/Repository//Packs/RealThread/RT-Thread/3.1.5/src/timer.c 0x00000000   Number         0  timer.o ABSOLUTE
    C:/Users/wyffw/STM32Cube/Repository/STM32Cube_FW_L4_V1.17.2/Drivers/STM32L4xx_HAL_Driver/Src/stm32l4xx_hal.c 0x00000000   Number         0  stm32l4xx_hal.o ABSOLUTE
    C:/Users/wyffw/STM32Cube/Repository/STM32Cube_FW_L4_V1.17.2/Drivers/STM32L4xx_HAL_Driver/Src/stm32l4xx_hal_cortex.c 0x00000000   Number         0  stm32l4xx_hal_cortex.o ABSOLUTE
    C:/Users/wyffw/STM32Cube/Repository/STM32Cube_FW_L4_V1.17.2/Drivers/STM32L4xx_HAL_Driver/Src/stm32l4xx_hal_dma.c 0x00000000   Number         0  stm32l4xx_hal_dma.o ABSOLUTE
    C:/Users/wyffw/STM32Cube/Repository/STM32Cube_FW_L4_V1.17.2/Drivers/STM32L4xx_HAL_Driver/Src/stm32l4xx_hal_dma_ex.c 0x00000000   Number         0  stm32l4xx_hal_dma_ex.o ABSOLUTE
    C:/Users/wyffw/STM32Cube/Repository/STM32Cube_FW_L4_V1.17.2/Drivers/STM32L4xx_HAL_Driver/Src/stm32l4xx_hal_exti.c 0x00000000   Number         0  stm32l4xx_hal_exti.o ABSOLUTE
    C:/Users/wyffw/STM32Cube/Repository/STM32Cube_FW_L4_V1.17.2/Drivers/STM32L4xx_HAL_Driver/Src/stm32l4xx_hal_flash.c 0x00000000   Number         0  stm32l4xx_hal_flash.o ABSOLUTE
    C:/Users/wyffw/STM32Cube/Repository/STM32Cube_FW_L4_V1.17.2/Drivers/STM32L4xx_HAL_Driver/Src/stm32l4xx_hal_flash_ex.c 0x00000000   Number         0  stm32l4xx_hal_flash_ex.o ABSOLUTE
    C:/Users/wyffw/STM32Cube/Repository/STM32Cube_FW_L4_V1.17.2/Drivers/STM32L4xx_HAL_Driver/Src/stm32l4xx_hal_flash_ramfunc.c 0x00000000   Number         0  stm32l4xx_hal_flash_ramfunc.o ABSOLUTE
    C:/Users/wyffw/STM32Cube/Repository/STM32Cube_FW_L4_V1.17.2/Drivers/STM32L4xx_HAL_Driver/Src/stm32l4xx_hal_gpio.c 0x00000000   Number         0  stm32l4xx_hal_gpio.o ABSOLUTE
    C:/Users/wyffw/STM32Cube/Repository/STM32Cube_FW_L4_V1.17.2/Drivers/STM32L4xx_HAL_Driver/Src/stm32l4xx_hal_i2c.c 0x00000000   Number         0  stm32l4xx_hal_i2c.o ABSOLUTE
    C:/Users/wyffw/STM32Cube/Repository/STM32Cube_FW_L4_V1.17.2/Drivers/STM32L4xx_HAL_Driver/Src/stm32l4xx_hal_i2c_ex.c 0x00000000   Number         0  stm32l4xx_hal_i2c_ex.o ABSOLUTE
    C:/Users/wyffw/STM32Cube/Repository/STM32Cube_FW_L4_V1.17.2/Drivers/STM32L4xx_HAL_Driver/Src/stm32l4xx_hal_pwr.c 0x00000000   Number         0  stm32l4xx_hal_pwr.o ABSOLUTE
    C:/Users/wyffw/STM32Cube/Repository/STM32Cube_FW_L4_V1.17.2/Drivers/STM32L4xx_HAL_Driver/Src/stm32l4xx_hal_pwr_ex.c 0x00000000   Number         0  stm32l4xx_hal_pwr_ex.o ABSOLUTE
    C:/Users/wyffw/STM32Cube/Repository/STM32Cube_FW_L4_V1.17.2/Drivers/STM32L4xx_HAL_Driver/Src/stm32l4xx_hal_rcc.c 0x00000000   Number         0  stm32l4xx_hal_rcc.o ABSOLUTE
    C:/Users/wyffw/STM32Cube/Repository/STM32Cube_FW_L4_V1.17.2/Drivers/STM32L4xx_HAL_Driver/Src/stm32l4xx_hal_rcc_ex.c 0x00000000   Number         0  stm32l4xx_hal_rcc_ex.o ABSOLUTE
    C:/Users/wyffw/STM32Cube/Repository/STM32Cube_FW_L4_V1.17.2/Drivers/STM32L4xx_HAL_Driver/Src/stm32l4xx_hal_tim.c 0x00000000   Number         0  stm32l4xx_hal_tim.o ABSOLUTE
    C:/Users/wyffw/STM32Cube/Repository/STM32Cube_FW_L4_V1.17.2/Drivers/STM32L4xx_HAL_Driver/Src/stm32l4xx_hal_tim_ex.c 0x00000000   Number         0  stm32l4xx_hal_tim_ex.o ABSOLUTE
    C:/Users/wyffw/STM32Cube/Repository/STM32Cube_FW_L4_V1.17.2/Drivers/STM32L4xx_HAL_Driver/Src/stm32l4xx_hal_uart.c 0x00000000   Number         0  stm32l4xx_hal_uart.o ABSOLUTE
    C:/Users/wyffw/STM32Cube/Repository/STM32Cube_FW_L4_V1.17.2/Drivers/STM32L4xx_HAL_Driver/Src/stm32l4xx_hal_uart_ex.c 0x00000000   Number         0  stm32l4xx_hal_uart_ex.o ABSOLUTE
    C:\Users\wyffw\STM32Cube\Repository\STM32Cube_FW_L4_V1.17.2\Drivers\STM32L4xx_HAL_Driver\Src\stm32l4xx_hal.c 0x00000000   Number         0  stm32l4xx_hal.o ABSOLUTE
    C:\Users\wyffw\STM32Cube\Repository\STM32Cube_FW_L4_V1.17.2\Drivers\STM32L4xx_HAL_Driver\Src\stm32l4xx_hal_cortex.c 0x00000000   Number         0  stm32l4xx_hal_cortex.o ABSOLUTE
    C:\Users\wyffw\STM32Cube\Repository\STM32Cube_FW_L4_V1.17.2\Drivers\STM32L4xx_HAL_Driver\Src\stm32l4xx_hal_dma.c 0x00000000   Number         0  stm32l4xx_hal_dma.o ABSOLUTE
    C:\Users\wyffw\STM32Cube\Repository\STM32Cube_FW_L4_V1.17.2\Drivers\STM32L4xx_HAL_Driver\Src\stm32l4xx_hal_dma_ex.c 0x00000000   Number         0  stm32l4xx_hal_dma_ex.o ABSOLUTE
    C:\Users\wyffw\STM32Cube\Repository\STM32Cube_FW_L4_V1.17.2\Drivers\STM32L4xx_HAL_Driver\Src\stm32l4xx_hal_exti.c 0x00000000   Number         0  stm32l4xx_hal_exti.o ABSOLUTE
    C:\Users\wyffw\STM32Cube\Repository\STM32Cube_FW_L4_V1.17.2\Drivers\STM32L4xx_HAL_Driver\Src\stm32l4xx_hal_flash.c 0x00000000   Number         0  stm32l4xx_hal_flash.o ABSOLUTE
    C:\Users\wyffw\STM32Cube\Repository\STM32Cube_FW_L4_V1.17.2\Drivers\STM32L4xx_HAL_Driver\Src\stm32l4xx_hal_flash_ex.c 0x00000000   Number         0  stm32l4xx_hal_flash_ex.o ABSOLUTE
    C:\Users\wyffw\STM32Cube\Repository\STM32Cube_FW_L4_V1.17.2\Drivers\STM32L4xx_HAL_Driver\Src\stm32l4xx_hal_flash_ramfunc.c 0x00000000   Number         0  stm32l4xx_hal_flash_ramfunc.o ABSOLUTE
    C:\Users\wyffw\STM32Cube\Repository\STM32Cube_FW_L4_V1.17.2\Drivers\STM32L4xx_HAL_Driver\Src\stm32l4xx_hal_gpio.c 0x00000000   Number         0  stm32l4xx_hal_gpio.o ABSOLUTE
    C:\Users\wyffw\STM32Cube\Repository\STM32Cube_FW_L4_V1.17.2\Drivers\STM32L4xx_HAL_Driver\Src\stm32l4xx_hal_i2c.c 0x00000000   Number         0  stm32l4xx_hal_i2c.o ABSOLUTE
    C:\Users\wyffw\STM32Cube\Repository\STM32Cube_FW_L4_V1.17.2\Drivers\STM32L4xx_HAL_Driver\Src\stm32l4xx_hal_i2c_ex.c 0x00000000   Number         0  stm32l4xx_hal_i2c_ex.o ABSOLUTE
    C:\Users\wyffw\STM32Cube\Repository\STM32Cube_FW_L4_V1.17.2\Drivers\STM32L4xx_HAL_Driver\Src\stm32l4xx_hal_pwr.c 0x00000000   Number         0  stm32l4xx_hal_pwr.o ABSOLUTE
    C:\Users\wyffw\STM32Cube\Repository\STM32Cube_FW_L4_V1.17.2\Drivers\STM32L4xx_HAL_Driver\Src\stm32l4xx_hal_pwr_ex.c 0x00000000   Number         0  stm32l4xx_hal_pwr_ex.o ABSOLUTE
    C:\Users\wyffw\STM32Cube\Repository\STM32Cube_FW_L4_V1.17.2\Drivers\STM32L4xx_HAL_Driver\Src\stm32l4xx_hal_rcc.c 0x00000000   Number         0  stm32l4xx_hal_rcc.o ABSOLUTE
    C:\Users\wyffw\STM32Cube\Repository\STM32Cube_FW_L4_V1.17.2\Drivers\STM32L4xx_HAL_Driver\Src\stm32l4xx_hal_rcc_ex.c 0x00000000   Number         0  stm32l4xx_hal_rcc_ex.o ABSOLUTE
    C:\Users\wyffw\STM32Cube\Repository\STM32Cube_FW_L4_V1.17.2\Drivers\STM32L4xx_HAL_Driver\Src\stm32l4xx_hal_tim.c 0x00000000   Number         0  stm32l4xx_hal_tim.o ABSOLUTE
    C:\Users\wyffw\STM32Cube\Repository\STM32Cube_FW_L4_V1.17.2\Drivers\STM32L4xx_HAL_Driver\Src\stm32l4xx_hal_tim_ex.c 0x00000000   Number         0  stm32l4xx_hal_tim_ex.o ABSOLUTE
    C:\Users\wyffw\STM32Cube\Repository\STM32Cube_FW_L4_V1.17.2\Drivers\STM32L4xx_HAL_Driver\Src\stm32l4xx_hal_uart.c 0x00000000   Number         0  stm32l4xx_hal_uart.o ABSOLUTE
    C:\Users\wyffw\STM32Cube\Repository\STM32Cube_FW_L4_V1.17.2\Drivers\STM32L4xx_HAL_Driver\Src\stm32l4xx_hal_uart_ex.c 0x00000000   Number         0  stm32l4xx_hal_uart_ex.o ABSOLUTE
    C:\Users\wyffw\STM32Cube\Repository\\Packs\RealThread\RT-Thread\3.1.5\bsp\_template\cubemx_config\board.c 0x00000000   Number         0  board.o ABSOLUTE
    dc.s                                     0x00000000   Number         0  dc.o ABSOLUTE
    startup_stm32l496xx.s                    0x00000000   Number         0  startup_stm32l496xx.o ABSOLUTE
    RESET                                    0x08000000   Section      428  startup_stm32l496xx.o(RESET)
    !!!main                                  0x080001ac   Section        8  __main.o(!!!main)
    !!!scatter                               0x080001b4   Section       52  __scatter.o(!!!scatter)
    !!handler_copy                           0x080001e8   Section       26  __scatter_copy.o(!!handler_copy)
    !!handler_zi                             0x08000204   Section       28  __scatter_zi.o(!!handler_zi)
    .ARM.Collect$$libinit$$00000000          0x08000220   Section        2  libinit.o(.ARM.Collect$$libinit$$00000000)
    .ARM.Collect$$libinit$$00000001          0x08000222   Section        4  libinit2.o(.ARM.Collect$$libinit$$00000001)
    .ARM.Collect$$libinit$$00000004          0x08000226   Section        0  libinit2.o(.ARM.Collect$$libinit$$00000004)
    .ARM.Collect$$libinit$$0000000A          0x08000226   Section        0  libinit2.o(.ARM.Collect$$libinit$$0000000A)
    .ARM.Collect$$libinit$$0000000C          0x08000226   Section        0  libinit2.o(.ARM.Collect$$libinit$$0000000C)
    .ARM.Collect$$libinit$$0000000E          0x08000226   Section        0  libinit2.o(.ARM.Collect$$libinit$$0000000E)
    .ARM.Collect$$libinit$$00000011          0x08000226   Section        0  libinit2.o(.ARM.Collect$$libinit$$00000011)
    .ARM.Collect$$libinit$$00000013          0x08000226   Section        0  libinit2.o(.ARM.Collect$$libinit$$00000013)
    .ARM.Collect$$libinit$$00000015          0x08000226   Section        0  libinit2.o(.ARM.Collect$$libinit$$00000015)
    .ARM.Collect$$libinit$$00000017          0x08000226   Section        0  libinit2.o(.ARM.Collect$$libinit$$00000017)
    .ARM.Collect$$libinit$$00000019          0x08000226   Section        0  libinit2.o(.ARM.Collect$$libinit$$00000019)
    .ARM.Collect$$libinit$$0000001B          0x08000226   Section        0  libinit2.o(.ARM.Collect$$libinit$$0000001B)
    .ARM.Collect$$libinit$$0000001D          0x08000226   Section        0  libinit2.o(.ARM.Collect$$libinit$$0000001D)
    .ARM.Collect$$libinit$$0000001F          0x08000226   Section        0  libinit2.o(.ARM.Collect$$libinit$$0000001F)
    .ARM.Collect$$libinit$$00000021          0x08000226   Section        0  libinit2.o(.ARM.Collect$$libinit$$00000021)
    .ARM.Collect$$libinit$$00000023          0x08000226   Section        0  libinit2.o(.ARM.Collect$$libinit$$00000023)
    .ARM.Collect$$libinit$$00000025          0x08000226   Section        0  libinit2.o(.ARM.Collect$$libinit$$00000025)
    .ARM.Collect$$libinit$$0000002C          0x08000226   Section        0  libinit2.o(.ARM.Collect$$libinit$$0000002C)
    .ARM.Collect$$libinit$$0000002E          0x08000226   Section        0  libinit2.o(.ARM.Collect$$libinit$$0000002E)
    .ARM.Collect$$libinit$$00000030          0x08000226   Section        0  libinit2.o(.ARM.Collect$$libinit$$00000030)
    .ARM.Collect$$libinit$$00000032          0x08000226   Section        0  libinit2.o(.ARM.Collect$$libinit$$00000032)
    .ARM.Collect$$libinit$$00000033          0x08000226   Section        2  libinit2.o(.ARM.Collect$$libinit$$00000033)
    .ARM.Collect$$libshutdown$$00000000      0x08000228   Section        2  libshutdown.o(.ARM.Collect$$libshutdown$$00000000)
    .ARM.Collect$$libshutdown$$00000002      0x0800022a   Section        0  libshutdown2.o(.ARM.Collect$$libshutdown$$00000002)
    .ARM.Collect$$libshutdown$$00000004      0x0800022a   Section        0  libshutdown2.o(.ARM.Collect$$libshutdown$$00000004)
    .ARM.Collect$$libshutdown$$00000006      0x0800022a   Section        0  libshutdown2.o(.ARM.Collect$$libshutdown$$00000006)
    .ARM.Collect$$libshutdown$$00000009      0x0800022a   Section        0  libshutdown2.o(.ARM.Collect$$libshutdown$$00000009)
    .ARM.Collect$$libshutdown$$0000000C      0x0800022a   Section        0  libshutdown2.o(.ARM.Collect$$libshutdown$$0000000C)
    .ARM.Collect$$libshutdown$$0000000E      0x0800022a   Section        0  libshutdown2.o(.ARM.Collect$$libshutdown$$0000000E)
    .ARM.Collect$$libshutdown$$00000011      0x0800022a   Section        0  libshutdown2.o(.ARM.Collect$$libshutdown$$00000011)
    .ARM.Collect$$libshutdown$$00000012      0x0800022a   Section        2  libshutdown2.o(.ARM.Collect$$libshutdown$$00000012)
    .ARM.Collect$$rtentry$$00000000          0x0800022c   Section        0  __rtentry.o(.ARM.Collect$$rtentry$$00000000)
    .ARM.Collect$$rtentry$$00000002          0x0800022c   Section        0  __rtentry2.o(.ARM.Collect$$rtentry$$00000002)
    .ARM.Collect$$rtentry$$00000004          0x0800022c   Section        6  __rtentry4.o(.ARM.Collect$$rtentry$$00000004)
    .ARM.Collect$$rtentry$$00000009          0x08000232   Section        0  __rtentry2.o(.ARM.Collect$$rtentry$$00000009)
    .ARM.Collect$$rtentry$$0000000A          0x08000232   Section        4  __rtentry2.o(.ARM.Collect$$rtentry$$0000000A)
    .ARM.Collect$$rtentry$$0000000C          0x08000236   Section        0  __rtentry2.o(.ARM.Collect$$rtentry$$0000000C)
    .ARM.Collect$$rtentry$$0000000D          0x08000236   Section        8  __rtentry2.o(.ARM.Collect$$rtentry$$0000000D)
    .ARM.Collect$$rtexit$$00000000           0x0800023e   Section        2  rtexit.o(.ARM.Collect$$rtexit$$00000000)
    .ARM.Collect$$rtexit$$00000002           0x08000240   Section        0  rtexit2.o(.ARM.Collect$$rtexit$$00000002)
    .ARM.Collect$$rtexit$$00000003           0x08000240   Section        4  rtexit2.o(.ARM.Collect$$rtexit$$00000003)
    .ARM.Collect$$rtexit$$00000004           0x08000244   Section        6  rtexit2.o(.ARM.Collect$$rtexit$$00000004)
    .text                                    0x0800024c   Section       64  startup_stm32l496xx.o(.text)
    $v0                                      0x0800024c   Number         0  startup_stm32l496xx.o(.text)
    .text                                    0x0800028c   Section      308  context_rvds.o(.text)
    $v0                                      0x0800028c   Number         0  context_rvds.o(.text)
    .text                                    0x080003cc   Section      238  lludivv7m.o(.text)
    .text                                    0x080004ba   Section        0  strcpy.o(.text)
    .text                                    0x08000502   Section        0  strlen.o(.text)
    .text                                    0x08000540   Section        0  strncmp.o(.text)
    .text                                    0x080005d6   Section        0  strcat.o(.text)
    .text                                    0x080005ee   Section      100  rt_memcpy_w.o(.text)
    .text                                    0x08000652   Section       68  rt_memclr.o(.text)
    .text                                    0x08000696   Section       78  rt_memclr_w.o(.text)
    .text                                    0x080006e4   Section       86  strncpy.o(.text)
    .text                                    0x0800073a   Section        0  heapauxi.o(.text)
    .text                                    0x08000740   Section       74  sys_stackheap_outer.o(.text)
    .text                                    0x0800078a   Section        0  exit.o(.text)
    .text                                    0x0800079c   Section        8  libspace.o(.text)
    .text                                    0x080007a4   Section        0  sys_exit.o(.text)
    .text                                    0x080007b0   Section        2  use_no_semi.o(.text)
    .text                                    0x080007b2   Section        0  indicate_semi.o(.text)
    i.$Sub$$main                             0x080007b2   Section        0  components.o(i.$Sub$$main)
    i.Btn1_ContinuosFree_CallBack            0x080007bc   Section        0  rt_user_task.o(i.Btn1_ContinuosFree_CallBack)
    Btn1_ContinuosFree_CallBack              0x080007bd   Thumb Code    18  rt_user_task.o(i.Btn1_ContinuosFree_CallBack)
    i.Btn1_Continuos_CallBack                0x080007f0   Section        0  rt_user_task.o(i.Btn1_Continuos_CallBack)
    Btn1_Continuos_CallBack                  0x080007f1   Thumb Code    18  rt_user_task.o(i.Btn1_Continuos_CallBack)
    i.Btn1_Double_CallBack                   0x08000820   Section        0  rt_user_task.o(i.Btn1_Double_CallBack)
    Btn1_Double_CallBack                     0x08000821   Thumb Code    18  rt_user_task.o(i.Btn1_Double_CallBack)
    i.Btn1_Dowm_CallBack                     0x08000850   Section        0  rt_user_task.o(i.Btn1_Dowm_CallBack)
    Btn1_Dowm_CallBack                       0x08000851   Thumb Code    18  rt_user_task.o(i.Btn1_Dowm_CallBack)
    i.Btn1_Long_CallBack                     0x08000880   Section        0  rt_user_task.o(i.Btn1_Long_CallBack)
    Btn1_Long_CallBack                       0x08000881   Thumb Code    18  rt_user_task.o(i.Btn1_Long_CallBack)
    i.BusFault_Handler                       0x080008b0   Section        0  stm32l4xx_it.o(i.BusFault_Handler)
    i.Button_Attach                          0x080008b4   Section        0  button.o(i.Button_Attach)
    i.Button_Create                          0x080008d4   Section        0  button.o(i.Button_Create)
    i.Button_Cycle_Process                   0x080009c8   Section        0  button.o(i.Button_Cycle_Process)
    i.Button_Process                         0x08000b38   Section        0  button.o(i.Button_Process)
    i.DebugMon_Handler                       0x08000b54   Section        0  stm32l4xx_it.o(i.DebugMon_Handler)
    i.Error_Handler                          0x08000b56   Section        0  main.o(i.Error_Handler)
    i.HAL_DMA_Abort                          0x08000b5a   Section        0  stm32l4xx_hal_dma.o(i.HAL_DMA_Abort)
    i.HAL_DMA_Abort_IT                       0x08000ba4   Section        0  stm32l4xx_hal_dma.o(i.HAL_DMA_Abort_IT)
    i.HAL_GPIO_Init                          0x08000bf4   Section        0  stm32l4xx_hal_gpio.o(i.HAL_GPIO_Init)
    i.HAL_GPIO_ReadPin                       0x08000e4a   Section        0  stm32l4xx_hal_gpio.o(i.HAL_GPIO_ReadPin)
    i.HAL_GPIO_TogglePin                     0x08000e54   Section        0  stm32l4xx_hal_gpio.o(i.HAL_GPIO_TogglePin)
    i.HAL_GPIO_WritePin                      0x08000e64   Section        0  stm32l4xx_hal_gpio.o(i.HAL_GPIO_WritePin)
    i.HAL_GetTick                            0x08000e70   Section        0  stm32l4xx_hal.o(i.HAL_GetTick)
    i.HAL_Init                               0x08000e7c   Section        0  stm32l4xx_hal.o(i.HAL_Init)
    i.HAL_InitTick                           0x08000e9c   Section        0  stm32l4xx_hal.o(i.HAL_InitTick)
    i.HAL_MspInit                            0x08000ee0   Section        0  stm32l4xx_hal_msp.o(i.HAL_MspInit)
    i.HAL_NVIC_EnableIRQ                     0x08000f0c   Section        0  stm32l4xx_hal_cortex.o(i.HAL_NVIC_EnableIRQ)
    i.HAL_NVIC_SetPriority                   0x08000f28   Section        0  stm32l4xx_hal_cortex.o(i.HAL_NVIC_SetPriority)
    i.HAL_NVIC_SetPriorityGrouping           0x08000f68   Section        0  stm32l4xx_hal_cortex.o(i.HAL_NVIC_SetPriorityGrouping)
    i.HAL_PWREx_ControlVoltageScaling        0x08000f8c   Section        0  stm32l4xx_hal_pwr_ex.o(i.HAL_PWREx_ControlVoltageScaling)
    i.HAL_PWREx_GetVoltageRange              0x08000ff4   Section        0  stm32l4xx_hal_pwr_ex.o(i.HAL_PWREx_GetVoltageRange)
    i.HAL_RCCEx_PeriphCLKConfig              0x08001004   Section        0  stm32l4xx_hal_rcc_ex.o(i.HAL_RCCEx_PeriphCLKConfig)
    i.HAL_RCC_ClockConfig                    0x080013d0   Section        0  stm32l4xx_hal_rcc.o(i.HAL_RCC_ClockConfig)
    i.HAL_RCC_GetHCLKFreq                    0x08001514   Section        0  stm32l4xx_hal_rcc.o(i.HAL_RCC_GetHCLKFreq)
    i.HAL_RCC_GetPCLK1Freq                   0x08001520   Section        0  stm32l4xx_hal_rcc.o(i.HAL_RCC_GetPCLK1Freq)
    i.HAL_RCC_GetPCLK2Freq                   0x08001544   Section        0  stm32l4xx_hal_rcc.o(i.HAL_RCC_GetPCLK2Freq)
    i.HAL_RCC_GetSysClockFreq                0x08001568   Section        0  stm32l4xx_hal_rcc.o(i.HAL_RCC_GetSysClockFreq)
    i.HAL_RCC_OscConfig                      0x0800160c   Section        0  stm32l4xx_hal_rcc.o(i.HAL_RCC_OscConfig)
    i.HAL_SYSTICK_Config                     0x08001b74   Section        0  stm32l4xx_hal_cortex.o(i.HAL_SYSTICK_Config)
    i.HAL_UARTEx_RxEventCallback             0x08001b9c   Section        0  stm32l4xx_hal_uart.o(i.HAL_UARTEx_RxEventCallback)
    i.HAL_UARTEx_WakeupCallback              0x08001b9e   Section        0  stm32l4xx_hal_uart_ex.o(i.HAL_UARTEx_WakeupCallback)
    i.HAL_UART_ErrorCallback                 0x08001ba0   Section        0  stm32l4xx_hal_uart.o(i.HAL_UART_ErrorCallback)
    i.HAL_UART_IRQHandler                    0x08001ba4   Section        0  stm32l4xx_hal_uart.o(i.HAL_UART_IRQHandler)
    i.HAL_UART_Init                          0x08001e38   Section        0  stm32l4xx_hal_uart.o(i.HAL_UART_Init)
    i.HAL_UART_MspInit                       0x08001ea0   Section        0  usart.o(i.HAL_UART_MspInit)
    i.HAL_UART_Transmit                      0x08001f30   Section        0  stm32l4xx_hal_uart.o(i.HAL_UART_Transmit)
    i.HAL_UART_TxCpltCallback                0x08001fe6   Section        0  stm32l4xx_hal_uart.o(i.HAL_UART_TxCpltCallback)
    i.LPUART1_IRQHandler                     0x08001fe8   Section        0  stm32l4xx_it.o(i.LPUART1_IRQHandler)
    i.MX_GPIO_Init                           0x08001ff4   Section        0  gpio.o(i.MX_GPIO_Init)
    i.MemManage_Handler                      0x080020b4   Section        0  stm32l4xx_it.o(i.MemManage_Handler)
    i.NMI_Handler                            0x080020b6   Section        0  stm32l4xx_it.o(i.NMI_Handler)
    i.RCCEx_PLLSAI1_Config                   0x080020b8   Section        0  stm32l4xx_hal_rcc_ex.o(i.RCCEx_PLLSAI1_Config)
    RCCEx_PLLSAI1_Config                     0x080020b9   Thumb Code   278  stm32l4xx_hal_rcc_ex.o(i.RCCEx_PLLSAI1_Config)
    i.RCCEx_PLLSAI2_Config                   0x080021e4   Section        0  stm32l4xx_hal_rcc_ex.o(i.RCCEx_PLLSAI2_Config)
    RCCEx_PLLSAI2_Config                     0x080021e5   Thumb Code   250  stm32l4xx_hal_rcc_ex.o(i.RCCEx_PLLSAI2_Config)
    i.RCC_SetFlashLatencyFromMSIRange        0x080022ec   Section        0  stm32l4xx_hal_rcc.o(i.RCC_SetFlashLatencyFromMSIRange)
    RCC_SetFlashLatencyFromMSIRange          0x080022ed   Thumb Code   116  stm32l4xx_hal_rcc.o(i.RCC_SetFlashLatencyFromMSIRange)
    i.Search_Button                          0x08002368   Section        0  button.o(i.Search_Button)
    i.SysTick_Handler                        0x080023ac   Section        0  board.o(i.SysTick_Handler)
    i.SystemClock_Config                     0x080023be   Section        0  main.o(i.SystemClock_Config)
    i.SystemCoreClockUpdate                  0x0800242c   Section        0  system_stm32l4xx.o(i.SystemCoreClockUpdate)
    i.SystemInit                             0x080024d4   Section        0  system_stm32l4xx.o(i.SystemInit)
    i.UART_AdvFeatureConfig                  0x080024e4   Section        0  stm32l4xx_hal_uart.o(i.UART_AdvFeatureConfig)
    i.UART_CheckIdleState                    0x080025ac   Section        0  stm32l4xx_hal_uart.o(i.UART_CheckIdleState)
    i.UART_DMAAbortOnError                   0x08002608   Section        0  stm32l4xx_hal_uart.o(i.UART_DMAAbortOnError)
    UART_DMAAbortOnError                     0x08002609   Thumb Code    20  stm32l4xx_hal_uart.o(i.UART_DMAAbortOnError)
    i.UART_EndRxTransfer                     0x0800261c   Section        0  stm32l4xx_hal_uart.o(i.UART_EndRxTransfer)
    UART_EndRxTransfer                       0x0800261d   Thumb Code    74  stm32l4xx_hal_uart.o(i.UART_EndRxTransfer)
    i.UART_SetConfig                         0x08002668   Section        0  stm32l4xx_hal_uart.o(i.UART_SetConfig)
    i.UART_WaitOnFlagUntilTimeout            0x080028b0   Section        0  stm32l4xx_hal_uart.o(i.UART_WaitOnFlagUntilTimeout)
    i.UsageFault_Handler                     0x08002976   Section        0  stm32l4xx_it.o(i.UsageFault_Handler)
    i.__NVIC_SetPriority                     0x08002978   Section        0  stm32l4xx_hal_cortex.o(i.__NVIC_SetPriority)
    __NVIC_SetPriority                       0x08002979   Thumb Code    32  stm32l4xx_hal_cortex.o(i.__NVIC_SetPriority)
    i.__rt_ffs                               0x08002998   Section        0  kservice.o(i.__rt_ffs)
    i._msh_exec_cmd                          0x080029dc   Section        0  msh.o(i._msh_exec_cmd)
    _msh_exec_cmd                            0x080029dd   Thumb Code   172  msh.o(i._msh_exec_cmd)
    i._rt_thread_init                        0x08002ab0   Section        0  thread.o(i._rt_thread_init)
    _rt_thread_init                          0x08002ab1   Thumb Code   124  thread.o(i._rt_thread_init)
    i._rt_timer_init                         0x08002b5c   Section        0  timer.o(i._rt_timer_init)
    _rt_timer_init                           0x08002b5d   Thumb Code    28  timer.o(i._rt_timer_init)
    i._rt_timer_remove                       0x08002b78   Section        0  timer.o(i._rt_timer_remove)
    _rt_timer_remove                         0x08002b79   Thumb Code     6  timer.o(i._rt_timer_remove)
    i._thread_cleanup_execute                0x08002b7e   Section        0  thread.o(i._thread_cleanup_execute)
    _thread_cleanup_execute                  0x08002b7f   Thumb Code    28  thread.o(i._thread_cleanup_execute)
    i.bus_fault_track                        0x08002b9c   Section        0  cpuport.o(i.bus_fault_track)
    bus_fault_track                          0x08002b9d   Thumb Code   110  cpuport.o(i.bus_fault_track)
    i.cmd_free                               0x08002c84   Section        0  msh.o(i.cmd_free)
    i.cmd_ps                                 0x08002c8e   Section        0  msh.o(i.cmd_ps)
    i.finsh_get_prompt                       0x08002c98   Section        0  shell.o(i.finsh_get_prompt)
    i.finsh_set_prompt_mode                  0x08002cf8   Section        0  shell.o(i.finsh_set_prompt_mode)
    i.finsh_system_function_init             0x08002d38   Section        0  shell.o(i.finsh_system_function_init)
    i.finsh_system_init                      0x08002d44   Section        0  shell.o(i.finsh_system_init)
    i.finsh_thread_entry                     0x08002dd8   Section        0  shell.o(i.finsh_thread_entry)
    i.hard_fault_track                       0x08003064   Section        0  cpuport.o(i.hard_fault_track)
    hard_fault_track                         0x08003065   Thumb Code    76  cpuport.o(i.hard_fault_track)
    i.hello                                  0x080030dc   Section        0  cmd.o(i.hello)
    i.list                                   0x080030fc   Section        0  cmd.o(i.list)
    i.list_find_init                         0x08003160   Section        0  cmd.o(i.list_find_init)
    list_find_init                           0x08003161   Thumb Code    36  cmd.o(i.list_find_init)
    i.list_get_next                          0x08003184   Section        0  cmd.o(i.list_get_next)
    list_get_next                            0x08003185   Thumb Code   102  cmd.o(i.list_get_next)
    i.list_mem                               0x080031ec   Section        0  mem.o(i.list_mem)
    i.list_sem                               0x08003258   Section        0  cmd.o(i.list_sem)
    i.list_thread                            0x08003398   Section        0  cmd.o(i.list_thread)
    i.list_timer                             0x08003550   Section        0  cmd.o(i.list_timer)
    i.main                                   0x08003690   Section        0  main.o(i.main)
    i.main_thread_entry                      0x080036b0   Section        0  components.o(i.main_thread_entry)
    i.mem_manage_fault_track                 0x080036c0   Section        0  cpuport.o(i.mem_manage_fault_track)
    mem_manage_fault_track                   0x080036c1   Thumb Code    98  cpuport.o(i.mem_manage_fault_track)
    i.msh_auto_complete                      0x08003798   Section        0  msh.o(i.msh_auto_complete)
    i.msh_exec                               0x08003844   Section        0  msh.o(i.msh_exec)
    i.msh_help                               0x080038a8   Section        0  msh.o(i.msh_help)
    i.msh_is_used                            0x08003920   Section        0  msh.o(i.msh_is_used)
    i.msh_split                              0x08003924   Section        0  msh.o(i.msh_split)
    msh_split                                0x08003925   Thumb Code   172  msh.o(i.msh_split)
    i.object_split                           0x080039f4   Section        0  cmd.o(i.object_split)
    object_split                             0x080039f5   Thumb Code    18  cmd.o(i.object_split)
    i.plug_holes                             0x08003a0c   Section        0  mem.o(i.plug_holes)
    plug_holes                               0x08003a0d   Thumb Code   130  mem.o(i.plug_holes)
    i.print_number                           0x08003af4   Section        0  kservice.o(i.print_number)
    print_number                             0x08003af5   Thumb Code   300  kservice.o(i.print_number)
    i.rt_application_init                    0x08003c2c   Section        0  components.o(i.rt_application_init)
    i.rt_assert_handler                      0x08003c7c   Section        0  kservice.o(i.rt_assert_handler)
    i.rt_calloc                              0x08003ce8   Section        0  mem.o(i.rt_calloc)
    i.rt_components_board_init               0x08003d04   Section        0  components.o(i.rt_components_board_init)
    i.rt_components_init                     0x08003d4c   Section        0  components.o(i.rt_components_init)
    i.rt_enter_critical                      0x08003dbc   Section        0  scheduler.o(i.rt_enter_critical)
    i.rt_exit_critical                       0x08003dd8   Section        0  scheduler.o(i.rt_exit_critical)
    i.rt_free                                0x08003e10   Section        0  mem.o(i.rt_free)
    i.rt_heap_begin_get                      0x08003fd0   Section        0  board.o(i.rt_heap_begin_get)
    i.rt_heap_end_get                        0x08003fd8   Section        0  board.o(i.rt_heap_end_get)
    i.rt_hw_board_init                       0x08003fe0   Section        0  board.o(i.rt_hw_board_init)
    i.rt_hw_console_getchar                  0x0800401c   Section        0  board.o(i.rt_hw_console_getchar)
    i.rt_hw_console_output                   0x08004044   Section        0  board.o(i.rt_hw_console_output)
    i.rt_hw_hard_fault_exception             0x0800408c   Section        0  cpuport.o(i.rt_hw_hard_fault_exception)
    i.rt_hw_stack_init                       0x080042a4   Section        0  cpuport.o(i.rt_hw_stack_init)
    i.rt_interrupt_enter                     0x080042e0   Section        0  irq.o(i.rt_interrupt_enter)
    i.rt_interrupt_get_nest                  0x080042fc   Section        0  irq.o(i.rt_interrupt_get_nest)
    i.rt_interrupt_leave                     0x08004314   Section        0  irq.o(i.rt_interrupt_leave)
    i.rt_kprintf                             0x08004330   Section        0  kservice.o(i.rt_kprintf)
    i.rt_led1_flash_entry                    0x08004354   Section        0  rt_user_task.o(i.rt_led1_flash_entry)
    rt_led1_flash_entry                      0x08004355   Thumb Code    76  rt_user_task.o(i.rt_led1_flash_entry)
    i.rt_led2_flash_entry                    0x080043c4   Section        0  rt_user_task.o(i.rt_led2_flash_entry)
    rt_led2_flash_entry                      0x080043c5   Thumb Code    22  rt_user_task.o(i.rt_led2_flash_entry)
    i.rt_list_insert_after                   0x080043e0   Section        0  object.o(i.rt_list_insert_after)
    rt_list_insert_after                     0x080043e1   Thumb Code    14  object.o(i.rt_list_insert_after)
    i.rt_list_insert_after                   0x080043ee   Section        0  thread.o(i.rt_list_insert_after)
    rt_list_insert_after                     0x080043ef   Thumb Code    14  thread.o(i.rt_list_insert_after)
    i.rt_list_insert_after                   0x080043fc   Section        0  timer.o(i.rt_list_insert_after)
    rt_list_insert_after                     0x080043fd   Thumb Code    14  timer.o(i.rt_list_insert_after)
    i.rt_list_insert_before                  0x0800440a   Section        0  ipc.o(i.rt_list_insert_before)
    rt_list_insert_before                    0x0800440b   Thumb Code    14  ipc.o(i.rt_list_insert_before)
    i.rt_list_len                            0x08004418   Section        0  cmd.o(i.rt_list_len)
    rt_list_len                              0x08004419   Thumb Code    18  cmd.o(i.rt_list_len)
    i.rt_list_remove                         0x0800442a   Section        0  object.o(i.rt_list_remove)
    rt_list_remove                           0x0800442b   Thumb Code    18  object.o(i.rt_list_remove)
    i.rt_list_remove                         0x0800443c   Section        0  thread.o(i.rt_list_remove)
    rt_list_remove                           0x0800443d   Thumb Code    18  thread.o(i.rt_list_remove)
    i.rt_list_remove                         0x0800444e   Section        0  timer.o(i.rt_list_remove)
    rt_list_remove                           0x0800444f   Thumb Code    18  timer.o(i.rt_list_remove)
    i.rt_malloc                              0x08004460   Section        0  mem.o(i.rt_malloc)
    i.rt_memmove                             0x0800464c   Section        0  kservice.o(i.rt_memmove)
    i.rt_memset                              0x0800467e   Section        0  kservice.o(i.rt_memset)
    i.rt_object_allocate                     0x08004690   Section        0  object.o(i.rt_object_allocate)
    i.rt_object_delete                       0x08004760   Section        0  object.o(i.rt_object_delete)
    i.rt_object_detach                       0x080047ec   Section        0  object.o(i.rt_object_detach)
    i.rt_object_get_information              0x08004834   Section        0  object.o(i.rt_object_get_information)
    i.rt_object_get_type                     0x08004858   Section        0  object.o(i.rt_object_get_type)
    i.rt_object_init                         0x0800488c   Section        0  object.o(i.rt_object_init)
    i.rt_object_is_systemobject              0x08004930   Section        0  object.o(i.rt_object_is_systemobject)
    i.rt_read_key1                           0x08004968   Section        0  rt_user_task.o(i.rt_read_key1)
    rt_read_key1                             0x08004969   Thumb Code    10  rt_user_task.o(i.rt_read_key1)
    i.rt_schedule                            0x08004978   Section        0  scheduler.o(i.rt_schedule)
    i.rt_schedule_insert_thread              0x080049d0   Section        0  scheduler.o(i.rt_schedule_insert_thread)
    i.rt_schedule_remove_thread              0x08004a44   Section        0  scheduler.o(i.rt_schedule_remove_thread)
    i.rt_sem_init                            0x08004ab4   Section        0  ipc.o(i.rt_sem_init)
    i.rt_sem_release                         0x08004b20   Section        0  ipc.o(i.rt_sem_release)
    i.rt_sem_take                            0x08004ba8   Section        0  ipc.o(i.rt_sem_take)
    i.rt_show_version                        0x08004d44   Section        0  kservice.o(i.rt_show_version)
    i.rt_strlen                              0x08004df4   Section        0  kservice.o(i.rt_strlen)
    i.rt_strncpy                             0x08004e04   Section        0  kservice.o(i.rt_strncpy)
    i.rt_system_heap_init                    0x08004e2c   Section        0  mem.o(i.rt_system_heap_init)
    i.rt_system_scheduler_init               0x08004f34   Section        0  scheduler.o(i.rt_system_scheduler_init)
    i.rt_system_scheduler_start              0x08004f68   Section        0  scheduler.o(i.rt_system_scheduler_start)
    i.rt_system_timer_init                   0x08004f90   Section        0  timer.o(i.rt_system_timer_init)
    i.rt_system_timer_thread_init            0x08004f9c   Section        0  timer.o(i.rt_system_timer_thread_init)
    i.rt_thread_create                       0x08004f9e   Section        0  thread.o(i.rt_thread_create)
    i.rt_thread_exit                         0x08004fe8   Section        0  thread.o(i.rt_thread_exit)
    i.rt_thread_idle_entry                   0x08005044   Section        0  idle.o(i.rt_thread_idle_entry)
    rt_thread_idle_entry                     0x08005045   Thumb Code     6  idle.o(i.rt_thread_idle_entry)
    i.rt_thread_idle_excute                  0x0800504c   Section        0  idle.o(i.rt_thread_idle_excute)
    i.rt_thread_idle_init                    0x080050e8   Section        0  idle.o(i.rt_thread_idle_init)
    i.rt_thread_init                         0x08005120   Section        0  thread.o(i.rt_thread_init)
    i.rt_thread_mdelay                       0x080051a6   Section        0  thread.o(i.rt_thread_mdelay)
    i.rt_thread_resume                       0x080051b4   Section        0  thread.o(i.rt_thread_resume)
    i.rt_thread_self                         0x08005230   Section        0  thread.o(i.rt_thread_self)
    i.rt_thread_sleep                        0x0800523c   Section        0  thread.o(i.rt_thread_sleep)
    i.rt_thread_startup                      0x080052bc   Section        0  thread.o(i.rt_thread_startup)
    i.rt_thread_suspend                      0x08005378   Section        0  thread.o(i.rt_thread_suspend)
    i.rt_thread_timeout                      0x080053fc   Section        0  thread.o(i.rt_thread_timeout)
    i.rt_thread_yield                        0x080054b0   Section        0  thread.o(i.rt_thread_yield)
    i.rt_tick_from_millisecond               0x08005510   Section        0  clock.o(i.rt_tick_from_millisecond)
    i.rt_tick_get                            0x08005544   Section        0  clock.o(i.rt_tick_get)
    i.rt_tick_increase                       0x08005550   Section        0  clock.o(i.rt_tick_increase)
    i.rt_timer_check                         0x0800557c   Section        0  timer.o(i.rt_timer_check)
    i.rt_timer_control                       0x08005608   Section        0  timer.o(i.rt_timer_control)
    i.rt_timer_detach                        0x080056c8   Section        0  timer.o(i.rt_timer_detach)
    i.rt_timer_init                          0x080057a4   Section        0  timer.o(i.rt_timer_init)
    i.rt_timer_start                         0x080057f4   Section        0  timer.o(i.rt_timer_start)
    i.rt_timer_stop                          0x08005924   Section        0  timer.o(i.rt_timer_stop)
    i.rt_user_thread_entry                   0x080059cc   Section        0  rt_user_task.o(i.rt_user_thread_entry)
    i.rt_vsnprintf                           0x08005a9c   Section        0  kservice.o(i.rt_vsnprintf)
    i.rti_board_end                          0x08005d26   Section        0  components.o(i.rti_board_end)
    rti_board_end                            0x08005d27   Thumb Code     4  components.o(i.rti_board_end)
    i.rti_board_start                        0x08005d2a   Section        0  components.o(i.rti_board_start)
    rti_board_start                          0x08005d2b   Thumb Code     4  components.o(i.rti_board_start)
    i.rti_end                                0x08005d2e   Section        0  components.o(i.rti_end)
    rti_end                                  0x08005d2f   Thumb Code     4  components.o(i.rti_end)
    i.rti_start                              0x08005d32   Section        0  components.o(i.rti_start)
    rti_start                                0x08005d33   Thumb Code     4  components.o(i.rti_start)
    i.rtthread_startup                       0x08005d36   Section        0  components.o(i.rtthread_startup)
    i.skip_atoi                              0x08005d60   Section        0  kservice.o(i.skip_atoi)
    skip_atoi                                0x08005d61   Thumb Code    40  kservice.o(i.skip_atoi)
    i.uart_init                              0x08005d88   Section        0  board.o(i.uart_init)
    uart_init                                0x08005d89   Thumb Code    42  board.o(i.uart_init)
    i.usage_fault_track                      0x08005dbc   Section        0  cpuport.o(i.usage_fault_track)
    usage_fault_track                        0x08005dbd   Thumb Code   100  cpuport.o(i.usage_fault_track)
    i.version                                0x08005e8c   Section        0  cmd.o(i.version)
    x$fpl$fpinit                             0x08005e96   Section       10  fpinit.o(x$fpl$fpinit)
    $v0                                      0x08005e96   Number         0  fpinit.o(x$fpl$fpinit)
    .constdata                               0x08005ea0   Section       64  system_stm32l4xx.o(.constdata)
    .constdata                               0x08005ee0   Section        8  system_stm32l4xx.o(.constdata)
    .constdata                               0x08005ee8   Section       10  components.o(.constdata)
    .constdata                               0x08005ef2   Section       16  components.o(.constdata)
    .constdata                               0x08005f02   Section       14  components.o(.constdata)
    .constdata                               0x08005f10   Section        8  components.o(.constdata)
    .constdata                               0x08005f18   Section       20  components.o(.constdata)
    __FUNCTION__                             0x08005f18   Data          20  components.o(.constdata)
    .constdata                               0x08005f2c   Section       22  idle.o(.constdata)
    __FUNCTION__                             0x08005f2c   Data          22  idle.o(.constdata)
    .constdata                               0x08005f42   Section       96  ipc.o(.constdata)
    __FUNCTION__                             0x08005f42   Data          12  ipc.o(.constdata)
    __FUNCTION__                             0x08005f4e   Data          14  ipc.o(.constdata)
    __FUNCTION__                             0x08005f5c   Data          14  ipc.o(.constdata)
    __FUNCTION__                             0x08005f6a   Data          14  ipc.o(.constdata)
    __FUNCTION__                             0x08005f78   Data          12  ipc.o(.constdata)
    __FUNCTION__                             0x08005f84   Data          15  ipc.o(.constdata)
    __FUNCTION__                             0x08005f93   Data          15  ipc.o(.constdata)
    .constdata                               0x08005fa2   Section      290  kservice.o(.constdata)
    small_digits                             0x080060a2   Data          17  kservice.o(.constdata)
    large_digits                             0x080060b3   Data          17  kservice.o(.constdata)
    .constdata                               0x080060c4   Section       60  mem.o(.constdata)
    __FUNCTION__                             0x080060c4   Data           8  mem.o(.constdata)
    __FUNCTION__                             0x080060cc   Data          11  mem.o(.constdata)
    __FUNCTION__                             0x080060d7   Data          20  mem.o(.constdata)
    __FUNCTION__                             0x080060eb   Data          10  mem.o(.constdata)
    __FUNCTION__                             0x080060f5   Data          11  mem.o(.constdata)
    .constdata                               0x08006100   Section      128  object.o(.constdata)
    __FUNCTION__                             0x08006100   Data          15  object.o(.constdata)
    __FUNCTION__                             0x0800610f   Data          17  object.o(.constdata)
    __FUNCTION__                             0x08006120   Data          19  object.o(.constdata)
    __FUNCTION__                             0x08006133   Data          17  object.o(.constdata)
    __FUNCTION__                             0x08006144   Data          26  object.o(.constdata)
    __FUNCTION__                             0x0800615e   Data          19  object.o(.constdata)
    __FUNCTION__                             0x08006171   Data          15  object.o(.constdata)
    .constdata                               0x08006180   Section       52  scheduler.o(.constdata)
    __FUNCTION__                             0x08006180   Data          26  scheduler.o(.constdata)
    __FUNCTION__                             0x0800619a   Data          26  scheduler.o(.constdata)
    .constdata                               0x080061b4   Section      192  thread.o(.constdata)
    __FUNCTION__                             0x080061b4   Data          16  thread.o(.constdata)
    __FUNCTION__                             0x080061c4   Data          15  thread.o(.constdata)
    __FUNCTION__                             0x080061d3   Data          18  thread.o(.constdata)
    __FUNCTION__                             0x080061e5   Data          17  thread.o(.constdata)
    __FUNCTION__                             0x080061f6   Data          17  thread.o(.constdata)
    __FUNCTION__                             0x08006207   Data          16  thread.o(.constdata)
    __FUNCTION__                             0x08006217   Data          22  thread.o(.constdata)
    __FUNCTION__                             0x0800622d   Data          18  thread.o(.constdata)
    __FUNCTION__                             0x0800623f   Data          18  thread.o(.constdata)
    __FUNCTION__                             0x08006251   Data          17  thread.o(.constdata)
    __FUNCTION__                             0x08006262   Data          18  thread.o(.constdata)
    .constdata                               0x08006274   Section       92  timer.o(.constdata)
    __FUNCTION__                             0x08006274   Data          14  timer.o(.constdata)
    __FUNCTION__                             0x08006282   Data          16  timer.o(.constdata)
    __FUNCTION__                             0x08006292   Data          16  timer.o(.constdata)
    __FUNCTION__                             0x080062a2   Data          15  timer.o(.constdata)
    __FUNCTION__                             0x080062b1   Data          14  timer.o(.constdata)
    __FUNCTION__                             0x080062bf   Data          17  timer.o(.constdata)
    .constdata                               0x080062d0   Section       10  board.o(.constdata)
    .constdata                               0x080062da   Section       14  msh.o(.constdata)
    __FUNCTION__                             0x080062da   Data          14  msh.o(.constdata)
    .constdata                               0x080062e8   Section       18  shell.o(.constdata)
    .constdata                               0x080062fa   Section       74  shell.o(.constdata)
    __FUNCTION__                             0x080062fa   Data          22  shell.o(.constdata)
    __FUNCTION__                             0x08006310   Data          22  shell.o(.constdata)
    __FUNCTION__                             0x08006326   Data          15  shell.o(.constdata)
    __FUNCTION__                             0x08006335   Data          15  shell.o(.constdata)
    .conststring                             0x08006344   Section      235  button.o(.conststring)
    .conststring                             0x08006430   Section       69  ipc.o(.conststring)
    .conststring                             0x08006478   Section      235  mem.o(.conststring)
    .conststring                             0x08006564   Section       66  thread.o(.conststring)
    .conststring                             0x080065a8   Section       68  cmd.o(.conststring)
    .rodata.name                             0x080065ec   Section        9  mem.o(.rodata.name)
    .rodata.name                             0x080065f5   Section       30  mem.o(.rodata.name)
    .rodata.name                             0x08006613   Section        6  cmd.o(.rodata.name)
    .rodata.name                             0x08006619   Section       16  cmd.o(.rodata.name)
    .rodata.name                             0x08006629   Section        8  cmd.o(.rodata.name)
    .rodata.name                             0x08006631   Section       35  cmd.o(.rodata.name)
    .rodata.name                             0x08006654   Section       14  cmd.o(.rodata.name)
    .rodata.name                             0x08006662   Section       35  cmd.o(.rodata.name)
    .rodata.name                             0x08006685   Section       12  cmd.o(.rodata.name)
    .rodata.name                             0x08006691   Section       12  cmd.o(.rodata.name)
    .rodata.name                             0x0800669d   Section       18  cmd.o(.rodata.name)
    .rodata.name                             0x080066af   Section       12  cmd.o(.rodata.name)
    .rodata.name                             0x080066bb   Section        9  cmd.o(.rodata.name)
    .rodata.name                             0x080066c4   Section       25  cmd.o(.rodata.name)
    .rodata.name                             0x080066dd   Section       15  cmd.o(.rodata.name)
    .rodata.name                             0x080066ec   Section       25  cmd.o(.rodata.name)
    .rodata.name                             0x08006705   Section       11  cmd.o(.rodata.name)
    .rodata.name                             0x08006710   Section       21  cmd.o(.rodata.name)
    .rodata.name                             0x08006725   Section       17  cmd.o(.rodata.name)
    .rodata.name                             0x08006736   Section       21  cmd.o(.rodata.name)
    .rodata.name                             0x0800674b   Section        5  cmd.o(.rodata.name)
    .rodata.name                             0x08006750   Section       26  cmd.o(.rodata.name)
    .rodata.name                             0x0800676a   Section       11  msh.o(.rodata.name)
    .rodata.name                             0x08006775   Section       22  msh.o(.rodata.name)
    .rodata.name                             0x0800678b   Section        9  msh.o(.rodata.name)
    .rodata.name                             0x08006794   Section       28  msh.o(.rodata.name)
    .rodata.name                             0x080067b0   Section       11  msh.o(.rodata.name)
    .rodata.name                             0x080067bb   Section       37  msh.o(.rodata.name)
    .rti_fn.0                                0x080067e0   Section        8  components.o(.rti_fn.0)
    __tagsym$$used                           0x080067e0   Number         0  components.o(.rti_fn.0)
    .rti_fn.0.end                            0x080067e8   Section        8  components.o(.rti_fn.0.end)
    __tagsym$$used                           0x080067e8   Number         0  components.o(.rti_fn.0.end)
    .rti_fn.1                                0x080067f0   Section        8  board.o(.rti_fn.1)
    __tagsym$$used                           0x080067f0   Number         0  board.o(.rti_fn.1)
    .rti_fn.1.end                            0x080067f8   Section        8  components.o(.rti_fn.1.end)
    __tagsym$$used                           0x080067f8   Number         0  components.o(.rti_fn.1.end)
    .rti_fn.6                                0x08006800   Section        8  shell.o(.rti_fn.6)
    __tagsym$$used                           0x08006800   Number         0  shell.o(.rti_fn.6)
    .rti_fn.6.end                            0x08006808   Section        8  components.o(.rti_fn.6.end)
    __tagsym$$used                           0x08006808   Number         0  components.o(.rti_fn.6.end)
    FSymTab                                  0x08006810   Section       12  mem.o(FSymTab)
    __tagsym$$used                           0x08006810   Number         0  mem.o(FSymTab)
    FSymTab                                  0x0800681c   Section      120  cmd.o(FSymTab)
    __tagsym$$used                           0x0800681c   Number         0  cmd.o(FSymTab)
    __tagsym$$used                           0x08006828   Number         0  cmd.o(FSymTab)
    __tagsym$$used                           0x08006834   Number         0  cmd.o(FSymTab)
    __tagsym$$used                           0x08006840   Number         0  cmd.o(FSymTab)
    __tagsym$$used                           0x0800684c   Number         0  cmd.o(FSymTab)
    __tagsym$$used                           0x08006858   Number         0  cmd.o(FSymTab)
    __tagsym$$used                           0x08006864   Number         0  cmd.o(FSymTab)
    __tagsym$$used                           0x08006870   Number         0  cmd.o(FSymTab)
    __tagsym$$used                           0x0800687c   Number         0  cmd.o(FSymTab)
    __tagsym$$used                           0x08006888   Number         0  cmd.o(FSymTab)
    FSymTab                                  0x08006894   Section       36  msh.o(FSymTab)
    __tagsym$$used                           0x08006894   Number         0  msh.o(FSymTab)
    __tagsym$$used                           0x080068a0   Number         0  msh.o(FSymTab)
    __tagsym$$used                           0x080068ac   Number         0  msh.o(FSymTab)
    .data                                    0x20000000   Section        4  rt_user_task.o(.data)
    result                                   0x20000000   Data           4  rt_user_task.o(.data)
    .data                                    0x20000004   Section        4  button.o(.data)
    Head_Button                              0x20000004   Data           4  button.o(.data)
    .data                                    0x20000008   Section       12  stm32l4xx_hal.o(.data)
    .data                                    0x20000014   Section        4  system_stm32l4xx.o(.data)
    .data                                    0x20000018   Section        4  clock.o(.data)
    rt_tick                                  0x20000018   Data           4  clock.o(.data)
    .data                                    0x2000001c   Section        1  irq.o(.data)
    .data                                    0x20000020   Section        8  kservice.o(.data)
    __rt_errno                               0x20000020   Data           4  kservice.o(.data)
    .data                                    0x20000028   Section       24  mem.o(.data)
    heap_ptr                                 0x20000028   Data           4  mem.o(.data)
    heap_end                                 0x2000002c   Data           4  mem.o(.data)
    lfree                                    0x20000030   Data           4  mem.o(.data)
    mem_size_aligned                         0x20000034   Data           4  mem.o(.data)
    used_mem                                 0x20000038   Data           4  mem.o(.data)
    max_mem                                  0x2000003c   Data           4  mem.o(.data)
    .data                                    0x20000040   Section       48  object.o(.data)
    rt_object_container                      0x20000040   Data          48  object.o(.data)
    .data                                    0x20000070   Section       20  scheduler.o(.data)
    rt_scheduler_lock_nest                   0x20000072   Data           2  scheduler.o(.data)
    .data                                    0x20000084   Section       12  timer.o(.data)
    random_nr                                0x20000084   Data           4  timer.o(.data)
    rt_timer_list                            0x20000088   Data           8  timer.o(.data)
    .data                                    0x20000090   Section        4  cpuport.o(.data)
    rt_exception_hook                        0x20000090   Data           4  cpuport.o(.data)
    .data                                    0x20000094   Section        4  cpuport.o(.data)
    .data                                    0x20000098   Section        4  cpuport.o(.data)
    .data                                    0x2000009c   Section        4  cpuport.o(.data)
    .data                                    0x200000a0   Section       24  shell.o(.data)
    finsh_prompt_custom                      0x200000b0   Data           4  shell.o(.data)
    .bss                                     0x200000b8   Section       80  rt_user_task.o(.bss)
    .bss                                     0x20000108   Section      132  usart.o(.bss)
    .bss                                     0x2000018c   Section      376  idle.o(.bss)
    idle                                     0x2000018c   Data         120  idle.o(.bss)
    rt_thread_stack                          0x20000204   Data         256  idle.o(.bss)
    .bss                                     0x20000304   Section      512  kservice.o(.bss)
    rt_log_buf                               0x20000304   Data         512  kservice.o(.bss)
    .bss                                     0x20000504   Section       32  mem.o(.bss)
    heap_sem                                 0x20000504   Data          32  mem.o(.bss)
    .bss                                     0x20000524   Section      256  scheduler.o(.bss)
    .bss                                     0x20000624   Section    15492  board.o(.bss)
    rt_heap                                  0x20000624   Data       15360  board.o(.bss)
    UartHandle                               0x20004224   Data         132  board.o(.bss)
    .bss                                     0x200042a8   Section      513  shell.o(.bss)
    finsh_prompt                             0x200042a8   Data         513  shell.o(.bss)
    .bss                                     0x200044ac   Section       96  libspace.o(.bss)
    HEAP                                     0x20004510   Section     1024  startup_stm32l496xx.o(HEAP)
    Heap_Mem                                 0x20004510   Data        1024  startup_stm32l496xx.o(HEAP)
    STACK                                    0x20004910   Section     2048  startup_stm32l496xx.o(STACK)
    Stack_Mem                                0x20004910   Data        2048  startup_stm32l496xx.o(STACK)
    __initial_sp                             0x20005110   Data           0  startup_stm32l496xx.o(STACK)

    Global Symbols

    Symbol Name                              Value     Ov Type        Size  Object(Section)

    BuildAttributes$$THM_ISAv4$E$P$D$K$B$S$7EM$VFPi3$EXTD16$VFPS$VFMA$PE$A:L22UL41UL21$X:L11$S22US41US21$IEEE1$IW$USESV6$~STKCKD$USESV7$~SHL$OSPACE$ROPI$EBA8$UX$STANDARDLIB$REQ8$PRES8$EABIv2 0x00000000   Number         0  anon$$obj.o ABSOLUTE
    __ARM_use_no_argv                        0x00000000   Number         0  main.o ABSOLUTE
    __ARM_exceptions_init                     - Undefined Weak Reference
    __alloca_initialize                       - Undefined Weak Reference
    __arm_fini_                               - Undefined Weak Reference
    __arm_preinit_                            - Undefined Weak Reference
    __cpp_initialize__aeabi_                  - Undefined Weak Reference
    __cxa_finalize                            - Undefined Weak Reference
    __rt_locale                               - Undefined Weak Reference
    __sigvec_lookup                           - Undefined Weak Reference
    _atexit_init                              - Undefined Weak Reference
    _call_atexit_fns                          - Undefined Weak Reference
    _clock_init                               - Undefined Weak Reference
    _fp_trap_init                             - Undefined Weak Reference
    _fp_trap_shutdown                         - Undefined Weak Reference
    _get_lc_collate                           - Undefined Weak Reference
    _get_lc_ctype                             - Undefined Weak Reference
    _get_lc_monetary                          - Undefined Weak Reference
    _get_lc_numeric                           - Undefined Weak Reference
    _get_lc_time                              - Undefined Weak Reference
    _getenv_init                              - Undefined Weak Reference
    _handle_redirection                       - Undefined Weak Reference
    _init_alloc                               - Undefined Weak Reference
    _init_user_alloc                          - Undefined Weak Reference
    _initio                                   - Undefined Weak Reference
    _rand_init                                - Undefined Weak Reference
    _signal_finish                            - Undefined Weak Reference
    _signal_init                              - Undefined Weak Reference
    _terminate_alloc                          - Undefined Weak Reference
    _terminate_user_alloc                     - Undefined Weak Reference
    _terminateio                              - Undefined Weak Reference
    __Vectors_Size                           0x000001ac   Number         0  startup_stm32l496xx.o ABSOLUTE
    __Vectors                                0x08000000   Data           4  startup_stm32l496xx.o(RESET)
    __Vectors_End                            0x080001ac   Data           0  startup_stm32l496xx.o(RESET)
    __main                                   0x080001ad   Thumb Code     8  __main.o(!!!main)
    __scatterload                            0x080001b5   Thumb Code     0  __scatter.o(!!!scatter)
    __scatterload_rt2                        0x080001b5   Thumb Code    44  __scatter.o(!!!scatter)
    __scatterload_rt2_thumb_only             0x080001b5   Thumb Code     0  __scatter.o(!!!scatter)
    __scatterload_null                       0x080001c3   Thumb Code     0  __scatter.o(!!!scatter)
    __scatterload_copy                       0x080001e9   Thumb Code    26  __scatter_copy.o(!!handler_copy)
    __scatterload_zeroinit                   0x08000205   Thumb Code    28  __scatter_zi.o(!!handler_zi)
    __rt_lib_init                            0x08000221   Thumb Code     0  libinit.o(.ARM.Collect$$libinit$$00000000)
    __rt_lib_init_fp_1                       0x08000223   Thumb Code     0  libinit2.o(.ARM.Collect$$libinit$$00000001)
    __rt_lib_init_alloca_1                   0x08000227   Thumb Code     0  libinit2.o(.ARM.Collect$$libinit$$0000002E)
    __rt_lib_init_argv_1                     0x08000227   Thumb Code     0  libinit2.o(.ARM.Collect$$libinit$$0000002C)
    __rt_lib_init_atexit_1                   0x08000227   Thumb Code     0  libinit2.o(.ARM.Collect$$libinit$$0000001B)
    __rt_lib_init_clock_1                    0x08000227   Thumb Code     0  libinit2.o(.ARM.Collect$$libinit$$00000021)
    __rt_lib_init_cpp_1                      0x08000227   Thumb Code     0  libinit2.o(.ARM.Collect$$libinit$$00000032)
    __rt_lib_init_exceptions_1               0x08000227   Thumb Code     0  libinit2.o(.ARM.Collect$$libinit$$00000030)
    __rt_lib_init_fp_trap_1                  0x08000227   Thumb Code     0  libinit2.o(.ARM.Collect$$libinit$$0000001F)
    __rt_lib_init_getenv_1                   0x08000227   Thumb Code     0  libinit2.o(.ARM.Collect$$libinit$$00000023)
    __rt_lib_init_heap_1                     0x08000227   Thumb Code     0  libinit2.o(.ARM.Collect$$libinit$$0000000A)
    __rt_lib_init_lc_collate_1               0x08000227   Thumb Code     0  libinit2.o(.ARM.Collect$$libinit$$00000011)
    __rt_lib_init_lc_ctype_1                 0x08000227   Thumb Code     0  libinit2.o(.ARM.Collect$$libinit$$00000013)
    __rt_lib_init_lc_monetary_1              0x08000227   Thumb Code     0  libinit2.o(.ARM.Collect$$libinit$$00000015)
    __rt_lib_init_lc_numeric_1               0x08000227   Thumb Code     0  libinit2.o(.ARM.Collect$$libinit$$00000017)
    __rt_lib_init_lc_time_1                  0x08000227   Thumb Code     0  libinit2.o(.ARM.Collect$$libinit$$00000019)
    __rt_lib_init_preinit_1                  0x08000227   Thumb Code     0  libinit2.o(.ARM.Collect$$libinit$$00000004)
    __rt_lib_init_rand_1                     0x08000227   Thumb Code     0  libinit2.o(.ARM.Collect$$libinit$$0000000E)
    __rt_lib_init_return                     0x08000227   Thumb Code     0  libinit2.o(.ARM.Collect$$libinit$$00000033)
    __rt_lib_init_signal_1                   0x08000227   Thumb Code     0  libinit2.o(.ARM.Collect$$libinit$$0000001D)
    __rt_lib_init_stdio_1                    0x08000227   Thumb Code     0  libinit2.o(.ARM.Collect$$libinit$$00000025)
    __rt_lib_init_user_alloc_1               0x08000227   Thumb Code     0  libinit2.o(.ARM.Collect$$libinit$$0000000C)
    __rt_lib_shutdown                        0x08000229   Thumb Code     0  libshutdown.o(.ARM.Collect$$libshutdown$$00000000)
    __rt_lib_shutdown_cpp_1                  0x0800022b   Thumb Code     0  libshutdown2.o(.ARM.Collect$$libshutdown$$00000004)
    __rt_lib_shutdown_fini_1                 0x0800022b   Thumb Code     0  libshutdown2.o(.ARM.Collect$$libshutdown$$00000002)
    __rt_lib_shutdown_fp_trap_1              0x0800022b   Thumb Code     0  libshutdown2.o(.ARM.Collect$$libshutdown$$00000009)
    __rt_lib_shutdown_heap_1                 0x0800022b   Thumb Code     0  libshutdown2.o(.ARM.Collect$$libshutdown$$00000011)
    __rt_lib_shutdown_return                 0x0800022b   Thumb Code     0  libshutdown2.o(.ARM.Collect$$libshutdown$$00000012)
    __rt_lib_shutdown_signal_1               0x0800022b   Thumb Code     0  libshutdown2.o(.ARM.Collect$$libshutdown$$0000000C)
    __rt_lib_shutdown_stdio_1                0x0800022b   Thumb Code     0  libshutdown2.o(.ARM.Collect$$libshutdown$$00000006)
    __rt_lib_shutdown_user_alloc_1           0x0800022b   Thumb Code     0  libshutdown2.o(.ARM.Collect$$libshutdown$$0000000E)
    __rt_entry                               0x0800022d   Thumb Code     0  __rtentry.o(.ARM.Collect$$rtentry$$00000000)
    __rt_entry_presh_1                       0x0800022d   Thumb Code     0  __rtentry2.o(.ARM.Collect$$rtentry$$00000002)
    __rt_entry_sh                            0x0800022d   Thumb Code     0  __rtentry4.o(.ARM.Collect$$rtentry$$00000004)
    __rt_entry_li                            0x08000233   Thumb Code     0  __rtentry2.o(.ARM.Collect$$rtentry$$0000000A)
    __rt_entry_postsh_1                      0x08000233   Thumb Code     0  __rtentry2.o(.ARM.Collect$$rtentry$$00000009)
    __rt_entry_main                          0x08000237   Thumb Code     0  __rtentry2.o(.ARM.Collect$$rtentry$$0000000D)
    __rt_entry_postli_1                      0x08000237   Thumb Code     0  __rtentry2.o(.ARM.Collect$$rtentry$$0000000C)
    __rt_exit                                0x0800023f   Thumb Code     0  rtexit.o(.ARM.Collect$$rtexit$$00000000)
    __rt_exit_ls                             0x08000241   Thumb Code     0  rtexit2.o(.ARM.Collect$$rtexit$$00000003)
    __rt_exit_prels_1                        0x08000241   Thumb Code     0  rtexit2.o(.ARM.Collect$$rtexit$$00000002)
    __rt_exit_exit                           0x08000245   Thumb Code     0  rtexit2.o(.ARM.Collect$$rtexit$$00000004)
    Reset_Handler                            0x0800024d   Thumb Code     8  startup_stm32l496xx.o(.text)
    SVC_Handler                              0x0800025f   Thumb Code     2  startup_stm32l496xx.o(.text)
    ADC1_2_IRQHandler                        0x08000267   Thumb Code     0  startup_stm32l496xx.o(.text)
    ADC3_IRQHandler                          0x08000267   Thumb Code     0  startup_stm32l496xx.o(.text)
    CAN1_RX0_IRQHandler                      0x08000267   Thumb Code     0  startup_stm32l496xx.o(.text)
    CAN1_RX1_IRQHandler                      0x08000267   Thumb Code     0  startup_stm32l496xx.o(.text)
    CAN1_SCE_IRQHandler                      0x08000267   Thumb Code     0  startup_stm32l496xx.o(.text)
    CAN1_TX_IRQHandler                       0x08000267   Thumb Code     0  startup_stm32l496xx.o(.text)
    CAN2_RX0_IRQHandler                      0x08000267   Thumb Code     0  startup_stm32l496xx.o(.text)
    CAN2_RX1_IRQHandler                      0x08000267   Thumb Code     0  startup_stm32l496xx.o(.text)
    CAN2_SCE_IRQHandler                      0x08000267   Thumb Code     0  startup_stm32l496xx.o(.text)
    CAN2_TX_IRQHandler                       0x08000267   Thumb Code     0  startup_stm32l496xx.o(.text)
    COMP_IRQHandler                          0x08000267   Thumb Code     0  startup_stm32l496xx.o(.text)
    CRS_IRQHandler                           0x08000267   Thumb Code     0  startup_stm32l496xx.o(.text)
    DCMI_IRQHandler                          0x08000267   Thumb Code     0  startup_stm32l496xx.o(.text)
    DFSDM1_FLT0_IRQHandler                   0x08000267   Thumb Code     0  startup_stm32l496xx.o(.text)
    DFSDM1_FLT1_IRQHandler                   0x08000267   Thumb Code     0  startup_stm32l496xx.o(.text)
    DFSDM1_FLT2_IRQHandler                   0x08000267   Thumb Code     0  startup_stm32l496xx.o(.text)
    DFSDM1_FLT3_IRQHandler                   0x08000267   Thumb Code     0  startup_stm32l496xx.o(.text)
    DMA1_Channel1_IRQHandler                 0x08000267   Thumb Code     0  startup_stm32l496xx.o(.text)
    DMA1_Channel2_IRQHandler                 0x08000267   Thumb Code     0  startup_stm32l496xx.o(.text)
    DMA1_Channel3_IRQHandler                 0x08000267   Thumb Code     0  startup_stm32l496xx.o(.text)
    DMA1_Channel4_IRQHandler                 0x08000267   Thumb Code     0  startup_stm32l496xx.o(.text)
    DMA1_Channel5_IRQHandler                 0x08000267   Thumb Code     0  startup_stm32l496xx.o(.text)
    DMA1_Channel6_IRQHandler                 0x08000267   Thumb Code     0  startup_stm32l496xx.o(.text)
    DMA1_Channel7_IRQHandler                 0x08000267   Thumb Code     0  startup_stm32l496xx.o(.text)
    DMA2D_IRQHandler                         0x08000267   Thumb Code     0  startup_stm32l496xx.o(.text)
    DMA2_Channel1_IRQHandler                 0x08000267   Thumb Code     0  startup_stm32l496xx.o(.text)
    DMA2_Channel2_IRQHandler                 0x08000267   Thumb Code     0  startup_stm32l496xx.o(.text)
    DMA2_Channel3_IRQHandler                 0x08000267   Thumb Code     0  startup_stm32l496xx.o(.text)
    DMA2_Channel4_IRQHandler                 0x08000267   Thumb Code     0  startup_stm32l496xx.o(.text)
    DMA2_Channel5_IRQHandler                 0x08000267   Thumb Code     0  startup_stm32l496xx.o(.text)
    DMA2_Channel6_IRQHandler                 0x08000267   Thumb Code     0  startup_stm32l496xx.o(.text)
    DMA2_Channel7_IRQHandler                 0x08000267   Thumb Code     0  startup_stm32l496xx.o(.text)
    EXTI0_IRQHandler                         0x08000267   Thumb Code     0  startup_stm32l496xx.o(.text)
    EXTI15_10_IRQHandler                     0x08000267   Thumb Code     0  startup_stm32l496xx.o(.text)
    EXTI1_IRQHandler                         0x08000267   Thumb Code     0  startup_stm32l496xx.o(.text)
    EXTI2_IRQHandler                         0x08000267   Thumb Code     0  startup_stm32l496xx.o(.text)
    EXTI3_IRQHandler                         0x08000267   Thumb Code     0  startup_stm32l496xx.o(.text)
    EXTI4_IRQHandler                         0x08000267   Thumb Code     0  startup_stm32l496xx.o(.text)
    EXTI9_5_IRQHandler                       0x08000267   Thumb Code     0  startup_stm32l496xx.o(.text)
    FLASH_IRQHandler                         0x08000267   Thumb Code     0  startup_stm32l496xx.o(.text)
    FMC_IRQHandler                           0x08000267   Thumb Code     0  startup_stm32l496xx.o(.text)
    FPU_IRQHandler                           0x08000267   Thumb Code     0  startup_stm32l496xx.o(.text)
    I2C1_ER_IRQHandler                       0x08000267   Thumb Code     0  startup_stm32l496xx.o(.text)
    I2C1_EV_IRQHandler                       0x08000267   Thumb Code     0  startup_stm32l496xx.o(.text)
    I2C2_ER_IRQHandler                       0x08000267   Thumb Code     0  startup_stm32l496xx.o(.text)
    I2C2_EV_IRQHandler                       0x08000267   Thumb Code     0  startup_stm32l496xx.o(.text)
    I2C3_ER_IRQHandler                       0x08000267   Thumb Code     0  startup_stm32l496xx.o(.text)
    I2C3_EV_IRQHandler                       0x08000267   Thumb Code     0  startup_stm32l496xx.o(.text)
    I2C4_ER_IRQHandler                       0x08000267   Thumb Code     0  startup_stm32l496xx.o(.text)
    I2C4_EV_IRQHandler                       0x08000267   Thumb Code     0  startup_stm32l496xx.o(.text)
    LCD_IRQHandler                           0x08000267   Thumb Code     0  startup_stm32l496xx.o(.text)
    LPTIM1_IRQHandler                        0x08000267   Thumb Code     0  startup_stm32l496xx.o(.text)
    LPTIM2_IRQHandler                        0x08000267   Thumb Code     0  startup_stm32l496xx.o(.text)
    OTG_FS_IRQHandler                        0x08000267   Thumb Code     0  startup_stm32l496xx.o(.text)
    PVD_PVM_IRQHandler                       0x08000267   Thumb Code     0  startup_stm32l496xx.o(.text)
    QUADSPI_IRQHandler                       0x08000267   Thumb Code     0  startup_stm32l496xx.o(.text)
    RCC_IRQHandler                           0x08000267   Thumb Code     0  startup_stm32l496xx.o(.text)
    RNG_IRQHandler                           0x08000267   Thumb Code     0  startup_stm32l496xx.o(.text)
    RTC_Alarm_IRQHandler                     0x08000267   Thumb Code     0  startup_stm32l496xx.o(.text)
    RTC_WKUP_IRQHandler                      0x08000267   Thumb Code     0  startup_stm32l496xx.o(.text)
    SAI1_IRQHandler                          0x08000267   Thumb Code     0  startup_stm32l496xx.o(.text)
    SAI2_IRQHandler                          0x08000267   Thumb Code     0  startup_stm32l496xx.o(.text)
    SDMMC1_IRQHandler                        0x08000267   Thumb Code     0  startup_stm32l496xx.o(.text)
    SPI1_IRQHandler                          0x08000267   Thumb Code     0  startup_stm32l496xx.o(.text)
    SPI2_IRQHandler                          0x08000267   Thumb Code     0  startup_stm32l496xx.o(.text)
    SPI3_IRQHandler                          0x08000267   Thumb Code     0  startup_stm32l496xx.o(.text)
    SWPMI1_IRQHandler                        0x08000267   Thumb Code     0  startup_stm32l496xx.o(.text)
    TAMP_STAMP_IRQHandler                    0x08000267   Thumb Code     0  startup_stm32l496xx.o(.text)
    TIM1_BRK_TIM15_IRQHandler                0x08000267   Thumb Code     0  startup_stm32l496xx.o(.text)
    TIM1_CC_IRQHandler                       0x08000267   Thumb Code     0  startup_stm32l496xx.o(.text)
    TIM1_TRG_COM_TIM17_IRQHandler            0x08000267   Thumb Code     0  startup_stm32l496xx.o(.text)
    TIM1_UP_TIM16_IRQHandler                 0x08000267   Thumb Code     0  startup_stm32l496xx.o(.text)
    TIM2_IRQHandler                          0x08000267   Thumb Code     0  startup_stm32l496xx.o(.text)
    TIM3_IRQHandler                          0x08000267   Thumb Code     0  startup_stm32l496xx.o(.text)
    TIM4_IRQHandler                          0x08000267   Thumb Code     0  startup_stm32l496xx.o(.text)
    TIM5_IRQHandler                          0x08000267   Thumb Code     0  startup_stm32l496xx.o(.text)
    TIM6_DAC_IRQHandler                      0x08000267   Thumb Code     0  startup_stm32l496xx.o(.text)
    TIM7_IRQHandler                          0x08000267   Thumb Code     0  startup_stm32l496xx.o(.text)
    TIM8_BRK_IRQHandler                      0x08000267   Thumb Code     0  startup_stm32l496xx.o(.text)
    TIM8_CC_IRQHandler                       0x08000267   Thumb Code     0  startup_stm32l496xx.o(.text)
    TIM8_TRG_COM_IRQHandler                  0x08000267   Thumb Code     0  startup_stm32l496xx.o(.text)
    TIM8_UP_IRQHandler                       0x08000267   Thumb Code     0  startup_stm32l496xx.o(.text)
    TSC_IRQHandler                           0x08000267   Thumb Code     0  startup_stm32l496xx.o(.text)
    UART4_IRQHandler                         0x08000267   Thumb Code     0  startup_stm32l496xx.o(.text)
    UART5_IRQHandler                         0x08000267   Thumb Code     0  startup_stm32l496xx.o(.text)
    USART1_IRQHandler                        0x08000267   Thumb Code     0  startup_stm32l496xx.o(.text)
    USART2_IRQHandler                        0x08000267   Thumb Code     0  startup_stm32l496xx.o(.text)
    USART3_IRQHandler                        0x08000267   Thumb Code     0  startup_stm32l496xx.o(.text)
    WWDG_IRQHandler                          0x08000267   Thumb Code     0  startup_stm32l496xx.o(.text)
    __user_initial_stackheap                 0x08000269   Thumb Code     0  startup_stm32l496xx.o(.text)
    rt_hw_interrupt_disable                  0x0800028d   Thumb Code     8  context_rvds.o(.text)
    rt_hw_interrupt_enable                   0x08000295   Thumb Code     6  context_rvds.o(.text)
    rt_hw_context_switch                     0x0800029b   Thumb Code    32  context_rvds.o(.text)
    rt_hw_context_switch_interrupt           0x0800029b   Thumb Code     0  context_rvds.o(.text)
    PendSV_Handler                           0x080002bb   Thumb Code   108  context_rvds.o(.text)
    rt_hw_context_switch_to                  0x08000327   Thumb Code    68  context_rvds.o(.text)
    rt_hw_interrupt_thread_switch            0x0800036b   Thumb Code     2  context_rvds.o(.text)
    HardFault_Handler                        0x0800036d   Thumb Code    56  context_rvds.o(.text)
    __aeabi_uldivmod                         0x080003cd   Thumb Code     0  lludivv7m.o(.text)
    _ll_udiv                                 0x080003cd   Thumb Code   238  lludivv7m.o(.text)
    strcpy                                   0x080004bb   Thumb Code    72  strcpy.o(.text)
    strlen                                   0x08000503   Thumb Code    62  strlen.o(.text)
    strncmp                                  0x08000541   Thumb Code   150  strncmp.o(.text)
    strcat                                   0x080005d7   Thumb Code    24  strcat.o(.text)
    __aeabi_memcpy4                          0x080005ef   Thumb Code     0  rt_memcpy_w.o(.text)
    __aeabi_memcpy8                          0x080005ef   Thumb Code     0  rt_memcpy_w.o(.text)
    __rt_memcpy_w                            0x080005ef   Thumb Code   100  rt_memcpy_w.o(.text)
    _memcpy_lastbytes_aligned                0x08000637   Thumb Code     0  rt_memcpy_w.o(.text)
    __aeabi_memclr                           0x08000653   Thumb Code     0  rt_memclr.o(.text)
    __rt_memclr                              0x08000653   Thumb Code    68  rt_memclr.o(.text)
    _memset                                  0x08000657   Thumb Code     0  rt_memclr.o(.text)
    __aeabi_memclr4                          0x08000697   Thumb Code     0  rt_memclr_w.o(.text)
    __aeabi_memclr8                          0x08000697   Thumb Code     0  rt_memclr_w.o(.text)
    __rt_memclr_w                            0x08000697   Thumb Code    78  rt_memclr_w.o(.text)
    _memset_w                                0x0800069b   Thumb Code     0  rt_memclr_w.o(.text)
    strncpy                                  0x080006e5   Thumb Code    86  strncpy.o(.text)
    __use_two_region_memory                  0x0800073b   Thumb Code     2  heapauxi.o(.text)
    __rt_heap_escrow$2region                 0x0800073d   Thumb Code     2  heapauxi.o(.text)
    __rt_heap_expand$2region                 0x0800073f   Thumb Code     2  heapauxi.o(.text)
    __user_setup_stackheap                   0x08000741   Thumb Code    74  sys_stackheap_outer.o(.text)
    exit                                     0x0800078b   Thumb Code    18  exit.o(.text)
    __user_libspace                          0x0800079d   Thumb Code     8  libspace.o(.text)
    __user_perproc_libspace                  0x0800079d   Thumb Code     0  libspace.o(.text)
    __user_perthread_libspace                0x0800079d   Thumb Code     0  libspace.o(.text)
    _sys_exit                                0x080007a5   Thumb Code     8  sys_exit.o(.text)
    __I$use$semihosting                      0x080007b1   Thumb Code     0  use_no_semi.o(.text)
    __use_no_semihosting_swi                 0x080007b1   Thumb Code     2  use_no_semi.o(.text)
    __semihosting_library_function           0x080007b3   Thumb Code     0  indicate_semi.o(.text)
    main                                     0x080007b3   Thumb Code    10  components.o(i.$Sub$$main)
    BusFault_Handler                         0x080008b1   Thumb Code     2  stm32l4xx_it.o(i.BusFault_Handler)
    Button_Attach                            0x080008b5   Thumb Code    32  button.o(i.Button_Attach)
    Button_Create                            0x080008d5   Thumb Code   182  button.o(i.Button_Create)
    Button_Cycle_Process                     0x080009c9   Thumb Code   368  button.o(i.Button_Cycle_Process)
    Button_Process                           0x08000b39   Thumb Code    22  button.o(i.Button_Process)
    DebugMon_Handler                         0x08000b55   Thumb Code     2  stm32l4xx_it.o(i.DebugMon_Handler)
    Error_Handler                            0x08000b57   Thumb Code     4  main.o(i.Error_Handler)
    HAL_DMA_Abort                            0x08000b5b   Thumb Code    74  stm32l4xx_hal_dma.o(i.HAL_DMA_Abort)
    HAL_DMA_Abort_IT                         0x08000ba5   Thumb Code    78  stm32l4xx_hal_dma.o(i.HAL_DMA_Abort_IT)
    HAL_GPIO_Init                            0x08000bf5   Thumb Code   552  stm32l4xx_hal_gpio.o(i.HAL_GPIO_Init)
    HAL_GPIO_ReadPin                         0x08000e4b   Thumb Code    10  stm32l4xx_hal_gpio.o(i.HAL_GPIO_ReadPin)
    HAL_GPIO_TogglePin                       0x08000e55   Thumb Code    16  stm32l4xx_hal_gpio.o(i.HAL_GPIO_TogglePin)
    HAL_GPIO_WritePin                        0x08000e65   Thumb Code    10  stm32l4xx_hal_gpio.o(i.HAL_GPIO_WritePin)
    HAL_GetTick                              0x08000e71   Thumb Code     6  stm32l4xx_hal.o(i.HAL_GetTick)
    HAL_Init                                 0x08000e7d   Thumb Code    30  stm32l4xx_hal.o(i.HAL_Init)
    HAL_InitTick                             0x08000e9d   Thumb Code    58  stm32l4xx_hal.o(i.HAL_InitTick)
    HAL_MspInit                              0x08000ee1   Thumb Code    38  stm32l4xx_hal_msp.o(i.HAL_MspInit)
    HAL_NVIC_EnableIRQ                       0x08000f0d   Thumb Code    26  stm32l4xx_hal_cortex.o(i.HAL_NVIC_EnableIRQ)
    HAL_NVIC_SetPriority                     0x08000f29   Thumb Code    60  stm32l4xx_hal_cortex.o(i.HAL_NVIC_SetPriority)
    HAL_NVIC_SetPriorityGrouping             0x08000f69   Thumb Code    26  stm32l4xx_hal_cortex.o(i.HAL_NVIC_SetPriorityGrouping)
    HAL_PWREx_ControlVoltageScaling          0x08000f8d   Thumb Code    90  stm32l4xx_hal_pwr_ex.o(i.HAL_PWREx_ControlVoltageScaling)
    HAL_PWREx_GetVoltageRange                0x08000ff5   Thumb Code    10  stm32l4xx_hal_pwr_ex.o(i.HAL_PWREx_GetVoltageRange)
    HAL_RCCEx_PeriphCLKConfig                0x08001005   Thumb Code   954  stm32l4xx_hal_rcc_ex.o(i.HAL_RCCEx_PeriphCLKConfig)
    HAL_RCC_ClockConfig                      0x080013d1   Thumb Code   304  stm32l4xx_hal_rcc.o(i.HAL_RCC_ClockConfig)
    HAL_RCC_GetHCLKFreq                      0x08001515   Thumb Code     6  stm32l4xx_hal_rcc.o(i.HAL_RCC_GetHCLKFreq)
    HAL_RCC_GetPCLK1Freq                     0x08001521   Thumb Code    24  stm32l4xx_hal_rcc.o(i.HAL_RCC_GetPCLK1Freq)
    HAL_RCC_GetPCLK2Freq                     0x08001545   Thumb Code    24  stm32l4xx_hal_rcc.o(i.HAL_RCC_GetPCLK2Freq)
    HAL_RCC_GetSysClockFreq                  0x08001569   Thumb Code   150  stm32l4xx_hal_rcc.o(i.HAL_RCC_GetSysClockFreq)
    HAL_RCC_OscConfig                        0x0800160d   Thumb Code  1374  stm32l4xx_hal_rcc.o(i.HAL_RCC_OscConfig)
    HAL_SYSTICK_Config                       0x08001b75   Thumb Code    40  stm32l4xx_hal_cortex.o(i.HAL_SYSTICK_Config)
    HAL_UARTEx_RxEventCallback               0x08001b9d   Thumb Code     2  stm32l4xx_hal_uart.o(i.HAL_UARTEx_RxEventCallback)
    HAL_UARTEx_WakeupCallback                0x08001b9f   Thumb Code     2  stm32l4xx_hal_uart_ex.o(i.HAL_UARTEx_WakeupCallback)
    HAL_UART_ErrorCallback                   0x08001ba1   Thumb Code     2  stm32l4xx_hal_uart.o(i.HAL_UART_ErrorCallback)
    HAL_UART_IRQHandler                      0x08001ba5   Thumb Code   652  stm32l4xx_hal_uart.o(i.HAL_UART_IRQHandler)
    HAL_UART_Init                            0x08001e39   Thumb Code   102  stm32l4xx_hal_uart.o(i.HAL_UART_Init)
    HAL_UART_MspInit                         0x08001ea1   Thumb Code   132  usart.o(i.HAL_UART_MspInit)
    HAL_UART_Transmit                        0x08001f31   Thumb Code   182  stm32l4xx_hal_uart.o(i.HAL_UART_Transmit)
    HAL_UART_TxCpltCallback                  0x08001fe7   Thumb Code     2  stm32l4xx_hal_uart.o(i.HAL_UART_TxCpltCallback)
    LPUART1_IRQHandler                       0x08001fe9   Thumb Code     6  stm32l4xx_it.o(i.LPUART1_IRQHandler)
    MX_GPIO_Init                             0x08001ff5   Thumb Code   180  gpio.o(i.MX_GPIO_Init)
    MemManage_Handler                        0x080020b5   Thumb Code     2  stm32l4xx_it.o(i.MemManage_Handler)
    NMI_Handler                              0x080020b7   Thumb Code     2  stm32l4xx_it.o(i.NMI_Handler)
    Search_Button                            0x08002369   Thumb Code    30  button.o(i.Search_Button)
    SysTick_Handler                          0x080023ad   Thumb Code    18  board.o(i.SysTick_Handler)
    SystemClock_Config                       0x080023bf   Thumb Code   108  main.o(i.SystemClock_Config)
    SystemCoreClockUpdate                    0x0800242d   Thumb Code   152  system_stm32l4xx.o(i.SystemCoreClockUpdate)
    SystemInit                               0x080024d5   Thumb Code    12  system_stm32l4xx.o(i.SystemInit)
    UART_AdvFeatureConfig                    0x080024e5   Thumb Code   200  stm32l4xx_hal_uart.o(i.UART_AdvFeatureConfig)
    UART_CheckIdleState                      0x080025ad   Thumb Code    92  stm32l4xx_hal_uart.o(i.UART_CheckIdleState)
    UART_SetConfig                           0x08002669   Thumb Code   542  stm32l4xx_hal_uart.o(i.UART_SetConfig)
    UART_WaitOnFlagUntilTimeout              0x080028b1   Thumb Code   198  stm32l4xx_hal_uart.o(i.UART_WaitOnFlagUntilTimeout)
    UsageFault_Handler                       0x08002977   Thumb Code     2  stm32l4xx_it.o(i.UsageFault_Handler)
    __rt_ffs                                 0x08002999   Thumb Code    64  kservice.o(i.__rt_ffs)
    cmd_free                                 0x08002c85   Thumb Code    10  msh.o(i.cmd_free)
    cmd_ps                                   0x08002c8f   Thumb Code    10  msh.o(i.cmd_ps)
    finsh_get_prompt                         0x08002c99   Thumb Code    68  shell.o(i.finsh_get_prompt)
    finsh_set_prompt_mode                    0x08002cf9   Thumb Code    34  shell.o(i.finsh_set_prompt_mode)
    finsh_system_function_init               0x08002d39   Thumb Code     8  shell.o(i.finsh_system_function_init)
    finsh_system_init                        0x08002d45   Thumb Code    90  shell.o(i.finsh_system_init)
    finsh_thread_entry                       0x08002dd9   Thumb Code   612  shell.o(i.finsh_thread_entry)
    hello                                    0x080030dd   Thumb Code    12  cmd.o(i.hello)
    list                                     0x080030fd   Thumb Code    50  cmd.o(i.list)
    list_mem                                 0x080031ed   Thumb Code    32  mem.o(i.list_mem)
    list_sem                                 0x08003259   Thumb Code   214  cmd.o(i.list_sem)
    list_thread                              0x08003399   Thumb Code   250  cmd.o(i.list_thread)
    list_timer                               0x08003551   Thumb Code   160  cmd.o(i.list_timer)
    $Super$$main                             0x08003691   Thumb Code    26  main.o(i.main)
    main_thread_entry                        0x080036b1   Thumb Code    14  components.o(i.main_thread_entry)
    msh_auto_complete                        0x08003799   Thumb Code   150  msh.o(i.msh_auto_complete)
    msh_exec                                 0x08003845   Thumb Code    74  msh.o(i.msh_exec)
    msh_help                                 0x080038a9   Thumb Code    58  msh.o(i.msh_help)
    msh_is_used                              0x08003921   Thumb Code     4  msh.o(i.msh_is_used)
    rt_application_init                      0x08003c2d   Thumb Code    48  components.o(i.rt_application_init)
    rt_assert_handler                        0x08003c7d   Thumb Code    46  kservice.o(i.rt_assert_handler)
    rt_calloc                                0x08003ce9   Thumb Code    26  mem.o(i.rt_calloc)
    rt_components_board_init                 0x08003d05   Thumb Code    36  components.o(i.rt_components_board_init)
    rt_components_init                       0x08003d4d   Thumb Code    42  components.o(i.rt_components_init)
    rt_enter_critical                        0x08003dbd   Thumb Code    22  scheduler.o(i.rt_enter_critical)
    rt_exit_critical                         0x08003dd9   Thumb Code    52  scheduler.o(i.rt_exit_critical)
    rt_free                                  0x08003e11   Thumb Code   222  mem.o(i.rt_free)
    rt_heap_begin_get                        0x08003fd1   Thumb Code     4  board.o(i.rt_heap_begin_get)
    rt_heap_end_get                          0x08003fd9   Thumb Code     4  board.o(i.rt_heap_end_get)
    rt_hw_board_init                         0x08003fe1   Thumb Code    58  board.o(i.rt_hw_board_init)
    rt_hw_console_getchar                    0x0800401d   Thumb Code    34  board.o(i.rt_hw_console_getchar)
    rt_hw_console_output                     0x08004045   Thumb Code    66  board.o(i.rt_hw_console_output)
    rt_hw_hard_fault_exception               0x0800408d   Thumb Code   198  cpuport.o(i.rt_hw_hard_fault_exception)
    rt_hw_stack_init                         0x080042a5   Thumb Code    54  cpuport.o(i.rt_hw_stack_init)
    rt_interrupt_enter                       0x080042e1   Thumb Code    22  irq.o(i.rt_interrupt_enter)
    rt_interrupt_get_nest                    0x080042fd   Thumb Code    18  irq.o(i.rt_interrupt_get_nest)
    rt_interrupt_leave                       0x08004315   Thumb Code    22  irq.o(i.rt_interrupt_leave)
    rt_kprintf                               0x08004331   Thumb Code    30  kservice.o(i.rt_kprintf)
    rt_malloc                                0x08004461   Thumb Code   340  mem.o(i.rt_malloc)
    rt_memmove                               0x0800464d   Thumb Code    50  kservice.o(i.rt_memmove)
    rt_memset                                0x0800467f   Thumb Code    18  kservice.o(i.rt_memset)
    rt_object_allocate                       0x08004691   Thumb Code   134  object.o(i.rt_object_allocate)
    rt_object_delete                         0x08004761   Thumb Code    70  object.o(i.rt_object_delete)
    rt_object_detach                         0x080047ed   Thumb Code    46  object.o(i.rt_object_detach)
    rt_object_get_information                0x08004835   Thumb Code    30  object.o(i.rt_object_get_information)
    rt_object_get_type                       0x08004859   Thumb Code    26  object.o(i.rt_object_get_type)
    rt_object_init                           0x0800488d   Thumb Code   120  object.o(i.rt_object_init)
    rt_object_is_systemobject                0x08004931   Thumb Code    32  object.o(i.rt_object_is_systemobject)
    rt_schedule                              0x08004979   Thumb Code    76  scheduler.o(i.rt_schedule)
    rt_schedule_insert_thread                0x080049d1   Thumb Code    84  scheduler.o(i.rt_schedule_insert_thread)
    rt_schedule_remove_thread                0x08004a45   Thumb Code    78  scheduler.o(i.rt_schedule_remove_thread)
    rt_sem_init                              0x08004ab5   Thumb Code    68  ipc.o(i.rt_sem_init)
    rt_sem_release                           0x08004b21   Thumb Code   110  ipc.o(i.rt_sem_release)
    rt_sem_take                              0x08004ba9   Thumb Code   286  ipc.o(i.rt_sem_take)
    rt_show_version                          0x08004d45   Thumb Code    40  kservice.o(i.rt_show_version)
    rt_strlen                                0x08004df5   Thumb Code    16  kservice.o(i.rt_strlen)
    rt_strncpy                               0x08004e05   Thumb Code    38  kservice.o(i.rt_strncpy)
    rt_system_heap_init                      0x08004e2d   Thumb Code   140  mem.o(i.rt_system_heap_init)
    rt_system_scheduler_init                 0x08004f35   Thumb Code    44  scheduler.o(i.rt_system_scheduler_init)
    rt_system_scheduler_start                0x08004f69   Thumb Code    32  scheduler.o(i.rt_system_scheduler_start)
    rt_system_timer_init                     0x08004f91   Thumb Code     8  timer.o(i.rt_system_timer_init)
    rt_system_timer_thread_init              0x08004f9d   Thumb Code     2  timer.o(i.rt_system_timer_thread_init)
    rt_thread_create                         0x08004f9f   Thumb Code    72  thread.o(i.rt_thread_create)
    rt_thread_exit                           0x08004fe9   Thumb Code    82  thread.o(i.rt_thread_exit)
    rt_thread_idle_excute                    0x0800504d   Thumb Code   102  idle.o(i.rt_thread_idle_excute)
    rt_thread_idle_init                      0x080050e9   Thumb Code    40  idle.o(i.rt_thread_idle_init)
    rt_thread_init                           0x08005121   Thumb Code    80  thread.o(i.rt_thread_init)
    rt_thread_mdelay                         0x080051a7   Thumb Code    14  thread.o(i.rt_thread_mdelay)
    rt_thread_resume                         0x080051b5   Thumb Code    96  thread.o(i.rt_thread_resume)
    rt_thread_self                           0x08005231   Thumb Code     6  thread.o(i.rt_thread_self)
    rt_thread_sleep                          0x0800523d   Thumb Code    96  thread.o(i.rt_thread_sleep)
    rt_thread_startup                        0x080052bd   Thumb Code   100  thread.o(i.rt_thread_startup)
    rt_thread_suspend                        0x08005379   Thumb Code   102  thread.o(i.rt_thread_suspend)
    rt_thread_timeout                        0x080053fd   Thumb Code    92  thread.o(i.rt_thread_timeout)
    rt_thread_yield                          0x080054b1   Thumb Code    86  thread.o(i.rt_thread_yield)
    rt_tick_from_millisecond                 0x08005511   Thumb Code    50  clock.o(i.rt_tick_from_millisecond)
    rt_tick_get                              0x08005545   Thumb Code     6  clock.o(i.rt_tick_get)
    rt_tick_increase                         0x08005551   Thumb Code    38  clock.o(i.rt_tick_increase)
    rt_timer_check                           0x0800557d   Thumb Code   136  timer.o(i.rt_timer_check)
    rt_timer_control                         0x08005609   Thumb Code   108  timer.o(i.rt_timer_control)
    rt_timer_detach                          0x080056c9   Thumb Code    90  timer.o(i.rt_timer_detach)
    rt_timer_init                            0x080057a5   Thumb Code    56  timer.o(i.rt_timer_init)
    rt_timer_start                           0x080057f5   Thumb Code   180  timer.o(i.rt_timer_start)
    rt_timer_stop                            0x08005925   Thumb Code    82  timer.o(i.rt_timer_stop)
    rt_user_thread_entry                     0x080059cd   Thumb Code    82  rt_user_task.o(i.rt_user_thread_entry)
    rt_vsnprintf                             0x08005a9d   Thumb Code   634  kservice.o(i.rt_vsnprintf)
    rtthread_startup                         0x08005d37   Thumb Code    42  components.o(i.rtthread_startup)
    version                                  0x08005e8d   Thumb Code    10  cmd.o(i.version)
    _fp_init                                 0x08005e97   Thumb Code    10  fpinit.o(x$fpl$fpinit)
    __fplib_config_fpu_vfp                   0x08005e9f   Thumb Code     0  fpinit.o(x$fpl$fpinit)
    __fplib_config_pureend_doubles           0x08005e9f   Thumb Code     0  fpinit.o(x$fpl$fpinit)
    AHBPrescTable                            0x08005ea0   Data          16  system_stm32l4xx.o(.constdata)
    MSIRangeTable                            0x08005eb0   Data          48  system_stm32l4xx.o(.constdata)
    APBPrescTable                            0x08005ee0   Data           8  system_stm32l4xx.o(.constdata)
    __rti_rti_start_name                     0x08005ee8   Data          10  components.o(.constdata)
    __rti_rti_board_start_name               0x08005ef2   Data          16  components.o(.constdata)
    __rti_rti_board_end_name                 0x08005f02   Data          14  components.o(.constdata)
    __rti_rti_end_name                       0x08005f10   Data           8  components.o(.constdata)
    __lowest_bit_bitmap                      0x08005fa2   Data         256  kservice.o(.constdata)
    __rti_uart_init_name                     0x080062d0   Data          10  board.o(.constdata)
    __rti_finsh_system_init_name             0x080062e8   Data          18  shell.o(.constdata)
    __fsym_list_mem_name                     0x080065ec   Data           9  mem.o(.rodata.name)
    __fsym_list_mem_desc                     0x080065f5   Data          30  mem.o(.rodata.name)
    __fsym_hello_name                        0x08006613   Data           6  cmd.o(.rodata.name)
    __fsym_hello_desc                        0x08006619   Data          16  cmd.o(.rodata.name)
    __fsym_version_name                      0x08006629   Data           8  cmd.o(.rodata.name)
    __fsym_version_desc                      0x08006631   Data          35  cmd.o(.rodata.name)
    __fsym___cmd_version_name                0x08006654   Data          14  cmd.o(.rodata.name)
    __fsym___cmd_version_desc                0x08006662   Data          35  cmd.o(.rodata.name)
    __fsym_list_thread_name                  0x08006685   Data          12  cmd.o(.rodata.name)
    __fsym_list_thread_desc                  0x08006691   Data          12  cmd.o(.rodata.name)
    __fsym___cmd_list_thread_name            0x0800669d   Data          18  cmd.o(.rodata.name)
    __fsym___cmd_list_thread_desc            0x080066af   Data          12  cmd.o(.rodata.name)
    __fsym_list_sem_name                     0x080066bb   Data           9  cmd.o(.rodata.name)
    __fsym_list_sem_desc                     0x080066c4   Data          25  cmd.o(.rodata.name)
    __fsym___cmd_list_sem_name               0x080066dd   Data          15  cmd.o(.rodata.name)
    __fsym___cmd_list_sem_desc               0x080066ec   Data          25  cmd.o(.rodata.name)
    __fsym_list_timer_name                   0x08006705   Data          11  cmd.o(.rodata.name)
    __fsym_list_timer_desc                   0x08006710   Data          21  cmd.o(.rodata.name)
    __fsym___cmd_list_timer_name             0x08006725   Data          17  cmd.o(.rodata.name)
    __fsym___cmd_list_timer_desc             0x08006736   Data          21  cmd.o(.rodata.name)
    __fsym_list_name                         0x0800674b   Data           5  cmd.o(.rodata.name)
    __fsym_list_desc                         0x08006750   Data          26  cmd.o(.rodata.name)
    __fsym___cmd_help_name                   0x0800676a   Data          11  msh.o(.rodata.name)
    __fsym___cmd_help_desc                   0x08006775   Data          22  msh.o(.rodata.name)
    __fsym___cmd_ps_name                     0x0800678b   Data           9  msh.o(.rodata.name)
    __fsym___cmd_ps_desc                     0x08006794   Data          28  msh.o(.rodata.name)
    __fsym___cmd_free_name                   0x080067b0   Data          11  msh.o(.rodata.name)
    __fsym___cmd_free_desc                   0x080067bb   Data          37  msh.o(.rodata.name)
    __rt_init_desc_rti_start                 0x080067e0   Data           8  components.o(.rti_fn.0)
    __rt_init_desc_rti_board_start           0x080067e8   Data           8  components.o(.rti_fn.0.end)
    __rt_init_desc_uart_init                 0x080067f0   Data           8  board.o(.rti_fn.1)
    __rt_init_desc_rti_board_end             0x080067f8   Data           8  components.o(.rti_fn.1.end)
    __rt_init_desc_finsh_system_init         0x08006800   Data           8  shell.o(.rti_fn.6)
    __rt_init_desc_rti_end                   0x08006808   Data           8  components.o(.rti_fn.6.end)
    FSymTab$$Base                            0x08006810   Number         0  mem.o(FSymTab)
    __fsym_list_mem                          0x08006810   Data          12  mem.o(FSymTab)
    __fsym_hello                             0x0800681c   Data          12  cmd.o(FSymTab)
    __fsym_version                           0x08006828   Data          12  cmd.o(FSymTab)
    __fsym___cmd_version                     0x08006834   Data          12  cmd.o(FSymTab)
    __fsym_list_thread                       0x08006840   Data          12  cmd.o(FSymTab)
    __fsym___cmd_list_thread                 0x0800684c   Data          12  cmd.o(FSymTab)
    __fsym_list_sem                          0x08006858   Data          12  cmd.o(FSymTab)
    __fsym___cmd_list_sem                    0x08006864   Data          12  cmd.o(FSymTab)
    __fsym_list_timer                        0x08006870   Data          12  cmd.o(FSymTab)
    __fsym___cmd_list_timer                  0x0800687c   Data          12  cmd.o(FSymTab)
    __fsym_list                              0x08006888   Data          12  cmd.o(FSymTab)
    __fsym___cmd_help                        0x08006894   Data          12  msh.o(FSymTab)
    __fsym___cmd_ps                          0x080068a0   Data          12  msh.o(FSymTab)
    __fsym___cmd_free                        0x080068ac   Data          12  msh.o(FSymTab)
    FSymTab$$Limit                           0x080068b8   Number         0  msh.o(FSymTab)
    Region$$Table$$Base                      0x080068b8   Number         0  anon$$obj.o(Region$$Table)
    Region$$Table$$Limit                     0x080068d8   Number         0  anon$$obj.o(Region$$Table)
    uwTickFreq                               0x20000008   Data           1  stm32l4xx_hal.o(.data)
    uwTickPrio                               0x2000000c   Data           4  stm32l4xx_hal.o(.data)
    uwTick                                   0x20000010   Data           4  stm32l4xx_hal.o(.data)
    SystemCoreClock                          0x20000014   Data           4  system_stm32l4xx.o(.data)
    rt_interrupt_nest                        0x2000001c   Data           1  irq.o(.data)
    rt_assert_hook                           0x20000024   Data           4  kservice.o(.data)
    rt_current_priority                      0x20000070   Data           1  scheduler.o(.data)
    rt_current_thread                        0x20000074   Data           4  scheduler.o(.data)
    rt_thread_ready_priority_group           0x20000078   Data           4  scheduler.o(.data)
    rt_thread_defunct                        0x2000007c   Data           8  scheduler.o(.data)
    rt_interrupt_from_thread                 0x20000094   Data           4  cpuport.o(.data)
    rt_interrupt_to_thread                   0x20000098   Data           4  cpuport.o(.data)
    rt_thread_switch_interrupt_flag          0x2000009c   Data           4  cpuport.o(.data)
    _syscall_table_begin                     0x200000a0   Data           4  shell.o(.data)
    _syscall_table_end                       0x200000a4   Data           4  shell.o(.data)
    _sysvar_table_begin                      0x200000a8   Data           4  shell.o(.data)
    _sysvar_table_end                        0x200000ac   Data           4  shell.o(.data)
    shell                                    0x200000b4   Data           4  shell.o(.data)
    Button1                                  0x200000b8   Data          80  rt_user_task.o(.bss)
    hlpuart1                                 0x20000108   Data         132  usart.o(.bss)
    rt_thread_priority_table                 0x20000524   Data         256  scheduler.o(.bss)
    __libspace_start                         0x200044ac   Data          96  libspace.o(.bss)
    __temporary_stack_top$libspace           0x2000450c   Data           0  libspace.o(.bss)



==============================================================================

Memory Map of the image

  Image Entry point : 0x080001ad

  Load Region LR_IROM1 (Base: 0x08000000, Size: 0x00006990, Max: 0x00100000, ABSOLUTE)

    Execution Region ER_IROM1 (Exec base: 0x08000000, Load base: 0x08000000, Size: 0x000068d8, Max: 0x00100000, ABSOLUTE)

    Exec Addr    Load Addr    Size         Type   Attr      Idx    E Section Name        Object

    0x08000000   0x08000000   0x000001ac   Data   RO            3    RESET               startup_stm32l496xx.o
    0x080001ac   0x080001ac   0x00000008   Code   RO         4395  * !!!main             c_w.l(__main.o)
    0x080001b4   0x080001b4   0x00000034   Code   RO         4564    !!!scatter          c_w.l(__scatter.o)
    0x080001e8   0x080001e8   0x0000001a   Code   RO         4566    !!handler_copy      c_w.l(__scatter_copy.o)
    0x08000202   0x08000202   0x00000002   PAD
    0x08000204   0x08000204   0x0000001c   Code   RO         4568    !!handler_zi        c_w.l(__scatter_zi.o)
    0x08000220   0x08000220   0x00000002   Code   RO         4432    .ARM.Collect$$libinit$$00000000  c_w.l(libinit.o)
    0x08000222   0x08000222   0x00000004   Code   RO         4444    .ARM.Collect$$libinit$$00000001  c_w.l(libinit2.o)
    0x08000226   0x08000226   0x00000000   Code   RO         4447    .ARM.Collect$$libinit$$00000004  c_w.l(libinit2.o)
    0x08000226   0x08000226   0x00000000   Code   RO         4450    .ARM.Collect$$libinit$$0000000A  c_w.l(libinit2.o)
    0x08000226   0x08000226   0x00000000   Code   RO         4452    .ARM.Collect$$libinit$$0000000C  c_w.l(libinit2.o)
    0x08000226   0x08000226   0x00000000   Code   RO         4454    .ARM.Collect$$libinit$$0000000E  c_w.l(libinit2.o)
    0x08000226   0x08000226   0x00000000   Code   RO         4457    .ARM.Collect$$libinit$$00000011  c_w.l(libinit2.o)
    0x08000226   0x08000226   0x00000000   Code   RO         4459    .ARM.Collect$$libinit$$00000013  c_w.l(libinit2.o)
    0x08000226   0x08000226   0x00000000   Code   RO         4461    .ARM.Collect$$libinit$$00000015  c_w.l(libinit2.o)
    0x08000226   0x08000226   0x00000000   Code   RO         4463    .ARM.Collect$$libinit$$00000017  c_w.l(libinit2.o)
    0x08000226   0x08000226   0x00000000   Code   RO         4465    .ARM.Collect$$libinit$$00000019  c_w.l(libinit2.o)
    0x08000226   0x08000226   0x00000000   Code   RO         4467    .ARM.Collect$$libinit$$0000001B  c_w.l(libinit2.o)
    0x08000226   0x08000226   0x00000000   Code   RO         4469    .ARM.Collect$$libinit$$0000001D  c_w.l(libinit2.o)
    0x08000226   0x08000226   0x00000000   Code   RO         4471    .ARM.Collect$$libinit$$0000001F  c_w.l(libinit2.o)
    0x08000226   0x08000226   0x00000000   Code   RO         4473    .ARM.Collect$$libinit$$00000021  c_w.l(libinit2.o)
    0x08000226   0x08000226   0x00000000   Code   RO         4475    .ARM.Collect$$libinit$$00000023  c_w.l(libinit2.o)
    0x08000226   0x08000226   0x00000000   Code   RO         4477    .ARM.Collect$$libinit$$00000025  c_w.l(libinit2.o)
    0x08000226   0x08000226   0x00000000   Code   RO         4481    .ARM.Collect$$libinit$$0000002C  c_w.l(libinit2.o)
    0x08000226   0x08000226   0x00000000   Code   RO         4483    .ARM.Collect$$libinit$$0000002E  c_w.l(libinit2.o)
    0x08000226   0x08000226   0x00000000   Code   RO         4485    .ARM.Collect$$libinit$$00000030  c_w.l(libinit2.o)
    0x08000226   0x08000226   0x00000000   Code   RO         4487    .ARM.Collect$$libinit$$00000032  c_w.l(libinit2.o)
    0x08000226   0x08000226   0x00000002   Code   RO         4488    .ARM.Collect$$libinit$$00000033  c_w.l(libinit2.o)
    0x08000228   0x08000228   0x00000002   Code   RO         4519    .ARM.Collect$$libshutdown$$00000000  c_w.l(libshutdown.o)
    0x0800022a   0x0800022a   0x00000000   Code   RO         4545    .ARM.Collect$$libshutdown$$00000002  c_w.l(libshutdown2.o)
    0x0800022a   0x0800022a   0x00000000   Code   RO         4547    .ARM.Collect$$libshutdown$$00000004  c_w.l(libshutdown2.o)
    0x0800022a   0x0800022a   0x00000000   Code   RO         4549    .ARM.Collect$$libshutdown$$00000006  c_w.l(libshutdown2.o)
    0x0800022a   0x0800022a   0x00000000   Code   RO         4552    .ARM.Collect$$libshutdown$$00000009  c_w.l(libshutdown2.o)
    0x0800022a   0x0800022a   0x00000000   Code   RO         4555    .ARM.Collect$$libshutdown$$0000000C  c_w.l(libshutdown2.o)
    0x0800022a   0x0800022a   0x00000000   Code   RO         4557    .ARM.Collect$$libshutdown$$0000000E  c_w.l(libshutdown2.o)
    0x0800022a   0x0800022a   0x00000000   Code   RO         4560    .ARM.Collect$$libshutdown$$00000011  c_w.l(libshutdown2.o)
    0x0800022a   0x0800022a   0x00000002   Code   RO         4561    .ARM.Collect$$libshutdown$$00000012  c_w.l(libshutdown2.o)
    0x0800022c   0x0800022c   0x00000000   Code   RO         4397    .ARM.Collect$$rtentry$$00000000  c_w.l(__rtentry.o)
    0x0800022c   0x0800022c   0x00000000   Code   RO         4403    .ARM.Collect$$rtentry$$00000002  c_w.l(__rtentry2.o)
    0x0800022c   0x0800022c   0x00000006   Code   RO         4415    .ARM.Collect$$rtentry$$00000004  c_w.l(__rtentry4.o)
    0x08000232   0x08000232   0x00000000   Code   RO         4405    .ARM.Collect$$rtentry$$00000009  c_w.l(__rtentry2.o)
    0x08000232   0x08000232   0x00000004   Code   RO         4406    .ARM.Collect$$rtentry$$0000000A  c_w.l(__rtentry2.o)
    0x08000236   0x08000236   0x00000000   Code   RO         4408    .ARM.Collect$$rtentry$$0000000C  c_w.l(__rtentry2.o)
    0x08000236   0x08000236   0x00000008   Code   RO         4409    .ARM.Collect$$rtentry$$0000000D  c_w.l(__rtentry2.o)
    0x0800023e   0x0800023e   0x00000002   Code   RO         4436    .ARM.Collect$$rtexit$$00000000  c_w.l(rtexit.o)
    0x08000240   0x08000240   0x00000000   Code   RO         4492    .ARM.Collect$$rtexit$$00000002  c_w.l(rtexit2.o)
    0x08000240   0x08000240   0x00000004   Code   RO         4493    .ARM.Collect$$rtexit$$00000003  c_w.l(rtexit2.o)
    0x08000244   0x08000244   0x00000006   Code   RO         4494    .ARM.Collect$$rtexit$$00000004  c_w.l(rtexit2.o)
    0x0800024a   0x0800024a   0x00000002   PAD
    0x0800024c   0x0800024c   0x00000040   Code   RO            4    .text               startup_stm32l496xx.o
    0x0800028c   0x0800028c   0x00000140   Code   RO         3072    .text               context_rvds.o
    0x080003cc   0x080003cc   0x000000ee   Code   RO         4375    .text               c_w.l(lludivv7m.o)
    0x080004ba   0x080004ba   0x00000048   Code   RO         4377    .text               c_w.l(strcpy.o)
    0x08000502   0x08000502   0x0000003e   Code   RO         4379    .text               c_w.l(strlen.o)
    0x08000540   0x08000540   0x00000096   Code   RO         4381    .text               c_w.l(strncmp.o)
    0x080005d6   0x080005d6   0x00000018   Code   RO         4383    .text               c_w.l(strcat.o)
    0x080005ee   0x080005ee   0x00000064   Code   RO         4385    .text               c_w.l(rt_memcpy_w.o)
    0x08000652   0x08000652   0x00000044   Code   RO         4387    .text               c_w.l(rt_memclr.o)
    0x08000696   0x08000696   0x0000004e   Code   RO         4389    .text               c_w.l(rt_memclr_w.o)
    0x080006e4   0x080006e4   0x00000056   Code   RO         4391    .text               c_w.l(strncpy.o)
    0x0800073a   0x0800073a   0x00000006   Code   RO         4393    .text               c_w.l(heapauxi.o)
    0x08000740   0x08000740   0x0000004a   Code   RO         4419    .text               c_w.l(sys_stackheap_outer.o)
    0x0800078a   0x0800078a   0x00000012   Code   RO         4421    .text               c_w.l(exit.o)
    0x0800079c   0x0800079c   0x00000008   Code   RO         4433    .text               c_w.l(libspace.o)
    0x080007a4   0x080007a4   0x0000000c   Code   RO         4489    .text               c_w.l(sys_exit.o)
    0x080007b0   0x080007b0   0x00000002   Code   RO         4508    .text               c_w.l(use_no_semi.o)
    0x080007b2   0x080007b2   0x00000000   Code   RO         4510    .text               c_w.l(indicate_semi.o)
    0x080007b2   0x080007b2   0x0000000a   Code   RO         3117    i.$Sub$$main        components.o
    0x080007bc   0x080007bc   0x00000034   Code   RO           13    i.Btn1_ContinuosFree_CallBack  rt_user_task.o
    0x080007f0   0x080007f0   0x00000030   Code   RO           14    i.Btn1_Continuos_CallBack  rt_user_task.o
    0x08000820   0x08000820   0x00000030   Code   RO           15    i.Btn1_Double_CallBack  rt_user_task.o
    0x08000850   0x08000850   0x00000030   Code   RO           16    i.Btn1_Dowm_CallBack  rt_user_task.o
    0x08000880   0x08000880   0x00000030   Code   RO           17    i.Btn1_Long_CallBack  rt_user_task.o
    0x080008b0   0x080008b0   0x00000002   Code   RO          333    i.BusFault_Handler  stm32l4xx_it.o
    0x080008b2   0x080008b2   0x00000002   PAD
    0x080008b4   0x080008b4   0x00000020   Code   RO          412    i.Button_Attach     button.o
    0x080008d4   0x080008d4   0x000000f4   Code   RO          413    i.Button_Create     button.o
    0x080009c8   0x080009c8   0x00000170   Code   RO          414    i.Button_Cycle_Process  button.o
    0x08000b38   0x08000b38   0x0000001c   Code   RO          416    i.Button_Process    button.o
    0x08000b54   0x08000b54   0x00000002   Code   RO          334    i.DebugMon_Handler  stm32l4xx_it.o
    0x08000b56   0x08000b56   0x00000004   Code   RO          221    i.Error_Handler     main.o
    0x08000b5a   0x08000b5a   0x0000004a   Code   RO         2316    i.HAL_DMA_Abort     stm32l4xx_hal_dma.o
    0x08000ba4   0x08000ba4   0x0000004e   Code   RO         2317    i.HAL_DMA_Abort_IT  stm32l4xx_hal_dma.o
    0x08000bf2   0x08000bf2   0x00000002   PAD
    0x08000bf4   0x08000bf4   0x00000256   Code   RO         2252    i.HAL_GPIO_Init     stm32l4xx_hal_gpio.o
    0x08000e4a   0x08000e4a   0x0000000a   Code   RO         2254    i.HAL_GPIO_ReadPin  stm32l4xx_hal_gpio.o
    0x08000e54   0x08000e54   0x00000010   Code   RO         2255    i.HAL_GPIO_TogglePin  stm32l4xx_hal_gpio.o
    0x08000e64   0x08000e64   0x0000000a   Code   RO         2256    i.HAL_GPIO_WritePin  stm32l4xx_hal_gpio.o
    0x08000e6e   0x08000e6e   0x00000002   PAD
    0x08000e70   0x08000e70   0x0000000c   Code   RO          980    i.HAL_GetTick       stm32l4xx_hal.o
    0x08000e7c   0x08000e7c   0x0000001e   Code   RO          987    i.HAL_Init          stm32l4xx_hal.o
    0x08000e9a   0x08000e9a   0x00000002   PAD
    0x08000e9c   0x08000e9c   0x00000044   Code   RO          988    i.HAL_InitTick      stm32l4xx_hal.o
    0x08000ee0   0x08000ee0   0x0000002c   Code   RO          391    i.HAL_MspInit       stm32l4xx_hal_msp.o
    0x08000f0c   0x08000f0c   0x0000001a   Code   RO         2799    i.HAL_NVIC_EnableIRQ  stm32l4xx_hal_cortex.o
    0x08000f26   0x08000f26   0x00000002   PAD
    0x08000f28   0x08000f28   0x00000040   Code   RO         2805    i.HAL_NVIC_SetPriority  stm32l4xx_hal_cortex.o
    0x08000f68   0x08000f68   0x00000024   Code   RO         2806    i.HAL_NVIC_SetPriorityGrouping  stm32l4xx_hal_cortex.o
    0x08000f8c   0x08000f8c   0x00000068   Code   RO         2543    i.HAL_PWREx_ControlVoltageScaling  stm32l4xx_hal_pwr_ex.o
    0x08000ff4   0x08000ff4   0x00000010   Code   RO         2574    i.HAL_PWREx_GetVoltageRange  stm32l4xx_hal_pwr_ex.o
    0x08001004   0x08001004   0x000003ca   Code   RO         1860    i.HAL_RCCEx_PeriphCLKConfig  stm32l4xx_hal_rcc_ex.o
    0x080013ce   0x080013ce   0x00000002   PAD
    0x080013d0   0x080013d0   0x00000144   Code   RO         1730    i.HAL_RCC_ClockConfig  stm32l4xx_hal_rcc.o
    0x08001514   0x08001514   0x0000000c   Code   RO         1734    i.HAL_RCC_GetHCLKFreq  stm32l4xx_hal_rcc.o
    0x08001520   0x08001520   0x00000024   Code   RO         1736    i.HAL_RCC_GetPCLK1Freq  stm32l4xx_hal_rcc.o
    0x08001544   0x08001544   0x00000024   Code   RO         1737    i.HAL_RCC_GetPCLK2Freq  stm32l4xx_hal_rcc.o
    0x08001568   0x08001568   0x000000a4   Code   RO         1739    i.HAL_RCC_GetSysClockFreq  stm32l4xx_hal_rcc.o
    0x0800160c   0x0800160c   0x00000568   Code   RO         1742    i.HAL_RCC_OscConfig  stm32l4xx_hal_rcc.o
    0x08001b74   0x08001b74   0x00000028   Code   RO         2810    i.HAL_SYSTICK_Config  stm32l4xx_hal_cortex.o
    0x08001b9c   0x08001b9c   0x00000002   Code   RO          502    i.HAL_UARTEx_RxEventCallback  stm32l4xx_hal_uart.o
    0x08001b9e   0x08001b9e   0x00000002   Code   RO          895    i.HAL_UARTEx_WakeupCallback  stm32l4xx_hal_uart_ex.o
    0x08001ba0   0x08001ba0   0x00000002   Code   RO          518    i.HAL_UART_ErrorCallback  stm32l4xx_hal_uart.o
    0x08001ba2   0x08001ba2   0x00000002   PAD
    0x08001ba4   0x08001ba4   0x00000294   Code   RO          521    i.HAL_UART_IRQHandler  stm32l4xx_hal_uart.o
    0x08001e38   0x08001e38   0x00000066   Code   RO          522    i.HAL_UART_Init     stm32l4xx_hal_uart.o
    0x08001e9e   0x08001e9e   0x00000002   PAD
    0x08001ea0   0x08001ea0   0x00000090   Code   RO          292    i.HAL_UART_MspInit  usart.o
    0x08001f30   0x08001f30   0x000000b6   Code   RO          531    i.HAL_UART_Transmit  stm32l4xx_hal_uart.o
    0x08001fe6   0x08001fe6   0x00000002   Code   RO          534    i.HAL_UART_TxCpltCallback  stm32l4xx_hal_uart.o
    0x08001fe8   0x08001fe8   0x0000000c   Code   RO          335    i.LPUART1_IRQHandler  stm32l4xx_it.o
    0x08001ff4   0x08001ff4   0x000000c0   Code   RO          267    i.MX_GPIO_Init      gpio.o
    0x080020b4   0x080020b4   0x00000002   Code   RO          336    i.MemManage_Handler  stm32l4xx_it.o
    0x080020b6   0x080020b6   0x00000002   Code   RO          337    i.NMI_Handler       stm32l4xx_it.o
    0x080020b8   0x080020b8   0x0000012c   Code   RO         1864    i.RCCEx_PLLSAI1_Config  stm32l4xx_hal_rcc_ex.o
    0x080021e4   0x080021e4   0x00000108   Code   RO         1865    i.RCCEx_PLLSAI2_Config  stm32l4xx_hal_rcc_ex.o
    0x080022ec   0x080022ec   0x0000007c   Code   RO         1743    i.RCC_SetFlashLatencyFromMSIRange  stm32l4xx_hal_rcc.o
    0x08002368   0x08002368   0x00000044   Code   RO          421    i.Search_Button     button.o
    0x080023ac   0x080023ac   0x00000012   Code   RO         4062    i.SysTick_Handler   board.o
    0x080023be   0x080023be   0x0000006c   Code   RO          222    i.SystemClock_Config  main.o
    0x0800242a   0x0800242a   0x00000002   PAD
    0x0800242c   0x0800242c   0x000000a8   Code   RO         3037    i.SystemCoreClockUpdate  system_stm32l4xx.o
    0x080024d4   0x080024d4   0x00000010   Code   RO         3038    i.SystemInit        system_stm32l4xx.o
    0x080024e4   0x080024e4   0x000000c8   Code   RO          536    i.UART_AdvFeatureConfig  stm32l4xx_hal_uart.o
    0x080025ac   0x080025ac   0x0000005c   Code   RO          537    i.UART_CheckIdleState  stm32l4xx_hal_uart.o
    0x08002608   0x08002608   0x00000014   Code   RO          538    i.UART_DMAAbortOnError  stm32l4xx_hal_uart.o
    0x0800261c   0x0800261c   0x0000004a   Code   RO          548    i.UART_EndRxTransfer  stm32l4xx_hal_uart.o
    0x08002666   0x08002666   0x00000002   PAD
    0x08002668   0x08002668   0x00000248   Code   RO          552    i.UART_SetConfig    stm32l4xx_hal_uart.o
    0x080028b0   0x080028b0   0x000000c6   Code   RO          557    i.UART_WaitOnFlagUntilTimeout  stm32l4xx_hal_uart.o
    0x08002976   0x08002976   0x00000002   Code   RO          338    i.UsageFault_Handler  stm32l4xx_it.o
    0x08002978   0x08002978   0x00000020   Code   RO         2812    i.__NVIC_SetPriority  stm32l4xx_hal_cortex.o
    0x08002998   0x08002998   0x00000044   Code   RO         3328    i.__rt_ffs          kservice.o
    0x080029dc   0x080029dc   0x000000d2   Code   RO         4222    i._msh_exec_cmd     msh.o
    0x08002aae   0x08002aae   0x00000002   PAD
    0x08002ab0   0x08002ab0   0x000000ac   Code   RO         3765    i._rt_thread_init   thread.o
    0x08002b5c   0x08002b5c   0x0000001c   Code   RO         3898    i._rt_timer_init    timer.o
    0x08002b78   0x08002b78   0x00000006   Code   RO         3899    i._rt_timer_remove  timer.o
    0x08002b7e   0x08002b7e   0x0000001c   Code   RO         3766    i._thread_cleanup_execute  thread.o
    0x08002b9a   0x08002b9a   0x00000002   PAD
    0x08002b9c   0x08002b9c   0x000000e8   Code   RO         3996    i.bus_fault_track   cpuport.o
    0x08002c84   0x08002c84   0x0000000a   Code   RO         4223    i.cmd_free          msh.o
    0x08002c8e   0x08002c8e   0x0000000a   Code   RO         4224    i.cmd_ps            msh.o
    0x08002c98   0x08002c98   0x00000060   Code   RO         4291    i.finsh_get_prompt  shell.o
    0x08002cf8   0x08002cf8   0x00000040   Code   RO         4295    i.finsh_set_prompt_mode  shell.o
    0x08002d38   0x08002d38   0x0000000c   Code   RO         4296    i.finsh_system_function_init  shell.o
    0x08002d44   0x08002d44   0x00000094   Code   RO         4297    i.finsh_system_init  shell.o
    0x08002dd8   0x08002dd8   0x0000028c   Code   RO         4299    i.finsh_thread_entry  shell.o
    0x08003064   0x08003064   0x00000078   Code   RO         3997    i.hard_fault_track  cpuport.o
    0x080030dc   0x080030dc   0x00000020   Code   RO         4123    i.hello             cmd.o
    0x080030fc   0x080030fc   0x00000064   Code   RO         4124    i.list              cmd.o
    0x08003160   0x08003160   0x00000024   Code   RO         4125    i.list_find_init    cmd.o
    0x08003184   0x08003184   0x00000066   Code   RO         4126    i.list_get_next     cmd.o
    0x080031ea   0x080031ea   0x00000002   PAD
    0x080031ec   0x080031ec   0x0000006c   Code   RO         3517    i.list_mem          mem.o
    0x08003258   0x08003258   0x00000140   Code   RO         4127    i.list_sem          cmd.o
    0x08003398   0x08003398   0x000001b8   Code   RO         4128    i.list_thread       cmd.o
    0x08003550   0x08003550   0x00000140   Code   RO         4129    i.list_timer        cmd.o
    0x08003690   0x08003690   0x00000020   Code   RO          223    i.main              main.o
    0x080036b0   0x080036b0   0x0000000e   Code   RO         3118    i.main_thread_entry  components.o
    0x080036be   0x080036be   0x00000002   PAD
    0x080036c0   0x080036c0   0x000000d8   Code   RO         3998    i.mem_manage_fault_track  cpuport.o
    0x08003798   0x08003798   0x000000ac   Code   RO         4225    i.msh_auto_complete  msh.o
    0x08003844   0x08003844   0x00000064   Code   RO         4226    i.msh_exec          msh.o
    0x080038a8   0x080038a8   0x00000078   Code   RO         4227    i.msh_help          msh.o
    0x08003920   0x08003920   0x00000004   Code   RO         4228    i.msh_is_used       msh.o
    0x08003924   0x08003924   0x000000d0   Code   RO         4229    i.msh_split         msh.o
    0x080039f4   0x080039f4   0x00000018   Code   RO         4130    i.object_split      cmd.o
    0x08003a0c   0x08003a0c   0x000000e8   Code   RO         3518    i.plug_holes        mem.o
    0x08003af4   0x08003af4   0x00000136   Code   RO         3330    i.print_number      kservice.o
    0x08003c2a   0x08003c2a   0x00000002   PAD
    0x08003c2c   0x08003c2c   0x00000050   Code   RO         3119    i.rt_application_init  components.o
    0x08003c7c   0x08003c7c   0x0000006c   Code   RO         3331    i.rt_assert_handler  kservice.o
    0x08003ce8   0x08003ce8   0x0000001a   Code   RO         3519    i.rt_calloc         mem.o
    0x08003d02   0x08003d02   0x00000002   PAD
    0x08003d04   0x08003d04   0x00000048   Code   RO         3120    i.rt_components_board_init  components.o
    0x08003d4c   0x08003d4c   0x00000070   Code   RO         3121    i.rt_components_init  components.o
    0x08003dbc   0x08003dbc   0x0000001c   Code   RO         3697    i.rt_enter_critical  scheduler.o
    0x08003dd8   0x08003dd8   0x00000038   Code   RO         3698    i.rt_exit_critical  scheduler.o
    0x08003e10   0x08003e10   0x000001c0   Code   RO         3520    i.rt_free           mem.o
    0x08003fd0   0x08003fd0   0x00000008   Code   RO         4063    i.rt_heap_begin_get  board.o
    0x08003fd8   0x08003fd8   0x00000008   Code   RO         4064    i.rt_heap_end_get   board.o
    0x08003fe0   0x08003fe0   0x0000003a   Code   RO         4065    i.rt_hw_board_init  board.o
    0x0800401a   0x0800401a   0x00000002   PAD
    0x0800401c   0x0800401c   0x00000028   Code   RO         4066    i.rt_hw_console_getchar  board.o
    0x08004044   0x08004044   0x00000048   Code   RO         4067    i.rt_hw_console_output  board.o
    0x0800408c   0x0800408c   0x00000218   Code   RO         4002    i.rt_hw_hard_fault_exception  cpuport.o
    0x080042a4   0x080042a4   0x0000003c   Code   RO         4003    i.rt_hw_stack_init  cpuport.o
    0x080042e0   0x080042e0   0x0000001c   Code   RO         3301    i.rt_interrupt_enter  irq.o
    0x080042fc   0x080042fc   0x00000018   Code   RO         3302    i.rt_interrupt_get_nest  irq.o
    0x08004314   0x08004314   0x0000001c   Code   RO         3303    i.rt_interrupt_leave  irq.o
    0x08004330   0x08004330   0x00000024   Code   RO         3336    i.rt_kprintf        kservice.o
    0x08004354   0x08004354   0x00000070   Code   RO           18    i.rt_led1_flash_entry  rt_user_task.o
    0x080043c4   0x080043c4   0x0000001c   Code   RO           19    i.rt_led2_flash_entry  rt_user_task.o
    0x080043e0   0x080043e0   0x0000000e   Code   RO         3608    i.rt_list_insert_after  object.o
    0x080043ee   0x080043ee   0x0000000e   Code   RO         3767    i.rt_list_insert_after  thread.o
    0x080043fc   0x080043fc   0x0000000e   Code   RO         3900    i.rt_list_insert_after  timer.o
    0x0800440a   0x0800440a   0x0000000e   Code   RO         3233    i.rt_list_insert_before  ipc.o
    0x08004418   0x08004418   0x00000012   Code   RO         4131    i.rt_list_len       cmd.o
    0x0800442a   0x0800442a   0x00000012   Code   RO         3609    i.rt_list_remove    object.o
    0x0800443c   0x0800443c   0x00000012   Code   RO         3768    i.rt_list_remove    thread.o
    0x0800444e   0x0800444e   0x00000012   Code   RO         3901    i.rt_list_remove    timer.o
    0x08004460   0x08004460   0x000001ec   Code   RO         3521    i.rt_malloc         mem.o
    0x0800464c   0x0800464c   0x00000032   Code   RO         3341    i.rt_memmove        kservice.o
    0x0800467e   0x0800467e   0x00000012   Code   RO         3342    i.rt_memset         kservice.o
    0x08004690   0x08004690   0x000000d0   Code   RO         3610    i.rt_object_allocate  object.o
    0x08004760   0x08004760   0x0000008c   Code   RO         3611    i.rt_object_delete  object.o
    0x080047ec   0x080047ec   0x00000048   Code   RO         3612    i.rt_object_detach  object.o
    0x08004834   0x08004834   0x00000024   Code   RO         3614    i.rt_object_get_information  object.o
    0x08004858   0x08004858   0x00000034   Code   RO         3617    i.rt_object_get_type  object.o
    0x0800488c   0x0800488c   0x000000a4   Code   RO         3618    i.rt_object_init    object.o
    0x08004930   0x08004930   0x00000038   Code   RO         3619    i.rt_object_is_systemobject  object.o
    0x08004968   0x08004968   0x00000010   Code   RO           20    i.rt_read_key1      rt_user_task.o
    0x08004978   0x08004978   0x00000058   Code   RO         3699    i.rt_schedule       scheduler.o
    0x080049d0   0x080049d0   0x00000074   Code   RO         3700    i.rt_schedule_insert_thread  scheduler.o
    0x08004a44   0x08004a44   0x00000070   Code   RO         3701    i.rt_schedule_remove_thread  scheduler.o
    0x08004ab4   0x08004ab4   0x0000006c   Code   RO         3238    i.rt_sem_init       ipc.o
    0x08004b20   0x08004b20   0x00000088   Code   RO         3239    i.rt_sem_release    ipc.o
    0x08004ba8   0x08004ba8   0x0000019c   Code   RO         3240    i.rt_sem_take       ipc.o
    0x08004d44   0x08004d44   0x000000b0   Code   RO         3344    i.rt_show_version   kservice.o
    0x08004df4   0x08004df4   0x00000010   Code   RO         3350    i.rt_strlen         kservice.o
    0x08004e04   0x08004e04   0x00000026   Code   RO         3352    i.rt_strncpy        kservice.o
    0x08004e2a   0x08004e2a   0x00000002   PAD
    0x08004e2c   0x08004e2c   0x00000108   Code   RO         3524    i.rt_system_heap_init  mem.o
    0x08004f34   0x08004f34   0x00000034   Code   RO         3702    i.rt_system_scheduler_init  scheduler.o
    0x08004f68   0x08004f68   0x00000028   Code   RO         3703    i.rt_system_scheduler_start  scheduler.o
    0x08004f90   0x08004f90   0x0000000c   Code   RO         3902    i.rt_system_timer_init  timer.o
    0x08004f9c   0x08004f9c   0x00000002   Code   RO         3903    i.rt_system_timer_thread_init  timer.o
    0x08004f9e   0x08004f9e   0x00000048   Code   RO         3770    i.rt_thread_create  thread.o
    0x08004fe6   0x08004fe6   0x00000002   PAD
    0x08004fe8   0x08004fe8   0x0000005c   Code   RO         3775    i.rt_thread_exit    thread.o
    0x08005044   0x08005044   0x00000006   Code   RO         3196    i.rt_thread_idle_entry  idle.o
    0x0800504a   0x0800504a   0x00000002   PAD
    0x0800504c   0x0800504c   0x0000009c   Code   RO         3197    i.rt_thread_idle_excute  idle.o
    0x080050e8   0x080050e8   0x00000038   Code   RO         3199    i.rt_thread_idle_init  idle.o
    0x08005120   0x08005120   0x00000086   Code   RO         3777    i.rt_thread_init    thread.o
    0x080051a6   0x080051a6   0x0000000e   Code   RO         3778    i.rt_thread_mdelay  thread.o
    0x080051b4   0x080051b4   0x0000007c   Code   RO         3779    i.rt_thread_resume  thread.o
    0x08005230   0x08005230   0x0000000c   Code   RO         3780    i.rt_thread_self    thread.o
    0x0800523c   0x0800523c   0x00000080   Code   RO         3781    i.rt_thread_sleep   thread.o
    0x080052bc   0x080052bc   0x000000bc   Code   RO         3782    i.rt_thread_startup  thread.o
    0x08005378   0x08005378   0x00000084   Code   RO         3783    i.rt_thread_suspend  thread.o
    0x080053fc   0x080053fc   0x000000b4   Code   RO         3784    i.rt_thread_timeout  thread.o
    0x080054b0   0x080054b0   0x00000060   Code   RO         3785    i.rt_thread_yield   thread.o
    0x08005510   0x08005510   0x00000032   Code   RO         3077    i.rt_tick_from_millisecond  clock.o
    0x08005542   0x08005542   0x00000002   PAD
    0x08005544   0x08005544   0x0000000c   Code   RO         3078    i.rt_tick_get       clock.o
    0x08005550   0x08005550   0x0000002c   Code   RO         3079    i.rt_tick_increase  clock.o
    0x0800557c   0x0800557c   0x0000008c   Code   RO         3904    i.rt_timer_check    timer.o
    0x08005608   0x08005608   0x000000c0   Code   RO         3905    i.rt_timer_control  timer.o
    0x080056c8   0x080056c8   0x000000dc   Code   RO         3908    i.rt_timer_detach   timer.o
    0x080057a4   0x080057a4   0x00000050   Code   RO         3909    i.rt_timer_init     timer.o
    0x080057f4   0x080057f4   0x00000130   Code   RO         3911    i.rt_timer_start    timer.o
    0x08005924   0x08005924   0x000000a8   Code   RO         3912    i.rt_timer_stop     timer.o
    0x080059cc   0x080059cc   0x000000d0   Code   RO           21    i.rt_user_thread_entry  rt_user_task.o
    0x08005a9c   0x08005a9c   0x0000028a   Code   RO         3355    i.rt_vsnprintf      kservice.o
    0x08005d26   0x08005d26   0x00000004   Code   RO         3122    i.rti_board_end     components.o
    0x08005d2a   0x08005d2a   0x00000004   Code   RO         3123    i.rti_board_start   components.o
    0x08005d2e   0x08005d2e   0x00000004   Code   RO         3124    i.rti_end           components.o
    0x08005d32   0x08005d32   0x00000004   Code   RO         3125    i.rti_start         components.o
    0x08005d36   0x08005d36   0x0000002a   Code   RO         3126    i.rtthread_startup  components.o
    0x08005d60   0x08005d60   0x00000028   Code   RO         3357    i.skip_atoi         kservice.o
    0x08005d88   0x08005d88   0x00000034   Code   RO         4068    i.uart_init         board.o
    0x08005dbc   0x08005dbc   0x000000d0   Code   RO         4004    i.usage_fault_track  cpuport.o
    0x08005e8c   0x08005e8c   0x0000000a   Code   RO         4132    i.version           cmd.o
    0x08005e96   0x08005e96   0x0000000a   Code   RO         4504    x$fpl$fpinit        fz_wm.l(fpinit.o)
    0x08005ea0   0x08005ea0   0x00000040   Data   RO         3039    .constdata          system_stm32l4xx.o
    0x08005ee0   0x08005ee0   0x00000008   Data   RO         3040    .constdata          system_stm32l4xx.o
    0x08005ee8   0x08005ee8   0x0000000a   Data   RO         3127    .constdata          components.o
    0x08005ef2   0x08005ef2   0x00000010   Data   RO         3128    .constdata          components.o
    0x08005f02   0x08005f02   0x0000000e   Data   RO         3129    .constdata          components.o
    0x08005f10   0x08005f10   0x00000008   Data   RO         3130    .constdata          components.o
    0x08005f18   0x08005f18   0x00000014   Data   RO         3131    .constdata          components.o
    0x08005f2c   0x08005f2c   0x00000016   Data   RO         3201    .constdata          idle.o
    0x08005f42   0x08005f42   0x00000060   Data   RO         3242    .constdata          ipc.o
    0x08005fa2   0x08005fa2   0x00000122   Data   RO         3359    .constdata          kservice.o
    0x080060c4   0x080060c4   0x0000003c   Data   RO         3526    .constdata          mem.o
    0x08006100   0x08006100   0x00000080   Data   RO         3621    .constdata          object.o
    0x08006180   0x08006180   0x00000034   Data   RO         3705    .constdata          scheduler.o
    0x080061b4   0x080061b4   0x000000c0   Data   RO         3786    .constdata          thread.o
    0x08006274   0x08006274   0x0000005c   Data   RO         3913    .constdata          timer.o
    0x080062d0   0x080062d0   0x0000000a   Data   RO         4070    .constdata          board.o
    0x080062da   0x080062da   0x0000000e   Data   RO         4230    .constdata          msh.o
    0x080062e8   0x080062e8   0x00000012   Data   RO         4301    .constdata          shell.o
    0x080062fa   0x080062fa   0x0000004a   Data   RO         4302    .constdata          shell.o
    0x08006344   0x08006344   0x000000eb   Data   RO          422    .conststring        button.o
    0x0800642f   0x0800642f   0x00000001   PAD
    0x08006430   0x08006430   0x00000045   Data   RO         3243    .conststring        ipc.o
    0x08006475   0x08006475   0x00000003   PAD
    0x08006478   0x08006478   0x000000eb   Data   RO         3527    .conststring        mem.o
    0x08006563   0x08006563   0x00000001   PAD
    0x08006564   0x08006564   0x00000042   Data   RO         3787    .conststring        thread.o
    0x080065a6   0x080065a6   0x00000002   PAD
    0x080065a8   0x080065a8   0x00000044   Data   RO         4133    .conststring        cmd.o
    0x080065ec   0x080065ec   0x00000009   Data   RO         3529    .rodata.name        mem.o
    0x080065f5   0x080065f5   0x0000001e   Data   RO         3530    .rodata.name        mem.o
    0x08006613   0x08006613   0x00000006   Data   RO         4134    .rodata.name        cmd.o
    0x08006619   0x08006619   0x00000010   Data   RO         4135    .rodata.name        cmd.o
    0x08006629   0x08006629   0x00000008   Data   RO         4136    .rodata.name        cmd.o
    0x08006631   0x08006631   0x00000023   Data   RO         4137    .rodata.name        cmd.o
    0x08006654   0x08006654   0x0000000e   Data   RO         4138    .rodata.name        cmd.o
    0x08006662   0x08006662   0x00000023   Data   RO         4139    .rodata.name        cmd.o
    0x08006685   0x08006685   0x0000000c   Data   RO         4140    .rodata.name        cmd.o
    0x08006691   0x08006691   0x0000000c   Data   RO         4141    .rodata.name        cmd.o
    0x0800669d   0x0800669d   0x00000012   Data   RO         4142    .rodata.name        cmd.o
    0x080066af   0x080066af   0x0000000c   Data   RO         4143    .rodata.name        cmd.o
    0x080066bb   0x080066bb   0x00000009   Data   RO         4144    .rodata.name        cmd.o
    0x080066c4   0x080066c4   0x00000019   Data   RO         4145    .rodata.name        cmd.o
    0x080066dd   0x080066dd   0x0000000f   Data   RO         4146    .rodata.name        cmd.o
    0x080066ec   0x080066ec   0x00000019   Data   RO         4147    .rodata.name        cmd.o
    0x08006705   0x08006705   0x0000000b   Data   RO         4148    .rodata.name        cmd.o
    0x08006710   0x08006710   0x00000015   Data   RO         4149    .rodata.name        cmd.o
    0x08006725   0x08006725   0x00000011   Data   RO         4150    .rodata.name        cmd.o
    0x08006736   0x08006736   0x00000015   Data   RO         4151    .rodata.name        cmd.o
    0x0800674b   0x0800674b   0x00000005   Data   RO         4152    .rodata.name        cmd.o
    0x08006750   0x08006750   0x0000001a   Data   RO         4153    .rodata.name        cmd.o
    0x0800676a   0x0800676a   0x0000000b   Data   RO         4231    .rodata.name        msh.o
    0x08006775   0x08006775   0x00000016   Data   RO         4232    .rodata.name        msh.o
    0x0800678b   0x0800678b   0x00000009   Data   RO         4233    .rodata.name        msh.o
    0x08006794   0x08006794   0x0000001c   Data   RO         4234    .rodata.name        msh.o
    0x080067b0   0x080067b0   0x0000000b   Data   RO         4235    .rodata.name        msh.o
    0x080067bb   0x080067bb   0x00000025   Data   RO         4236    .rodata.name        msh.o
    0x080067e0   0x080067e0   0x00000008   Data   RO         3132    .rti_fn.0           components.o
    0x080067e8   0x080067e8   0x00000008   Data   RO         3133    .rti_fn.0.end       components.o
    0x080067f0   0x080067f0   0x00000008   Data   RO         4071    .rti_fn.1           board.o
    0x080067f8   0x080067f8   0x00000008   Data   RO         3134    .rti_fn.1.end       components.o
    0x08006800   0x08006800   0x00000008   Data   RO         4304    .rti_fn.6           shell.o
    0x08006808   0x08006808   0x00000008   Data   RO         3135    .rti_fn.6.end       components.o
    0x08006810   0x08006810   0x0000000c   Data   RO         3531    FSymTab             mem.o
    0x0800681c   0x0800681c   0x00000078   Data   RO         4154    FSymTab             cmd.o
    0x08006894   0x08006894   0x00000024   Data   RO         4237    FSymTab             msh.o
    0x080068b8   0x080068b8   0x00000020   Data   RO         4562    Region$$Table       anon$$obj.o


    Execution Region RW_IRAM2 (Exec base: 0x10000000, Load base: 0x08006990, Size: 0x00000000, Max: 0x00010000, ABSOLUTE)

    **** No section assigned to this execution region ****


    Execution Region RW_IRAM1 (Exec base: 0x20000000, Load base: 0x080068d8, Size: 0x00005110, Max: 0x00040000, ABSOLUTE)

    Exec Addr    Load Addr    Size         Type   Attr      Idx    E Section Name        Object

    0x20000000   0x080068d8   0x00000004   Data   RW           24    .data               rt_user_task.o
    0x20000004   0x080068dc   0x00000004   Data   RW          423    .data               button.o
    0x20000008   0x080068e0   0x0000000c   Data   RW         1004    .data               stm32l4xx_hal.o
    0x20000014   0x080068ec   0x00000004   Data   RW         3041    .data               system_stm32l4xx.o
    0x20000018   0x080068f0   0x00000004   Data   RW         3081    .data               clock.o
    0x2000001c   0x080068f4   0x00000001   Data   RW         3304    .data               irq.o
    0x2000001d   0x080068f5   0x00000003   PAD
    0x20000020   0x080068f8   0x00000008   Data   RW         3360    .data               kservice.o
    0x20000028   0x08006900   0x00000018   Data   RW         3528    .data               mem.o
    0x20000040   0x08006918   0x00000030   Data   RW         3622    .data               object.o
    0x20000070   0x08006948   0x00000014   Data   RW         3706    .data               scheduler.o
    0x20000084   0x0800695c   0x0000000c   Data   RW         3914    .data               timer.o
    0x20000090   0x08006968   0x00000004   Data   RW         4006    .data               cpuport.o
    0x20000094   0x0800696c   0x00000004   Data   RW         4007    .data               cpuport.o
    0x20000098   0x08006970   0x00000004   Data   RW         4008    .data               cpuport.o
    0x2000009c   0x08006974   0x00000004   Data   RW         4009    .data               cpuport.o
    0x200000a0   0x08006978   0x00000018   Data   RW         4303    .data               shell.o
    0x200000b8        -       0x00000050   Zero   RW           22    .bss                rt_user_task.o
    0x20000108        -       0x00000084   Zero   RW          294    .bss                usart.o
    0x2000018c        -       0x00000178   Zero   RW         3200    .bss                idle.o
    0x20000304        -       0x00000200   Zero   RW         3358    .bss                kservice.o
    0x20000504        -       0x00000020   Zero   RW         3525    .bss                mem.o
    0x20000524        -       0x00000100   Zero   RW         3704    .bss                scheduler.o
    0x20000624        -       0x00003c84   Zero   RW         4069    .bss                board.o
    0x200042a8        -       0x00000201   Zero   RW         4300    .bss                shell.o
    0x200044a9   0x08006990   0x00000003   PAD
    0x200044ac        -       0x00000060   Zero   RW         4434    .bss                c_w.l(libspace.o)
    0x2000450c   0x08006990   0x00000004   PAD
    0x20004510        -       0x00000400   Zero   RW            2    HEAP                startup_stm32l496xx.o
    0x20004910        -       0x00000800   Zero   RW            1    STACK               startup_stm32l496xx.o


==============================================================================

Image component sizes


      Code (inc. data)   RO Data    RW Data    ZI Data      Debug   Object Name

       256         30         18          0      15492       5570   board.o
       740        106        235          4          0       7080   button.o
       106         12          0          4          0       2060   clock.o
      1402        532        531          0          0      14112   cmd.o
       346        138        100          0          0       7232   components.o
       320         28          0          0          0        992   context_rvds.o
      1372        736          0         16          0       7066   cpuport.o
       192         12          0          0          0       1127   gpio.o
       218         70         22          0        376       5538   idle.o
       670        192        165          0          0      10010   ipc.o
        80         18          0          1          0       2502   irq.o
      1510        222        290          8        512      12000   kservice.o
       144          6          0          0          0       2348   main.o
      1570        680        346         24         32       7468   mem.o
       834        178        168          0          0       8648   msh.o
       760        270        128         48          0      11030   object.o
       608        328          0          4         80     870715   rt_user_task.o
       492        104         52         20        256       9074   scheduler.o
       972        160        100         24        513      12842   shell.o
        64         26        428          0       3072        896   startup_stm32l496xx.o
       110         16          0         12          0      15651   stm32l4xx_hal.o
       198         14          0          0          0      34479   stm32l4xx_hal_cortex.o
       152          0          0          0          0       2051   stm32l4xx_hal_dma.o
       634         40          0          0          0       4016   stm32l4xx_hal_gpio.o
        44          6          0          0          0        954   stm32l4xx_hal_msp.o
       120         20          0          0          0       1506   stm32l4xx_hal_pwr_ex.o
      2080        104          0          0          0       8076   stm32l4xx_hal_rcc.o
      1534         46          0          0          0       4332   stm32l4xx_hal_rcc_ex.o
      2118         70          0          0          0      12267   stm32l4xx_hal_uart.o
         2          0          0          0          0       1208   stm32l4xx_hal_uart_ex.o
        22          6          0          0          0       3102   stm32l4xx_it.o
       184         20         72          4          0       2249   system_stm32l4xx.o
      1404        388        258          0          0      17611   thread.o
      1184        462         92         12          0      13022   timer.o
       144         12          0          0        132       1374   usart.o

    ----------------------------------------------------------------------
     22628       5052       3044        184      20468    1120208   Object Totals
         0          0         32          0          0          0   (incl. Generated)
        42          0          7          3          3          0   (incl. Padding)

    ----------------------------------------------------------------------

      Code (inc. data)   RO Data    RW Data    ZI Data      Debug   Library Member Name

         8          0          0          0          0         68   __main.o
         0          0          0          0          0          0   __rtentry.o
        12          0          0          0          0          0   __rtentry2.o
         6          0          0          0          0          0   __rtentry4.o
        52          8          0          0          0          0   __scatter.o
        26          0          0          0          0          0   __scatter_copy.o
        28          0          0          0          0          0   __scatter_zi.o
        18          0          0          0          0         80   exit.o
         6          0          0          0          0        152   heapauxi.o
         0          0          0          0          0          0   indicate_semi.o
         2          0          0          0          0          0   libinit.o
         6          0          0          0          0          0   libinit2.o
         2          0          0          0          0          0   libshutdown.o
         2          0          0          0          0          0   libshutdown2.o
         8          4          0          0         96         68   libspace.o
       238          0          0          0          0        100   lludivv7m.o
        68          0          0          0          0         68   rt_memclr.o
        78          0          0          0          0         80   rt_memclr_w.o
       100          0          0          0          0         80   rt_memcpy_w.o
         2          0          0          0          0          0   rtexit.o
        10          0          0          0          0          0   rtexit2.o
        24          0          0          0          0         68   strcat.o
        72          0          0          0          0         80   strcpy.o
        62          0          0          0          0         76   strlen.o
       150          0          0          0          0         80   strncmp.o
        86          0          0          0          0         76   strncpy.o
        12          4          0          0          0         68   sys_exit.o
        74          0          0          0          0         80   sys_stackheap_outer.o
         2          0          0          0          0         68   use_no_semi.o
        10          0          0          0          0        116   fpinit.o

    ----------------------------------------------------------------------
      1168         16          0          0        100       1408   Library Totals
         4          0          0          0          4          0   (incl. Padding)

    ----------------------------------------------------------------------

      Code (inc. data)   RO Data    RW Data    ZI Data      Debug   Library Name

      1154         16          0          0         96       1292   c_w.l
        10          0          0          0          0        116   fz_wm.l

    ----------------------------------------------------------------------
      1168         16          0          0        100       1408   Library Totals

    ----------------------------------------------------------------------

==============================================================================


      Code (inc. data)   RO Data    RW Data    ZI Data      Debug   

     23796       5068       3044        184      20568    1103092   Grand Totals
     23796       5068       3044        184      20568    1103092   ELF Image Totals
     23796       5068       3044        184          0          0   ROM Totals

==============================================================================

    Total RO  Size (Code + RO Data)                26840 (  26.21kB)
    Total RW  Size (RW Data + ZI Data)             20752 (  20.27kB)
    Total ROM Size (Code + RO Data + RW Data)      27024 (  26.39kB)

==============================================================================

